:020000040800F2
:10000000180C0020310200088B260008AD200008E3
:1000100089260008A50800084D2A000800000000F5
:100020000000000000000000000000008F26000813
:10003000A9090008000000008D260008912600088C
:100040004B0200084B0200084B0200084B0200085C
:100050004B0200084B0200084B0200084B0200084C
:100060004B0200084B0200084B0200084B0200083C
:100070004B0200084B0200084B0200084B0200082C
:100080004B0200084B0200084B0200084B0200081C
:100090004B0200084B0200084B0200084B0200080C
:1000A0004B0200084B0200084B0200084B020008FC
:1000B0004B0200084B0200084B0200084B020008EC
:1000C0004B0200084B0200084B0200084B020008DC
:1000D0004B020008212A00084B0200084B020008CE
:1000E0004B0200084B0200084B0200084B020008BC
:1000F0004B0200084B0200084B0200084B020008AC
:100100004B0200084B0200084B0200084B0200089B
:100110004B0200084B0200084B0200084B0200088B
:10012000A90800084B0200084B0200084B02000817
:100130004B0200084B0200084B0200084B0200086B
:100140004B0200084B0200084B0200084B0200085B
:100150004B0200084B0200084B0200082D2A000841
:100160004B0200084B0200084B0200084B0200083B
:100170004B0200084B0200084B0200080000000080
:100180004B0200084B02000800F002F800F041F8B2
:100190000AA090E8000C82448344AAF10107DA45E2
:1001A00001D100F036F8AFF2090EBAE80F0013F0F3
:1001B000010F18BFFB1A43F001031847082C000079
:1001C000282C0000103A24BF78C878C1FAD852070A
:1001D00024BF30C830C144BF04680C6070470000C1
:1001E0000023002400250026103A28BF78C1FBD840
:1001F000520728BF30C148BF0B607047732900F019
:100200003882002070471FB502F0C6FD1FBD10B533
:1002100010BD00F037FA1146FFF7F5FF02F07CFC45
:1002200000F055FA03B4FFF7F2FF03BC00F058FAF0
:100230000948804709480047FEE7FEE7FEE7FEE77A
:10024000FEE7FEE7FEE7FEE7FEE7FEE704480549B6
:10025000054A064B70470000352700088901000851
:1002600018060020180C002018080020180800208C
:1002700053EA020C00F069802DE9F04B4FF00006C4
:10028000002B1FBFB3FA83F503FA05F424FA05F631
:100290005E4012BF1643B2FA82F502FA05F4C5F1C8
:1002A00020051EBF22FA05FC44EA0C04203556EA5C
:1002B000044C4FEA144418BF641C4FF000084FF080
:1002C0000009904271EB030C39D3002919BFB1FA30
:1002D00081F701FA07F6B0FA80F700FA07F6C7F1DE
:1002E00020071EBF20FA07FC46EA0C062037B6FBA3
:1002F000F4FCA7EB0507103F07F01F0BCBF120061E
:100300000CFA0BFB2CFA06F644BFB3460026202F4E
:10031000A4BF5E464FF0000B5BEA060C08BF4FF02F
:10032000010B19EB0B09ABFB027C48EB0608C01B69
:1003300006FB02CC0BFB03CC71EB0C01C1E70B46B7
:10034000024641464846BDE8F08B13B54FF0000029
:100350004FF00001AFF30080BDE81C407047000083
:100360000FB41CB5074B06AA7B446946009005985C
:1003700000F055F90020694600F064F91CBC5DF8F6
:1003800014FB0000D902000070B50C460546012A96
:1003900005D02878800600D5EA69002302E0012311
:1003A00005E05B1C934202D2E05C0028F9D1A86909
:1003B000E618C01AA861286A184428622846AFF3D4
:1003C000008004E0D5E9012114F8010B9047B44204
:1003D000F8D32846AFF3008070BD2DE9F0474FF009
:1003E000000A89460446C0F820A02046E1688847F4
:1003F000002876D0252806D0D4E901219047206A2C
:10040000401C2062F1E7E168204600258847C4F8D7
:100410001CA006460027C4F818A02A2E09D0304692
:1004200002F025FB38B304EB8708303EC8F81860AB
:1004300019E059F8041B204604EB87029161E1683A
:100440008847012F064618D1E069002820DA25F0F8
:1004500020051DE0D8F8180000EB800006EB4000F6
:100460003038C8F818002046E1688847064602F090
:10047000FEFA0028EED1012F0AD02E2E08D12046F8
:10048000E16888477F1C0646022F45F02005C4DB43
:10049000A069002803DA404245F00105A061E807A1
:1004A00001D025F01005B6B1A6F14100192802D8F7
:1004B000203645F400654A463146204625604D46C3
:1004C000FFF79CFE58B1012806D0ED1D25F007006E
:1004D00000F1080989E704E005F1040985E73046E1
:1004E0008AE7206ABDE8F08710B5431C02E010F8E7
:1004F000011B71B18107FAD14FF0013202C88C1A89
:100500008C4314EAC211F9D0C01A0A0603D0C01EE7
:1005100010BDC01A10BD0A0401D0801E10BD090212
:10052000FCD0401E10BD4FF000020429C0F0128024
:1005300010F0030C00F01B80CCF1040CBCF1020F96
:1005400018BF00F8012BA8BF20F8022BA1EB0C016B
:1005500000F00DB85FEAC17C24BF00F8012B00F861
:10056000012B48BF00F8012B70474FF0000200B587
:10057000134694469646203922BFA0E80C50A0E8C6
:100580000C50B1F12001BFF4F7AF090728BFA0E874
:100590000C5048BF0CC05DF804EB890028BF40F840
:1005A000042B08BF704748BF20F8022B11F0804F82
:1005B00018BF00F8012B704710B5044610F0030F68
:1005C00008BF11F0030F40F015804FF0013E121FDD
:1005D000C0F20E8051F8043BA3EB0E0C2CEA030C86
:1005E0001CEACE1C08BF40F8043BF0D0A1F1040186
:1005F00002F10402521E08DB11F8013B002B00F847
:10060000013BF7D11146FFF78EFF204610BD704722
:100610007047704701694A1C02610878704700B54D
:100620008FB0CDE901310021059105497944CDE92B
:10063000031011466846FFF7D0FE0FB000BD000062
:10064000E5FFFFFF0A6802F8010B0A60704710B56A
:10065000436913B1AFF3008001E0FFF795FE01207D
:1006600010BD127800F124010A7000224A700122A4
:10067000EDE711684FF0FF32E9E7000000487047EE
:10068000B40500207546FFF7F9FFAE460500694640
:10069000534620F00700854618B020B5FFF7D6FD79
:1006A000BDE820404FF000064FF000074FF0000873
:1006B0004FF0000B21F00701AC46ACE8C009ACE8F4
:1006C000C009ACE8C009ACE8C0098D46704710B558
:1006D0000446AFF300802046BDE81040FFF7A2BDFE
:1006E00001491820ABBEFEE726000200704710B596
:1006F0000146806B026C12F0500F05D0026CD206DE
:1007000026D500F0FDF910BD016C41F400710164C3
:1007100001688A6812F0405F17D1027EAAB9CA6ADE
:1007200012F4700F02D08A6852050ED44A6822F083
:1007300020024A60016C21F480710164016CC904DB
:1007400003D4016C41F00101016400F0D7F910BD40
:10075000806BC26CBDE810400846104710B5806B36
:1007600040210164416C41F00401416400F0C8F98A
:1007700010BD10B5806B00F0C2F910BD464910B530
:100780004A6822F440324A604A6843681A434A6021
:1007900001684A6822F480724A6001684A68036905
:1007A00042EA03224A6001684A6822F040724A60C5
:1007B00001684A6883681A434A6001688A6822F4BB
:1007C00000628A6001688A68C3681A438A60816A25
:1007D0006FF07062D14201688A6822F070628A60AC
:1007E00001688A680CD0836A1A438A6001688A6843
:1007F00022F040528A6001688A68C36A1A4301E0A5
:1008000022F040528A6001688A6822F002028A60FF
:1008100001688A68037E42EA43028A6090F82010E9
:10082000002901684A680FD042F400624A600168FA
:100830004A6822F460424A6001684A68174C436A79
:1008400004EB43331A4301E022F400624A6001687A
:10085000CA6A22F47002CA620168CA6A838B104CA9
:1008600004EB03531A43CA6201688A6822F40072D7
:100870008A6001688A6890F8303042EA43228A60D0
:1008800001688A6822F480628A6001688A68406927
:1008900042EA8020886010BD0023014000E0FFFF95
:1008A0000000F0FFFEE70000014800F0C9BA0000B8
:1008B0006002002001681823CAB2103AB2FBF3F2BA
:1008C000054B6FF30901032A9B5CC36500D9091D21
:1008D0008165084670470000A22D000810B501464A
:1008E00000208B698A6A4FF0C07453B1B3F5005F82
:1008F00015D072B1012A0CD0022A0AD0032A09D1DC
:1009000004E01AB1012A06D0022A03D1C96AC9013A
:1009100000D5012010BDC96AA142FAD010BD002A3D
:10092000F7D0012AF2D0022AF3D0032AF3D010BD67
:1009300030B50468256825F4802525600468636067
:100940008368402B036803D099600068C26030BDA3
:100950009A600068C16030BD064A10B55368064908
:10096000064C0968B1FBF4F141435068C01A884253
:10097000FBD310BD001000E03000002040420F000B
:1009800007480168C9010AD4016841F0807101601B
:10099000044800214160016841F001010160704795
:1009A000FCED00E0001000E0704772B6FEE70000CA
:1009B00078B50024009490F83C20012A19D0012237
:1009C00080F83C200A6807230568092A13D9EE68D5
:1009D0000A3A02EB420293409E43EE600B788A682B
:1009E0000A3B03EB43039A400368DD682A43DA605D
:1009F00010E0022078BD2E6902EB420293409E4334
:100A00002E610B788A6803EB43039A4003681D69E3
:100A10002A431A614A681F23072A13D205686E6B9E
:100A2000521E02EB820293409E436E630B790A884A
:100A30005B1E92B203EB83039A4003685D6B2A430B
:100A40005A6327E005680D2A12D22E6BD21F02EBE3
:100A5000820293409E432E630B790A88DB1F92B279
:100A600003EB83039A4003681D6B2A431A6311E06A
:100A7000EE6A0D3A02EB820293409E43EE620B79DE
:100A80000A880D3B92B203EB83039A400368DD6A48
:100A90002A43DA62164B0568144A9D4206D10D6856
:100AA000122D03D1556845F48005556005689D42B7
:100AB00018D10B68102B01D0112B13D1536843F4BC
:100AC00000035360096810290CD10A490A4A0968D1
:100AD000B1FBF2F101EB8101490000E0491E0091F8
:100AE0000029FBD180F83C40002078BD0023014064
:100AF000002001403000002040420F007047704746
:100B0000704770B504004FF0000503D0206C00263C
:100B100010B107E0012070BD204600F01DF86664AA
:100B200084F83C60206CC00610D4206C20F48850FF
:100B300040F0020020642046FFF720FE6664206C2F
:100B400020F0020040F00100206400E0012584F85C
:100B50003C60284670BD000070B586B00646142182
:100B60006846FFF702FD2C493068884251D12B4876
:100B70000025016841F4807101600068274900F494
:100B8000807014390590086840F004000860086817
:100B900000F004000590086840F001000860086853
:100BA00000F001000590086840F002000860086845
:100BB000032400F0020005903F208DE831006946D3
:100BC000174800F0C1FAFF208DE83100694615484A
:100BD00000F0BAFA009469461348CDE9014500F0E7
:100BE000B3FA134C1148C4E900050015A560C4E927
:100BF0000350800060618000A0618011C4E9070596
:100C00002046656200F0ECF908B1FFF7CEFEB46350
:100C1000A66306B070BD00000020014044380240C9
:100C2000000802400000024000040240106402403C
:100C300060020020F8B5044600200E46009094F8AB
:100C40003C10012907D0012184F83C1021688B68F1
:100C5000DB0702D011E00220F8BD8B6843F00103EE
:100C60008B604049404B0968B1FBF3F101EB410156
:100C700000E0491E00910029FBD121688B68DB054B
:100C800003D58B6823F480738B6021688B68DB0746
:100C90005DD0236C40F20165AB4343F48073236461
:100CA0004968490505D5216C21F4005141F4805172
:100CB0002164216CC90404D5616C21F006016164D2
:100CC00000E0606484F83C00A16B2948274DC863AC
:100CD000A16B28480864A16B2748C86421686FF09D
:100CE000220008602068416841F08061416020680E
:100CF000816841F4807181602168134632464C312D
:100D0000A06B00F0D7F968681C49C006206806D0BF
:100D1000884224D1816811F0405F13D01FE08842DF
:100D2000F8D0174A904203D1D1F80423D206F1D06B
:100D3000144A904213D1D1F8041301F01F01102975
:100D4000E8D30CE0816841F08041816007E0206CCD
:100D500040F010002064606C40F0010060640020EE
:100D6000F8BD00003000002040420F000023014089
:100D7000EF060008730700085D0700080020014027
:100D800000210140002201402DE9F0410446876D19
:100D900000F0D8FA064694F835000025022806D05F
:100DA0008020606584F834500120BDE8F08120681F
:100DB000016821F0160101602068416921F080017D
:100DC0004161206C08B9A06C20B12068016821F055
:100DD000080101602068016821F0010101600CE058
:100DE00000F0B0FA801B052807D920206065032099
:100DF00084F8350084F83450D7E720680068C007CD
:100E0000EED194F85C103F208840B860012084F84F
:100E1000350084F834500020C7E790F835100229D7
:100E200003D08021416501207047052180F83510ED
:100E30000068016821F00101016000207047000096
:100E40002DE9F84304464FF00009CDF800906348BF
:100E50004FF41651A56D0068B0FBF1F72E6894F8B9
:100E60005C10082000FA01F131420FD021680A68B5
:100E700052070BD50A6822F004020A6094F85C104D
:100E80008840A860606D40F00100606594F85C10D7
:100E90004FF0010808FA01F0304208D02168496992
:100EA000090604D5A860606D40F00200606594F802
:100EB0005C1004208840304208D021680968890706
:100EC00004D5A860606D40F00400606594F85C1083
:100ED00010208840304218D021680968090714D5CD
:100EE000A86020680168490304D50068000308D59C
:100EF000A16C07E00168C90503D4016821F008016D
:100F00000160216C09B12046884794F85C102020CC
:100F10008840304231D021680968C9062DD5A860C3
:100F200094F8350005282068016806D0490347D5A4
:100F3000006800031DD4616C1CE021F01601016003
:100F40002068416921F080014161206C08B9A06CE2
:100F500020B12068016821F00801016094F85C105C
:100F60003F208840A86084F8358084F83490216D53
:100F70001FE0E16B09B120468847606D00282BD047
:100F8000606DC00714D0052084F835002068016822
:100F900021F0010101600098401C0090B84203D884
:100FA00020680068C007F6D184F8358084F8349052
:100FB000E16C002910D001B02046BDE8F04308479D
:100FC0000168C905D5D4016821F01001016084F8D9
:100FD000358084F83490CCE7BDE8F88330000020F9
:100FE0002DE9F041044600F0ADF906465CB102205F
:100FF00084F83500002584F834502068016821F019
:10100000010101600DE00120BDE8F08100F09AF9D6
:10101000801B052805D920206065032084F8350051
:10102000F2E720680068C007F0D122681168204804
:101030000140D4E901031843D4E90336334318438C
:1010400063691843A3691843E3691843236A184383
:101050000843616A042903D1D4E90B1319430843F7
:10106000106020684069666A20F0070130460E4330
:10107000012704280CD1A06A0643E06A40B120464B
:10108000FFF72CFC20B14020606584F83570BAE78A
:10109000206846612046FFF70DFC94F85C203F2154
:1010A00091408160656584F835700020ACE70000F0
:1010B0003F8010F02DE9F0410446866D90F8340031
:1010C000002501280DD0012084F8340094F83570F3
:1010D0000020012F07D084F8340002252846BDE8FF
:1010E000F0810220FBE7022784F835706065204616
:1010F000FFF71EFC94F85C103F208840B060206829
:10110000016841F016010160206C20B1206801687F
:1011100041F0080101602068016841F001010160AF
:10112000DCE7000070B5044600F00CF90546601CD1
:1011300002D004480078044400F004F9401BA042A7
:10114000FAD370BD240000202DE9F84FDFF8BCA1D0
:10115000002201250AF1040B03264FF00F090BF1C1
:10116000040E00BF0B6805FA02F42340A34270D1BD
:101170000F7907F00307012F01D0022F16D18768DE
:101180004FEA420806FA08FC27EA0C07D1F80CC01F
:101190000CFA08FC4CEA070CC0F808C04768A743E3
:1011A0000C79C4F3001494403C4344600C79E4434C
:1011B000A4070AD0C4684FEA420C06FA0CF7BC43F5
:1011C0008F6807FA0CF72743C7600C7904F0030413
:1011D000022C12D1D40800EB840CDCF82040570715
:1011E000FF0E09FA07F824EA0804D1F8108008FA7B
:1011F00007F848EA0408CCF8208004684FEA420C5B
:1012000006FA0CF7BC430F7907F0030707FA0CF74F
:10121000274307604C6814F4403F70D03C4C27686B
:1012200047F480472760246822F0030704F48044D1
:101230000094384C07EB040CDCF8084897074FEA99
:10124000177809FA08F7BC43334FB84202D1002798
:1012500024E054E0314FB84201D101271EE0304F65
:10126000B84201D1022719E02E4FB84201D103271D
:1012700014E02D4FB84201D104270FE02B4FB842A4
:1012800001D105270AE02A4FB84201D1062705E01F
:10129000284FB84201D1072700E0082707FA08F7CE
:1012A0002743CCF80878DAF800405746D1F804C054
:1012B0009C435FEACC3C00D51C433C60DBF800401B
:1012C0005F46D1F804C09C435FEA8C3C00D51C43C8
:1012D0003C60DEF800407746D1F804C09C435FEAEA
:1012E000CC2C00D51C433C60084F0C373C68D1F82F
:1012F00004C09C435FEA8C2C00D51C433C60521C0C
:10130000102AFFF42FAFBDE8F88F0000003C014029
:101310004438024000300140000002400004024016
:1013200000080240000C024000100240001402407D
:1013300000180240001C02400AB181617047090494
:10134000FBE700000148806870470000240000208F
:1013500070B5040025D094F83D00002520B984F82C
:101360003C50204600F0B8F8242084F83D00206866
:10137000016821F0010101602068016841F4004129
:1013800001602068016821F40041016000F00EFA5C
:101390004D4A6168914201D84C4900E04C4988426D
:1013A00001D2012070BD4B492368B0FBF1F15E68AA
:1013B00026F03F060E435E606368934206D94FF401
:1013C000967359434FF47A73B1FBF3F12368491CC8
:1013D0001E6A26F03F06314319626168914210D8B7
:1013E0004900401EB0FBF1F2521CC2F30B02042A6A
:1013F00001D2042022E0B0FBF1F0401CC0F30B004E
:101400001CE0A268F2B301EBC10303EB0116431E1B
:10141000B3FBF6F35B1C43F480431B0549D092B346
:1014200001EBC10202EB0111401EB0FBF1F0401CC8
:10143000C0F30B0040F4804040F400402168CA69CA
:101440004CF6FF739A431043C861D4E90710014377
:101450002068026822F0C00211430160D4E9030150
:1014600001432068826848F2FF339A431143816048
:10147000D4E9050108432168CA6822F0FF0210433D
:10148000C86001E00EE016E02068016841F001014B
:1014900001602564202084F83D00256384F83E50D7
:1014A000002070BD01EB4106431EB3FBF6F35B1C4D
:1014B000B3E70120C2E701EB4101401EB0FBF1F0B0
:1014C000401CC0F30B00B7E7A086010080841E001B
:1014D00000093D0040420F0010B586B004461421BB
:1014E0006846FFF742F814492068884221D1134822
:1014F0000021026842F002020260006800F002006F
:1015000005904FF4406000901220CDE901010320C6
:1015100003900420049069460948FFF715FE074828
:101520001030016841F480010160006800F480001F
:10153000059006B010BD0000005800403038024051
:1015400000040240024881680278114481607047BB
:10155000240000200B4810B5016841F400710160BF
:10156000016841F480610160016841F480710160AB
:10157000032000F06FF80F2000F006F800F024F8C8
:10158000002010BD003C024070B50D4D04464FF4E4
:101590007A712878B1FBF0F00A490968B1FBF0F0E4
:1015A00000F00CFB48B9102C07D200222146501E37
:1015B00000F030F800206C6070BD012070BD0000AC
:1015C00024000020300000200A4808B5016841F4DA
:1015D00080410160006800F4804000900548001FD1
:1015E000016841F080510160006800F08050009077
:1015F00008BD000044380240002809DB00F01F024B
:10160000012191404009800000F1E020C0F8001164
:1016100070470000F0B40E4B1B680C46C3F3022366
:10162000C3F10705042D00D90425191D072901D28E
:10163000002300E0DB1E012606FA05F1491E2140C9
:1016400099409E40761E16403143F0BC01F0FFB930
:101650000CED00E0064900F0070208684FF6FF03B2
:10166000184040EA0220034A104308607047000017
:101670000CED00E00000FA052DE9F0470E460500EC
:1016800065D0DFF81481D8F80000F7B200F0070049
:10169000B04207D288F80070D8F8000000F00700C8
:1016A000B04254D128683D4C810712D5400703D57C
:1016B000206840F4E05020602878000703D52068B7
:1016C00040F4604020602068A96820F0F0000843E2
:1016D00020602878C0072DD0304968680839012873
:1016E00012D0022813D0032811D0096889070029D5
:1016F0002DDA216821F0030101432160FFF722FE6A
:10170000814641F2883A0EE009688903EFE70968EB
:101710008901ECE7FFF716FEA0EB0901514502D95C
:101720000320BDE8F0872068696800F00C00B0EB8A
:10173000810FEFD1D8F80010404601F00701B14207
:1017400007D90770006800F00700B04201D00120FF
:10175000E7E72878400705D52068E96820F4E050DD
:10176000084320602878000706D52068296920F4FE
:10177000604040EAC100206000F038F82168084A63
:10178000C1F30311515CC84006490860064800686F
:10179000FFF7FAFE0020C4E7003C02400838024090
:1017A000AA2D000830000020280000200448054928
:1017B00000680968044AC1F38221515CC84070473F
:1017C0003000002008380240BA2D000804480549BE
:1017D00000680968044AC1F34231515CC84070474F
:1017E0003000002008380240BA2D0008154810B516
:1017F000006810F00C02144813D01449042A0FD0CA
:10180000082A0ED10F4C241F2268236802F03F02E1
:101810005B0207D52068C0F38810A0FB010106E039
:10182000084610BD2168C1F38811A1FB0001002307
:10183000FEF71EFD2168C1F30141491C4900B0FBC0
:10184000F1F010BD083802400024F40040787D011A
:101850002DE9F84F04006ED02078DFF84C93C007D4
:10186000A9F104054AD009F104000168C1F381011E
:10187000012908D00068C0F3810002280AD1D9F8F4
:101880000000400206D52868800337D5606800282C
:10189000E1D033E06068B0F5803F10D0B0F5A02F04
:1018A000286810D020F480302860286820F4802038
:1018B00028606068A8B1FFF745FD06460DE028687E
:1018C00040F48030F4E740F480202860F7E700BF60
:1018D000FFF738FD801B642873D828688003F7D58C
:1018E0000CE0FFF72FFD064605E000BFFFF72AFDDD
:1018F000801B6428F0D828688003F7D42078DFF8AC
:10190000AC8280074FF0000A3ED5A748001D016851
:1019100011F00C0F08D00068C0F3810002280BD131
:10192000D9F80000400207D42868800716D5E0687F
:10193000012800D112E033E1E068B8B10120C8F815
:101940000000FFF7FFFC064605E000BFFFF7FAFCCA
:10195000801B0228C0D828688007F7D5286821692D
:1019600020F0F80040EAC10028600DE0C8F800A0AF
:10197000FFF7E8FC064604E0FFF7E4FC801B0228C2
:101980001FD828688007F7D42078000722D5864F13
:1019900087486169703771B101210160FFF7D2FC9E
:1019A000064604E0FFF7CEFC801B022809D8386801
:1019B0008007F7D50EE0C0F800A0FFF7C3FC06468D
:1019C00005E082E0FFF7BEFC801B02287DD8386866
:1019D0008007F7D42078400768D5DFF8CCB100271E
:1019E0000BF13C0BDBF80000C0000BD4DBF800105F
:1019F00041F08051CBF80010DBF80000012700F027
:101A0000805000906B4E3068C00510D4306840F4B0
:101A100080703060FFF796FC009005E0FFF792FCC5
:101A20000099401A022850D83068C005F6D55E4E9D
:101A3000A0686C3601280FD00528306810D020F03F
:101A400001003060306820F004003060A068B8B158
:101A5000FFF778FC00900FE0306840F00100F4E7F9
:101A600040F004003060F7E7FFF76CFC0099411A82
:101A700041F28830814266D830688007F4D50EE0A4
:101A8000FFF760FC009007E0FFF75CFC0099411A4B
:101A900041F28830814256D830688007F4D42FB1A3
:101AA000DBF8001021F08051CBF80010A069C8B31A
:101AB0003D49091D0968C1F3810102294AD0022864
:101AC000504607D0C8F8600000E03CE0FFF73AFC61
:101AD00004463BE04746C8F86000FFF733FC064683
:101AE00005E000BFFFF72EFC801B02282BD82868DA
:101AF0008001F7D4D4E907010843A16A2E4A4908B6
:101B000002EB0141626A41EA8211084394F82C1009
:101B100040EA0161C9F8001001203866FFF712FCA5
:101B2000044606E03EE000BFFFF70CFC001B022865
:101B300009D828688001F7D534E000BFFFF702FC20
:101B4000001B022802D90320BDE8F88F2868800115
:101B5000F4D427E00128F7D0D9F80000E26900F4B6
:101B6000800191421CD1226A00F03F01914217D1BD
:101B700047F6C071626A0140B1EB821F10D1A26AC0
:101B80004FF0FF3300F4403103EB5202B1EB024F50
:101B900006D194F82C1000F07060B0EB016F01D00A
:101BA0000120D1E70020CFE704380240000047427F
:101BB000800E4742007000400000FFFF10B5401E3D
:101BC000B0F1807F01D3012010BD4FF0E0246061AF
:101BD0000F21601700F03BFF0020A061072020616B
:101BE000002010BD70477047F8B5016804460868CA
:101BF000CA684B6910F00F0F4FF0000559D003F081
:101C0000010602F49077374365D0C10705D0D105AE
:101C100003D5216C41F001012164410705D5D907A5
:101C200003D0216C41F002012164810705D5D90759
:101C300003D0216C41F004012164010707D502F0B3
:101C40002001314303D0216C41F008012164216C53
:101C500000293AD0800604D5900602D5204600F02F
:101C6000A0FD20684069216CC0F38010090700D4F2
:101C700060B3204600F06EFD20684069400621D523
:101C80002068143050E8001F21F0400140E80012A5
:101C9000002AF5D1A06BA8B16C490165A06BFFF7D4
:101CA000BCF8002811D0A06B016D01B0BDE8F04078
:101CB000084783060FD593060DD52046BDE8F840AA
:101CC00000F06FBD2046FFF78EFFF8BD2046FFF7FE
:101CD0008AFF2564F8BD266B2023012E79D1C60624
:101CE00077D5D60675D508684868009048694006DB
:101CF00040D5A16B086840680004000CEAD0A28DB2
:101D00008242E7D9E085C869B0F5807F2DD0206890
:101D10000C3050E8001F21F4807140E80012002AC6
:101D2000F5D12068143050E8001F21F0010140E88F
:101D30000012002AF5D12068143050E8001F21F06D
:101D4000400140E80012002AF5D184F83E302563B6
:101D500020680C3050E8001F21F0100140E800120C
:101D6000002AF5D1A06BFFF70FF8A08DE18D401A86
:101D700081B229E0A08DE18D401A81B2E08D00286A
:101D8000A8D00029A6D020680C3050E8002F22F4FB
:101D9000907240E80026002EF5D12068143050E8FB
:101DA000002F22F0010240E80026002EF5D184F831
:101DB0003E30256320680C3050E8002F22F01002DE
:101DC00040E80023002BF5D12046FFF70BFFF8BDBC
:101DD000FFE705062BD5150629D594F83D002128E7
:101DE000F5D1A068B0F5805F01D12069B0B1206A5B
:101DF000411C2162216800784860E08C401E00048C
:101E0000000CE084E3D12068C16821F08001C1604A
:101E10002068C16841F04001C160D8E7206A0088AD
:101E2000C0F308004860206A801C2062E5E7400695
:101E3000CDD55006CBD5CA68204622F04002CA60F4
:101E400084F83D3000F031F9C1E700004527000873
:101E500070B5040004D094F83D00002510B106E0F0
:101E6000012070BD84F83C50204600F023F8242067
:101E700084F83D002068C16821F40051C16020460B
:101E800000F0F0FC2068016921F4904101612068B4
:101E9000416921F02A0141612068C16841F4005183
:101EA000C1602564202084F83D0084F83E000020B5
:101EB00070BD000070B586B0044614216846FEF778
:101EC00054FB2A48284E2568002428491438022249
:101ED0000323B54220D10D6845F010050D60096857
:101EE00001F010010591016841F0010101600068F5
:101EF000694600F00100059058028DE815000720A2
:101F0000CDE903301A48FFF71FF9002211462520BA
:101F1000FFF780FB252023E0164EB54222D10D6845
:101F200045F020050D60096801F020010591016868
:101F300041F0040101600068694600F0040005906A
:101F40004FF4E0708DE815000820CDE903300A4811
:101F5000FFF7FAF8002211464720FFF75BFB472006
:101F6000FFF74AFB06B070BD001001404438024044
:101F700000000240001401400008024090F83E308A
:101F8000202B0ED159B152B190F83C30012B08D022
:101F9000012380F83C300023036300F0E9BC0120FA
:101FA000704702207047000070B5104E31463078FF
:101FB0004C883B2804D00E490855641C748070BDC1
:101FC000002505E00A4832213230FEF7ACFA6D1CDC
:101FD000A542F7DB0649224601F13200FEF7ECFA92
:101FE0000449012008700020708070BD00000020AE
:101FF000FC010020200000202DE9F843044690F861
:102000003D001F4616460D4620284CD1C5B1BEB135
:1020100094F83C00012846D0012084F83C004FF0A1
:102020000008C4F84080212084F83D00FFF78AF9B9
:10203000A6848146E684A068B0F5805F03D004E002
:102040000120BDE8F883206928B12E465FF0000525
:1020500084F83C800EE00026FAE78021204600F05C
:10206000A2FCA0B9AEB116F8010B21684860E08C63
:10207000401EE084E08C4B464FF0000200970028A1
:10208000EBD14FF04001204600F08DFC30B1032031
:10209000D7E735F8020BC0F30800E6E7202084F804
:1020A0003D000020CDE70220CBE77047FEE710B5EA
:1020B000012000F007F8BDE8104040F6B830FEF708
:1020C0004BBC000010B5044600224FF48061064866
:1020D000FFF732F9200900F009F804F00F00BDE81D
:1020E000104000F003B80000000C024070B5044638
:1020F0001D4D00074FF4004101D5012200E00022F0
:102100002846FFF719F960074FF4804101D50122F5
:1021100000E000222846FFF70FF9A0074FF4005116
:1021200001D5012200E000222846FFF705F9E0076B
:102130004FF4805101D0012200E000222846FFF731
:10214000FBF80122D40221462846FFF7F5F81420B7
:10215000FEF702FC002221462846FFF7EDF8BDE815
:1021600070401420FEF7F8BB000C024008B509A22D
:1021700012680092084AD3788B4200D8002150712F
:1021800091711DF801100844C0B240F08000FFF7C3
:1021900099FF08BD004014540400002010B5044607
:1021A000012291020548FFF7C7F82009FFF79EFFBB
:1021B00004F00F00BDE81040FFF798BF000C02408C
:1021C0000449087840F00400087040F00800FFF768
:1021D00079BF00000400002070B50D460646FEF7EA
:1021E000CFFB00F041F84AF6C870FEF7B5FB1D4C76
:1021F0000020012DE57026716071A071607001D919
:10220000082060700320FFF771FF41F29415284603
:10221000FEF7A2FB0320FFF769FF2846FEF79CFBB1
:102220000320FFF763FF2846FEF796FB0220FFF727
:102230005DFF6420FEF790FB607840F02000FFF720
:1022400041FF04202070FFF7BBFFFFF730FF0220A3
:10225000A0700620FFF736FF2846BDE87040FEF765
:102260007BBB00000400002030B585B01421684617
:10227000FEF77BF94FF44C40009001250024CDE996
:102280000154694617480394FEF75EFF4FF440502F
:102290000090CDE90154694613480394FEF754FFBA
:1022A000124C0022A9022046FFF746F80022E11452
:1022B0002046FFF741F80022A1142046FFF73CF822
:1022C000002269032046FFF737F80022A9032046C1
:1022D000FFF732F80022E9032046FFF72DF805B09A
:1022E00030BD00000004024000080240000C024023
:1022F00070B51546FFF73AFF134C16E06079217967
:10230000884207D300206071A179491CC9B2A1712C
:10231000FFF72CFF28780A280BD00D280FD0FFF7E5
:102320003DFF6079401C60716D1C28780028E5D164
:1023300070BDA079401CC1B2A171607901E0A179A2
:102340000020FFF713FFEFE7040000202DE9FF5FF7
:102350000025674800950195029564490395016041
:1023600001244FF440310461C0E90115047680F87E
:1023700020506049C0E90A151021C560C16180F88C
:1023800030404461FEF7BDFB08B172B6FEE74FF086
:102390000A080720CDF80080CDE90140694654487D
:1023A000FEF706FB08B172B6FEE70B200226CDE968
:1023B000000669464E48FEF7FBFA08B172B6FEE722
:1023C0000C274FF00309CDE9007969464848FEF72C
:1023D000EFFA08B172B6FEE74FF00D0A4FF0040BAA
:1023E00069464348CDE900ABFEF7E2FA08B172B6A0
:1023F000FEE70520CDE9005069463D48FEF7D8FAD2
:1024000008B172B6FEE70620CDE9004069463848BB
:10241000FEF7CEFA08B172B6FEE70724CDE90064F4
:1024200069463348FEF7C4FA08B172B6FEE70826DB
:10243000CDE9009669462E48FEF7BAFA08B172B6A1
:10244000FEE74FF00909CDE900B969462848FEF7D3
:10245000AFFA08B172B6FEE70520CDE9000869467B
:102460002348FEF7A5FA08B172B6FEE706200090F1
:102470000B20019069461E48FEF79AFA08B172B621
:10248000FEE7CDE9004769461948FEF791FA08B121
:1024900072B6FEE70E24CDE9004A69461448FEF7FD
:1024A00087FA08B172B6FEE70F27CDE900746946D6
:1024B0000F48FEF77DFA08B172B6FEE70096CDE947
:1024C000017569460A48FEF773FA08B172B6FEE76D
:1024D0001020CDE9009069460548FEF769FA00280A
:1024E00001D072B6FEE7BDE8FF9F0000002001406A
:1024F000340000200100000F2DE9F04F87B01421B7
:102500006846FEF732F859480024016841F010018E
:102510000160016801F010010591016841F00401BA
:102520000160016801F004010591016841F080013A
:102530000160016801F080010591016841F001012D
:102540000160016801F001010591016841F002019B
:102550000160016801F002010591016841F0080184
:1025600001600068DFF808A100F008004FF6BF75B1
:102570000590002229465046FEF7DEFEDFF8F4B053
:102580004FF40C46002231465846FEF7D5FE002295
:1025900001213948FEF7D0FE4FF2D43700223946E8
:1025A0003648FEF7C9FE4FF47F48002241463448C2
:1025B000FEF7C2FE4FF40149002249463148FEF7BA
:1025C000BBFE00950125CDE90154694650460394B0
:1025D000FEF7BAFD4020CDE900046946504602945A
:1025E000FEF7B2FD0096CDE90154694658460394C2
:1025F000FEF7AAFD0095CDE9015469461E480394F3
:10260000FEF7A2FD0097CDE9015469461B480394EB
:10261000FEF79AFDCDF80080CDE9015469461848CF
:102620000394FEF791FD4FF490508DE83100694618
:102630005846FEF789FDCDF80090CDE90154694672
:1026400010480394FEF780FDFE208DE831006946B6
:102650000B48FEF779FD28208DE8310069460748D0
:10266000FEF772FD07B0BDE8F08F00003038024081
:102670000010024000080240001C0240000402401A
:10268000000C024000000240FEE7FEE77047704782
:1026900010B5FEF757FFBDE8104000F0EFB900009D
:1026A00030B593B030216846FDF75FFF14210CA8C8
:1026B000FDF75BFF1D480025016841F08051016076
:1026C000006800F0805011901948016841F4804181
:1026D00001600068022400F4804011900120039002
:1026E00010200490009406940820CDE90750A820FB
:1026F000CDE9090404200B906846FFF7A9F808B15A
:1027000072B6FEE70CA90F2081E831004FF4A0500B
:102710000F904FF48050109005210CA8FEF7ACFFED
:10272000002801D072B6FEE713B030BD4038024039
:10273000007000400248016841F470010160704778
:1027400088ED00E010B5806B0021C185C184FFF7E2
:102750004AFA10BD01680C3151E8002F22F4907242
:1027600041E80023002BF5D10168143151E8002F16
:1027700022F0010241E80023002BF5D1016B012971
:1027800009D101680C3151E8002F22F0100241E814
:102790000023002BF5D1202180F83E100021016399
:1027A000704708B590F83E10222901D0022008BDDC
:1027B00082684FF480539A4201D1016921B1816A44
:1027C0009A421BD04AB10AE00268816A5268C2F399
:1027D00008020A80816A891C08E0026972B10268F5
:1027E000526802F07F020A70816A491C8162C18DC1
:1027F000491E0904090CC18503D019E0026852681A
:10280000F1E70168CA6822F02002CA600168CA685C
:1028100022F48072CA6001684A6922F001024A61AA
:10282000202180F83E10016B012903D0FFF7BCFB8B
:10283000002008BD0021016301680C3151E8002F20
:1028400022F0100241E80023002BF5D101680A684C
:10285000D20602D50A6849680091818DFFF7C2F956
:10286000E6E7000070B5044600680169E26821F4FB
:102870004051114301612169A068E269084361691F
:10288000114308432168CA6849F20C639A43024322
:10289000CA6020684169A26921F440711143416115
:1028A00031492068884202D03049884202D1FEF77F
:1028B0008DFF01E0FEF77AFFE2690023192164250C
:1028C0003226B2F5004F626828D0A0FB0101930FB9
:1028D0009200FDF7CDFC0146B0FBF5F06FF0180259
:1028E000504301EB800006EB0010B0FBF5F000F068
:1028F000F002B1FBF5F002EB0012B1FBF5F06FF066
:102900001803584301EB800006EB0010B0FBF5F014
:1029100000F00F0021681044886070BDA0FB010129
:1029200092185B41FDF7A4FC0146B0FBF5F00201F3
:10293000B1FBF5F06FF01803584301EB800006EB94
:10294000C000B0FBF5F000F0F80002EB4002B1FB74
:10295000F5F0584301EB800006EBC000B0FBF5F04A
:1029600000F00700D6E7000000100140001401400D
:1029700081628285C28500210164222280F83E2086
:1029800080F83C100168CA6842F48072CA6001682D
:102990004A6942F001024A610068C16841F02001C1
:1029A000C160002070472DE9F041984617460E4659
:1029B0000446069D27E0681C25D02DB1FEF7C2FC19
:1029C000A0EB0800A8421ED920680C3050E8001F78
:1029D00021F4D07140E80012002AF5D120681430AB
:1029E00050E8001F21F0010140E80012002AF5D153
:1029F000202084F83D0084F83E00002084F83C004C
:102A00000320BDE8F0812068006836EA000004D0A9
:102A10000020B842CFD00020F3E70120F9E7000002
:102A20000148FFF7E1B80000D000002010B50548CC
:102A3000FFF7DAF8BDE81040012203490148FFF72B
:102A40009DBA00001401002000000020FEE70907E5
:102A5000090E002804DB00F1E02080F80014704724
:102A600000F00F0000F1E02080F8141D70473038AE
:102A70000A2801D2012070470020704730B5154C5C
:102A8000154B9FED162ADFED162A164D002200BFCA
:102A900054F8220000EE100A1046B8EE400A00F08A
:102AA00023F883ED040AD3ED010A05EB8200521CE2
:102AB00060EE800A102A80EE820A83ED030A93ED0D
:102AC000001AC0EE010A20EEA20A80ED000ADFDB48
:102AD00030BD0000BC0100200C00002000F07F454C
:102AE00000007A44640300200A49B0EE401A01EB6A
:102AF00080009FED070AD0ED001ADFED040A21EEF9
:102B0000800A00EE810A80ED000A7047C520303E41
:102B1000CFF7533F2403002008B5FEF71BFDFFF756
:102B2000BFFDFFF7E9FC51484F49002401605049BF
:102B3000C0E901144FF48041C0E90341446184615C
:102B4000C4610462FEF704FC08B172B6FEE74748B0
:102B5000484954304FF4E1360160C0E901640C2764
:102B6000C460C0E904478461C461FFF771F908B12A
:102B700072B6FEE73D4D404898352860C5E90164CE
:102B8000EC60C5E90447AC612846EC61FFF760F9E9
:102B900008B172B6FEE73948016841F4800101606E
:102BA0000068002200F48000009011463820FEF7F3
:102BB00031FD3820FEF720FDFFF7C8FB3049102219
:102BC000A1F5C470FEF736F82868C16841F020010D
:102BD000C16002212820FFF7FFFA00210846FFF715
:102BE000C5FA002127A20846FFF782FB2AA201218D
:102BF0000020FFF77DFB4FF47A742046FEF792FA2F
:102C0000FFF755FA294D66101D4A29A172322A484C
:102C1000FDF7A6FB2848FDF767FC82B21348642342
:102C200025499830FFF7E8F91548244B244A25A197
:102C30006438FDF795FB12486438FDF755FC1049E0
:102C400082B264396423A1F14400FFF7D5F92878F2
:102C500010B100F049F802E03046FEF763FA204672
:102C6000FEF760FAD0E70000005800407C0000202A
:102C7000A0860100001001400014014030380240DD
:102C8000BC0100203D3D3D3D3E204D5554414E543C
:102C9000203C3D3D3D3D00003D3D3E2046495245E6
:102CA00020414C41524D203C3D3D00002000002081
:102CB00025730D0A0000000024040020EC0400200D
:102CC00088040020446174612057616B7475203A58
:102CD000202573207C2044617461204631203A20F5
:102CE00025730D0A000000002DE9F05F0026274D36
:102CF000DFF89C90B0466E70AE7034464FF0010B1A
:102D000009F5967A19F804707C2F04D0012E04D0AE
:102D1000022E15D02CE0761C2CE0687840BB1C48B5
:102D200064216430FDF7FFFB194A002064325146EC
:102D30000B5C1354401C6428FAD385F801B017E0EB
:102D4000A878A8B912486421C830FDF7ECFB201F11
:102D5000C1B20F4A0020C8324FEA0A0C1CF80130F9
:102D60001354491C401CC9B26428F7D385F802B03B
:102D70000AF80470641C642CC4D364210548FDF770
:102D8000D2FB85F80080BDE8F09F00002000002005
:102D900024040020500500204FF04070E1EE100A9E
:102DA0007047000610160006101600000000000014
:102DB00000000102030406070809000000000102E8
:102DC00003040000E42D000800000020340000008F
:102DD000C4010008182E000834000020E40B000095
:102DE000E0010008000000000000000000000000FA
:102DF00033335340333353402C01000000000000B4
:102E000000000000000000000100000010000000B1
:082E1000000000000024F400A2
:040000050800018965
:00000001FF
