:020000040800F2
:10000000201100203902000843270008D9200008E9
:1000100041270008CD0900085D2C00080000000001
:10002000000000000000000000000000472700085A
:10003000110B0008000000004527000849270008B0
:10004000530200085302000853020008530200083C
:10005000530200085302000853020008530200082C
:10006000530200085302000853020008530200081C
:10007000530200085302000853020008530200080C
:1000800053020008530200085302000853020008FC
:1000900053020008530200085302000853020008EC
:1000A00053020008530200085302000853020008DC
:1000B00053020008530200085302000853020008CC
:1000C00053020008530200085302000853020008BC
:1000D00053020008452C0008530200085302000890
:1000E000530200085302000853020008530200089C
:1000F000530200085302000853020008530200088C
:10010000530200085302000853020008530200087B
:10011000530200085302000853020008530200086B
:10012000D1090008DD090008530200085302000845
:10013000530200085302000853020008530200084B
:10014000530200085302000853020008530200083B
:10015000E90900085302000853020008512C000866
:10016000530200085302000853020008530200081B
:100170005302000853020008530200080000000068
:10018000530200085302000800F002F800F044F89F
:100190000AA090E8000C82448344AAF10107DA45E2
:1001A00001D100F039F8AFF2090EBAE80F0013F0F0
:1001B000010F18BFFB1A43F001031847FC70000041
:1001C0001C710000103A24BF78C878C1FAD85207D1
:1001D00024BF30C830C144BF04680C6070470000C1
:1001E0000023002400250026103A28BF78C1FBD840
:1001F000520728BF30C148BF0B607047642900F028
:100200002581732900F0C982002070471FB507F0CF
:1002100038F81FBD10B510BD00F0C3FA1146FFF746
:10022000F5FF03F0B3FA00F0E1FA03B4FFF7F2FFD1
:1002300003BC00F0E9FA000009488047094800477C
:10024000FEE7FEE7FEE7FEE7FEE7FEE7FEE7FEE786
:10025000FEE7FEE704480549054A064B70470000E3
:100260000128000889010008200B0020201100202F
:10027000200D0020200D002053EA020C00F06980C0
:100280002DE9F04B4FF00006002B1FBFB3FA83F5AA
:1002900003FA05F424FA05F65E4012BF1643B2FADB
:1002A00082F502FA05F4C5F120051EBF22FA05FC0D
:1002B00044EA0C04203556EA044C4FEA144418BFB3
:1002C000641C4FF000084FF00009904271EB030CE2
:1002D00039D3002919BFB1FA81F701FA07F6B0FA4C
:1002E00080F700FA07F6C7F120071EBF20FA07FCC7
:1002F00046EA0C062037B6FBF4FCA7EB0507103FD7
:1003000007F01F0BCBF120060CFA0BFB2CFA06F6BC
:1003100044BFB3460026202FA4BF5E464FF0000B1B
:100320005BEA060C08BF4FF0010B19EB0B09ABFBA6
:10033000027C48EB0608C01B06FB02CC0BFB03CC7F
:1003400071EB0C01C1E70B46024641464846BDE849
:10035000F08B13B54FF000004FF00001AFF30080B9
:10036000BDE81C40704700000FB41CB5074B06AA3F
:100370007B4469460090059800F0E5F90020694645
:1003800000F0F4F91CBC5DF814FB0000F903000058
:100390002DE9F0410E460446002020622046E16827
:1003A000884730B3252805D0D4E901219047206A39
:1003B000401CF2E7E168204600278847050018D076
:1003C000A5F14100192802D820354FF400673246C4
:1003D000294620462760FFF711FF40B1012804D0CD
:1003E000F61D26F007060836D8E7361DD6E728465C
:1003F000DAE7206ABDE8F08170B50C460546012AAF
:1004000005D02878800600D5EA69002302E00123A0
:1004100005E05B1C934202D2E05C0028F9D1A86998
:10042000E618C01AA861286A184428622846AFF363
:10043000008004E0D5E9012114F8010B9047B44293
:10044000F8D32846AFF3008070BD00002DE9F041DD
:100450000646002410687529314616A510D0AFF362
:100460000080002802DA404213A507E031688A07BD
:1004700001D512A502E0490704D511A5012401E028
:10048000AFF3008000210A2206F1240709E0B0FB47
:10049000F2FCB0FBF2F302FB1C003030785418463B
:1004A000491C0028F3D123462A463046BDE8F041D6
:1004B00000F0EAB8000000002D0000002B00000052
:1004C0002000000010B5431C02E010F8011B71B1C0
:1004D0008107FAD14FF0013202C88C1A8C4314EA1A
:1004E000C211F9D0C01A0A0603D0C01E10BDC01A2E
:1004F00010BD0A0401D0801E10BD0902FCD0401EB0
:1005000010BD032A40F2308010F0030C00F015807B
:1005100011F8013BBCF1020F624498BF11F801CB06
:1005200000F8013B38BF11F8013BA2F1040298BF6B
:1005300000F801CB38BF00F8013B11F0030300F0D5
:100540002580083AC0F0088051F8043B083A51F879
:1005500004CBA0E80810F5E7121D5CBF51F8043B7E
:1005600040F8043BAFF30080D20724BF11F8013BF1
:1005700011F801CB48BF11F8012B24BF00F8013B53
:1005800000F801CB48BF00F8012B704710B5203AA6
:10059000C0F00B80B1E81850203AA0E81850B1E83C
:1005A0001850A0E81850BFF4F5AF5FEA027C24BFF2
:1005B000B1E81850A0E8185044BF18C918C0BDE8E9
:1005C00010405FEA827C24BF51F8043B40F8043BB2
:1005D00008BF7047D20728BF31F8023B48BF11F867
:1005E000012B28BF20F8023B48BF00F8012B7047C1
:1005F0004FF000020429C0F0128010F0030C00F04C
:100600001B80CCF1040CBCF1020F18BF00F8012BC9
:10061000A8BF20F8022BA1EB0C0100F00DB85FEA97
:10062000C17C24BF00F8012B00F8012B48BF00F863
:10063000012B70474FF0000200B5134694469646D2
:10064000203922BFA0E80C50A0E80C50B1F12001E5
:10065000BFF4F7AF090728BFA0E80C5048BF0CC093
:100660005DF804EB890028BF40F8042B08BF7047F1
:1006700048BF20F8022B11F0804F18BF00F8012B63
:1006800070477047704770472DE9F0470D4699460F
:100690009246044600F124080168880604D5E06902
:1006A00021F01001216000E00120A84201DD471B7C
:1006B00000E00027A1697A1902EB0900081AA0617D
:1006C0002078C00602D42046AFF30080002608E060
:1006D000D4E901211AF806009047206A401C761CD4
:1006E00020624E45F4DB2078C0060AD52046AFF3E1
:1006F000008006E0D4E9012130209047206A401CA8
:100700002062381EA7F10107F4DC07E0D4E90121DB
:1007100018F805009047206A401C2062281EA5F1A9
:100720000105F3DC2046AFF300802078000602D5F7
:100730000220BDE8F0870120FBE7000001694A1CA8
:1007400002610878704700B58FB0CDE90131002112
:10075000059105497944CDE9031011466846FFF734
:1007600017FE0FB000BD0000E5FFFFFF0A6802F8AA
:10077000010B0A60704710B5436913B1AFF30080F5
:1007800001E0FFF739FE012010BD127800F12401CD
:100790000A7000224A700122EDE711684FF0FF3223
:1007A000E9E7754600F02CF8AE4605006946534669
:1007B00020F00700854618B020B5FFF74BFDBDE8D7
:1007C00020404FF000064FF000074FF000084FF0B8
:1007D000000B21F00701AC46ACE8C009ACE8C00949
:1007E000ACE8C009ACE8C0098D46704710B50446B6
:1007F000AFF300802046BDE81040FFF716BD0000B3
:1008000000487047BC0A002001491820ABBEFEE733
:1008100026000200704710B50146806B026C12F092
:10082000500F05D0026CD20626D500F01DFA10BD7F
:10083000016C41F40071016401688A6812F0405F44
:1008400017D1027EAAB9CA6A12F4700F02D08A6860
:1008500052050ED44A6822F020024A60016C21F44D
:1008600080710164016CC90403D4016C41F0010181
:10087000016400F0F7F910BD806BC26CBDE8104058
:100880000846104710B5806B40210164416C41F06F
:100890000401416400F0E8F910BD10B5806B00F070
:1008A000E2F910BD464910B54A6822F440324A6068
:1008B0004A6843681A434A6001684A6822F48072B1
:1008C0004A6001684A68036942EA03224A60016893
:1008D0004A6822F040724A6001684A6883681A4395
:1008E0004A6001688A6822F400628A6001688A6846
:1008F000C3681A438A60816A6FF07062D1420168EE
:100900008A6822F070628A6001688A680CD0836A03
:100910001A438A6001688A6822F040528A6001683E
:100920008A68C36A1A4301E022F040528A60016873
:100930008A6822F002028A6001688A68037E42EABD
:1009400043028A6090F82010002901684A680FD09D
:1009500042F400624A6001684A6822F460424A60D8
:1009600001684A68174C436A04EB43331A4301E0B9
:1009700022F400624A600168CA6A22F47002CA6204
:100980000168CA6A838B104C04EB03531A43CA6292
:1009900001688A6822F400728A6001688A6890F8A7
:1009A000303042EA43228A6001688A6822F4806219
:1009B0008A6001688A68406942EA8020886010BDC8
:1009C0000023014000E0FFFF0000F0FFFEE7000011
:1009D000014800F0E9BA0000FC090020014800F0DD
:1009E000E3BA00005C0A0020014800F0DDBA000014
:1009F0005C07002001681823CAB2103AB2FBF3F278
:100A0000054B6FF30901032A9B5CC36500D9091DDF
:100A100081650846704700009672000810B50146CF
:100A200000208B698A6A4FF0C07453B1B3F5005F40
:100A300015D072B1012A0CD0022A0AD0032A09D19A
:100A400004E01AB1012A06D0022A03D1C96AC901F9
:100A500000D5012010BDC96AA142FAD010BD002AFC
:100A6000F7D0012AF2D0022AF3D0032AF3D010BD26
:100A700030B50468256825F4802525600468636026
:100A80008368402B036803D099600068C26030BD62
:100A90009A600068C16030BD064A10B553680649C7
:100AA000064C0968B1FBF4F141435068C01A884212
:100AB000FBD310BD001000E07800002040420F0082
:100AC000074A10B5536807494FF47A740968B1FBB7
:100AD000F4F141435068C01A8842FBD310BD0000B6
:100AE000001000E07800002007480168C9010AD41E
:100AF000016841F080710160044800214160016893
:100B000041F0010101607047FCED00E0001000E0E1
:100B1000704772B6FEE7000078B50024009490F8A4
:100B20003C20012A19D0012280F83C200A680723C2
:100B30000568092A13D9EE680A3A02EB420293408B
:100B40009E43EE600B788A680A3B03EB43039A40AE
:100B50000368DD682A43DA6010E0022078BD2E6960
:100B600002EB420293409E432E610B788A6803EBAE
:100B700043039A4003681D692A431A614A681F2388
:100B8000072A13D205686E6B521E02EB8202934055
:100B90009E436E630B790A885B1E92B203EB83035C
:100BA0009A4003685D6B2A435A6327E005680D2A63
:100BB00012D22E6BD21F02EB820293409E432E6311
:100BC0000B790A88DB1F92B203EB83039A40036818
:100BD0001D6B2A431A6311E0EE6A0D3A02EB8202A2
:100BE00093409E43EE620B790A880D3B92B203EB71
:100BF00083039A400368DD6A2A43DA62164B05686C
:100C0000144A9D4206D10D68122D03D1556845F452
:100C10008005556005689D4218D10B68102B01D0E6
:100C2000112B13D1536843F4000353600968102952
:100C30000CD10A490A4A0968B1FBF2F101EB8101C2
:100C4000490000E0491E00910029FBD180F83C409A
:100C5000002078BD002301400020014078000020E2
:100C600040420F0070477047704770B504004FF066
:100C7000000503D0206C002610B107E0012070BDF4
:100C8000204600F01DF8666484F83C60206CC006C5
:100C900010D4206C20F4885040F0020020642046DC
:100CA000FFF700FE6664206C20F0020040F00100B7
:100CB000206400E0012584F83C60284670BD0000F7
:100CC00070B586B0064614216846FFF7B3FC2C4980
:100CD0003068884251D12B480025016841F4807169
:100CE00001600068274900F4807014390590086895
:100CF00040F004000860086800F0040005900868EF
:100D000040F001000860086800F0010005900868E4
:100D100040F0020008600868032400F0020005901B
:100D20003F208DE831006946174800F0C1FAFF20E6
:100D30008DE831006946154800F0BAFA009469461A
:100D40001348CDE9014500F0B3FA134C1148C4E94A
:100D500000050015A560C4E90350800060618000B3
:100D6000A0618011C4E907052046656200F0ECF936
:100D700008B1FFF7CEFEB463A66306B070BD0000F5
:100D800000200140443802400008024000000240B8
:100D90000004024010640240FC090020F8B504463B
:100DA00000200E46009094F83C10012907D0012144
:100DB00084F83C1021688B68DB0702D011E0022028
:100DC000F8BD8B6843F001038B604049404B0968D4
:100DD000B1FBF3F101EB410100E0491E0091002954
:100DE000FBD121688B68DB0503D58B6823F4807306
:100DF0008B6021688B68DB075DD0236C40F2016556
:100E0000AB4343F4807323644968490505D5216CDD
:100E100021F4005141F480512164216CC90404D5AE
:100E2000616C21F00601616400E0606484F83C00BC
:100E3000A16B2948274DC863A16B28480864A16BA2
:100E40002748C86421686FF0220008602068416864
:100E500041F0806141602068816841F48071816067
:100E60002168134632464C31A06B00F0D7F9686810
:100E70001C49C006206806D0884224D1816811F040
:100E8000405F13D01FE08842F8D0174A904203D148
:100E9000D1F80423D206F1D0144A904213D1D1F8EC
:100EA000041301F01F011029E8D30CE0816841F020
:100EB0008041816007E0206C40F010002064606C8D
:100EC00040F0010060640020F8BD000078000020C0
:100ED00040420F0000230140170800089B0800084B
:100EE0008508000800200140002101400022014047
:100EF0002DE9F0410446876D00F0E4FA064694F8C7
:100F000035000025022806D08020606584F8345022
:100F10000120BDE8F0812068016821F01601016020
:100F20002068416921F080014161206C08B9A06C02
:100F300020B12068016821F0080101602068016883
:100F400021F0010101600CE000F0BCFA801B0528D3
:100F500007D920206065032084F8350084F83450D8
:100F6000D7E720680068C007EED194F85C103F20F6
:100F70008840B860012084F8350084F8345000209F
:100F8000C7E790F83510022903D080214165012080
:100F90007047052180F835100068016821F00101D3
:100FA00001600020704700002DE9F84304464FF02F
:100FB0000009CDF8009063484FF41651A56D006804
:100FC000B0FBF1F72E6894F85C10082000FA01F1EC
:100FD00031420FD021680A6852070BD50A6822F007
:100FE00004020A6094F85C108840A860606D40F0CC
:100FF0000100606594F85C104FF0010808FA01F0F8
:10100000304208D021684969090604D5A860606D9E
:1010100040F00200606594F85C1004208840304283
:1010200008D021680968890704D5A860606D40F080
:101030000400606594F85C1010208840304218D09D
:1010400021680968090714D5A86020680168490368
:1010500004D50068000308D5A16C07E00168C90544
:1010600003D4016821F008010160216C09B1204618
:10107000884794F85C1020208840304231D02168A5
:101080000968C9062DD5A86094F8350005282068A0
:10109000016806D0490347D5006800031DD4616C80
:1010A0001CE021F0160101602068416921F08001F7
:1010B0004161206C08B9A06C20B12068016821F062
:1010C0000801016094F85C103F208840A86084F813
:1010D000358084F83490216D1FE0E16B09B1204622
:1010E0008847606D00282BD0606DC00714D00520A4
:1010F00084F835002068016821F001010160009842
:10110000401C0090B84203D820680068C007F6D1A0
:1011100084F8358084F83490E16C002910D001B057
:101120002046BDE8F04308470168C905D5D40168E9
:1011300021F01001016084F8358084F83490CCE708
:10114000BDE8F883780000202DE9F041044600F066
:10115000B9F906465CB1022084F83500002584F810
:1011600034502068016821F0010101600DE0012088
:10117000BDE8F08100F0A6F9801B052805D92020E4
:101180006065032084F83500F2E720680068C00736
:10119000F0D12268116820480140D4E901031843C6
:1011A000D4E903363343184363691843A3691843EA
:1011B000E3691843236A18430843616A042903D189
:1011C000D4E90B1319430843106020684069666A2C
:1011D00020F0070130460E43012704280CD1A06AF5
:1011E0000643E06A40B12046FFF718FC20B14020DA
:1011F000606584F83570BAE7206846612046FFF7DD
:10120000F9FB94F85C203F2191408160656584F88A
:1012100035700020ACE700003F8010F02DE9F04170
:101220000446866D90F83400002501280DD0012079
:1012300084F8340094F835700020012F07D084F82A
:10124000340002252846BDE8F0810220FBE7022792
:1012500084F8357060652046FFF70AFC94F85C104E
:101260003F208840B0602068016841F016010160AD
:10127000206C20B12068016841F0080101602068FD
:10128000016841F001010160DCE7000070B504462F
:1012900000F018F90546601C02D0044800780444A8
:1012A00000F010F9401BA042FAD370BD6C00002082
:1012B0002DE9F84FDFF8BCA1002201250AF1040B4B
:1012C00003264FF00F090BF1040E00BF0B6805FA5F
:1012D00002F42340A34270D10F7907F00307012FD6
:1012E00001D0022F16D187684FEA420806FA08FC9F
:1012F00027EA0C07D1F80CC00CFA08FC4CEA070CE2
:10130000C0F808C04768A7430C79C4F300149440A0
:101310003C4344600C79E443A4070AD0C4684FEA14
:10132000420C06FA0CF7BC438F6807FA0CF7274308
:10133000C7600C7904F00304022C12D1D40800EB2E
:10134000840CDCF820405707FF0E09FA07F824EA5E
:101350000804D1F8108008FA07F848EA0408CCF825
:10136000208004684FEA420C06FA0CF7BC430F7960
:1013700007F0030707FA0CF7274307604C6814F4DB
:10138000403F70D03C4C276847F480472760246872
:1013900022F0030704F480440094384C07EB040C5B
:1013A000DCF8084897074FEA177809FA08F7BC43B2
:1013B000334FB84202D1002724E054E0314FB84205
:1013C00001D101271EE0304FB84201D1022719E0B8
:1013D0002E4FB84201D1032714E02D4FB84201D15E
:1013E00004270FE02B4FB84201D105270AE02A4F0E
:1013F000B84201D1062705E0284FB84201D107279E
:1014000000E0082707FA08F72743CCF80878DAF84D
:1014100000405746D1F804C09C435FEACC3C00D55D
:101420001C433C60DBF800405F46D1F804C09C439D
:101430005FEA8C3C00D51C433C60DEF800407746F8
:10144000D1F804C09C435FEACC2C00D51C433C601F
:10145000084F0C373C68D1F804C09C435FEA8C2CE1
:1014600000D51C433C60521C102AFFF42FAFBDE88E
:10147000F88F0000003C0140443802400030014039
:10148000000002400004024000080240000C02403C
:10149000001002400014024000180240001C0240EC
:1014A0000069084000D001207047426921EA020328
:1014B0000A4043EA0241816170470AB18161704785
:1014C0000904FBE701488068704700006C000020B9
:1014D0000248816802781144816070476C000020E6
:1014E0000B4810B5016841F400710160016841F4D6
:1014F00080610160016841F480710160032000F0A7
:101500006FF80F2000F006F800F024F8002010BD5E
:10151000003C024070B50D4D04464FF47A712878B6
:10152000B1FBF0F00A490968B1FBF0F000F00CFBE8
:1015300048B9102C07D200222146501E00F030F886
:1015400000206C6070BD012070BD00006C000020A8
:10155000780000200A4808B5016841F48041016024
:10156000006800F4804000900548001F016841F0C9
:1015700080510160006800F08050009008BD0000BC
:1015800044380240002809DB00F01F02012191408D
:101590004009800000F1E020C0F800117047000011
:1015A000F0B40E4B1B680C46C3F30223C3F10705CE
:1015B000042D00D90425191D072901D2002300E0BC
:1015C000DB1E012606FA05F1491E214099409E4086
:1015D000761E16403143F0BC01F041BB0CED00E03B
:1015E000064900F0070208684FF6FF03184040EA7A
:1015F0000220034A10430860704700000CED00E031
:101600000000FA052DE9F0470E46050065D0DFF829
:101610001481D8F80000F7B200F00700B04207D2FA
:1016200088F80070D8F8000000F00700B04254D1EC
:1016300028683D4C810712D5400703D5206840F447
:10164000E05020602878000703D5206840F460400F
:1016500020602068A96820F0F00008432060287806
:10166000C0072DD0304968680839012812D00228F7
:1016700013D0032811D00968890700292DDA2168C1
:1016800021F0030101432160FFF71CFF814641F275
:10169000883A0EE009688903EFE709688901ECE7F9
:1016A000FFF710FFA0EB0901514502D90320BDE867
:1016B000F0872068696800F00C00B0EB810FEFD173
:1016C000D8F80010404601F00701B14207D9077071
:1016D000006800F00700B04201D00120E7E7287859
:1016E000400705D52068E96820F4E05008432060F1
:1016F0002878000706D52068296920F4604040EA70
:10170000C100206000F038F82168084AC1F30311D5
:10171000515CC8400649086006480068FFF7FAFEB9
:101720000020C4E7003C0240083802409E720008D6
:10173000780000207000002004480549006809680E
:10174000044AC1F38221515CC840704778000020F0
:1017500008380240AE72000804480549006809686C
:10176000044AC1F34231515CC84070477800002000
:1017700008380240AE720008154810B5006810F035
:101780000C02144813D01449042A0FD0082A0ED191
:101790000F4C241F2268236802F03F025B0207D52A
:1017A0002068C0F38810A0FB010106E0084610BDC8
:1017B0002168C1F38811A1FB00010023FEF75CFD45
:1017C0002168C1F30141491C4900B0FBF1F010BD93
:1017D000083802400024F40040787D012DE9F84FDC
:1017E00004006ED02078DFF84C93C007A9F10405FF
:1017F0004AD009F104000168C1F38101012908D030
:101800000068C0F3810002280AD1D9F80000400224
:1018100006D52868800337D560680028E1D033E01A
:101820006068B0F5803F10D0B0F5A02F286810D0C8
:1018300020F480302860286820F4802028606068C8
:10184000A8B1FFF73FFE06460DE0286840F480305F
:10185000F4E740F480202860F7E700BFFFF732FE8E
:10186000801B642873D828688003F7D50CE0FFF745
:1018700029FE064605E000BFFFF724FE801B642812
:10188000F0D828688003F7D42078DFF8AC8280078E
:101890004FF0000A3ED5A748001D016811F00C0F5B
:1018A00008D00068C0F3810002280BD1D9F80000ED
:1018B000400207D42868800716D5E068012800D1C7
:1018C00012E033E1E068B8B10120C8F80000FFF78A
:1018D000F9FD064605E000BFFFF7F4FD801B022876
:1018E000C0D828688007F7D52868216920F0F8005B
:1018F00040EAC10028600DE0C8F800A0FFF7E2FD53
:10190000064604E0FFF7DEFD801B02281FD828688A
:101910008007F7D42078000722D5864F8748616971
:10192000703771B101210160FFF7CCFD064604E07C
:10193000FFF7C8FD801B022809D838688007F7D553
:101940000EE0C0F800A0FFF7BDFD064605E082E00E
:10195000FFF7B8FD801B02287DD838688007F7D4D0
:101960002078400768D5DFF8CCB100270BF13C0B9D
:10197000DBF80000C0000BD4DBF8001041F0805110
:10198000CBF80010DBF80000012700F08050009039
:101990006B4E3068C00510D4306840F48070306001
:1019A000FFF790FD009005E0FFF78CFD0099401ACD
:1019B000022850D83068C005F6D55E4EA0686C3657
:1019C00001280FD00528306810D020F001003060C9
:1019D000306820F004003060A068B8B1FFF772FDF5
:1019E00000900FE0306840F00100F4E740F00400A0
:1019F0003060F7E7FFF766FD0099411A41F2883041
:101A0000814266D830688007F4D50EE0FFF75AFDB2
:101A1000009007E0FFF756FD0099411A41F2883027
:101A2000814256D830688007F4D42FB1DBF800101B
:101A300021F08051CBF80010A069C8B33D49091DC1
:101A40000968C1F3810102294AD00228504607D013
:101A5000C8F8600000E03CE0FFF734FD04463BE0DE
:101A60004746C8F86000FFF72DFD064605E000BFB9
:101A7000FFF728FD801B02282BD828688001F7D4A7
:101A8000D4E907010843A16A2E4A490802EB014143
:101A9000626A41EA8211084394F82C1040EA01611D
:101AA000C9F8001001203866FFF70CFD044606E077
:101AB0003EE000BFFFF706FD001B022809D828689A
:101AC0008001F7D534E000BFFFF7FCFC001B0228C3
:101AD00002D90320BDE8F88F28688001F4D427E0FC
:101AE0000128F7D0D9F80000E26900F480019142A2
:101AF0001CD1226A00F03F01914217D147F6C07114
:101B0000626A0140B1EB821F10D1A26A4FF0FF332D
:101B100000F4403103EB5202B1EB024F06D194F8CE
:101B20002C1000F07060B0EB016F01D00120D1E704
:101B30000020CFE70438024000004742800E4742B1
:101B4000007000400000FFFF10B5401EB0F1807F24
:101B500001D3012010BD4FF0E02460610F21601718
:101B600001F07DF80020A06107202061002010BD59
:101B700038B5044690F83E00202822D181B17AB1D0
:101B800094F83C0001281CD0012084F83C0020631C
:101B9000204600F0D3FF002803D1216B012901D09A
:101BA000012038BD21680A684968009121680C311C
:101BB00051E8002F42F0100241E80023002BF5D13C
:101BC00038BD022038BD000010B50C4600680F4932
:101BD00088421AD10E49224601F58070FEF7D6FCE4
:101BE00022460C490C48FEF78CFC0C49012080224F
:101BF00008700749A1F1E800FFF7BAFF0448603810
:101C00000068016821F00801016010BD001001406A
:101C1000BC070020BC0800208904002063000020CD
:101C200070470000F8B5016804460868CA684B6947
:101C300010F00F0F4FF0000559D003F0010602F429
:101C40009077374365D0C10705D0D10503D5216C06
:101C500041F001012164410705D5D90703D0216C6A
:101C600041F002012164810705D5D90703D0216C19
:101C700041F004012164010707D502F0200131433E
:101C800003D0216C41F008012164216C00293AD075
:101C9000800604D5900602D5204600F069FE206833
:101CA0004069216CC0F38010090700D460B320465E
:101CB00000F029FE20684069400621D520681430D4
:101CC00050E8001F21F0400140E80012002AF5D141
:101CD000A06BA8B16C490165A06BFFF752F9002811
:101CE00011D0A06B016D01B0BDE8F040084783063C
:101CF0000FD593060DD52046BDE8F84000F038BE5C
:101D00002046FFF78DFFF8BD2046FFF789FF2564C9
:101D1000F8BD266B2023012E79D1C60677D5D606CD
:101D200075D50868486800904869400640D5A16BA1
:101D3000086840680004000CEAD0A28D8242E7D90E
:101D4000E085C869B0F5807F2DD020680C3050E860
:101D5000001F21F4807140E80012002AF5D12068AC
:101D6000143050E8001F21F0010140E80012002A61
:101D7000F5D12068143050E8001F21F0400140E800
:101D80000012002AF5D184F83E30256320680C301B
:101D900050E8001F21F0100140E80012002AF5D1A0
:101DA000A06BFFF7A5F8A08DE18D401A81B229E064
:101DB000A08DE18D401A81B2E08D0028A8D00029C5
:101DC000A6D020680C3050E8002F22F4907240E832
:101DD0000026002EF5D12068143050E8002F22F0A4
:101DE000010240E80026002EF5D184F83E3025633C
:101DF00020680C3050E8002F22F0100240E8002349
:101E0000002BF5D12046FFF7DFFEF8BDFFE7050602
:101E10002BD5150629D594F83D002128F5D1A068C9
:101E2000B0F5805F01D12069B0B1206A411C216208
:101E3000216800784860E08C401E0004000CE084BB
:101E4000E3D12068C16821F08001C1602068C168C9
:101E500041F04001C160D8E7206A0088C0F3080063
:101E60004860206A801C2062E5E74006CDD5500618
:101E7000CBD5CA68204622F04002CA6084F83D30C3
:101E800000F029F9C1E700001128000870B504002E
:101E900004D094F83D00002510B106E0012070BD8B
:101EA00084F83C50204600F023F8242084F83D00BC
:101EB0002068C16821F40051C160204600F0B8FDDF
:101EC0002068016921F4904101612068416921F095
:101ED0002A0141612068C16841F40051C160256454
:101EE000202084F83D0084F83E00002070BD0000F2
:101EF000F0B587B0064614216846FEF79BFB4148C3
:101F00004049DFF8FCC0356800241439022203235D
:101F10000715654535D1056845F010050560006871
:101F200000F010000590086840F0010008600868A3
:101F3000694600F00100059058028DE81500072061
:101F4000CDE903303048FFF7B3F9314D2F48286011
:101F50007804C5E90104C5E903476C61AC61EC6133
:101F60002C6228466C62FFF7EFF808B1FEF7D1FD4E
:101F7000B563002211462520AE63FFF711FB252033
:101F80003AE0DFF890C0654538D1056845F0200596
:101F90000560006800F020000590086840F004002B
:101FA00008600868694600F0040005904FF4E0708E
:101FB0008DE815000820CDE903301748FFF778F9C0
:101FC0001248164D603828608005C5E90104C5E94E
:101FD00003476C61AC61EC612C6228466C62FFF7D0
:101FE000B3F808B1FEF795FDB5630022114647200E
:101FF000AE63FFF7D5FA4720FFF7C4FA07B0F0BD8C
:102000000010014044380240000002408864024051
:102010005C07002000140140000802405C0A002018
:10202000704770472DE9F843044690F83D001F467D
:1020300016460D4620284CD1C5B1BEB194F83C00DF
:10204000012846D0012084F83C004FF00008C4F875
:102050004080212084F83D00FFF734FAA6848146B1
:10206000E684A068B0F5805F03D004E00120BDE8FD
:10207000F883206928B12E465FF0000584F83C8083
:102080000EE00026FAE78021204600F09FFDA0B96F
:10209000AEB116F8010B21684860E08C401EE08468
:1020A000E08C4B464FF0000200970028EBD14FF038
:1020B0004001204600F08AFD30B10320D7E735F813
:1020C000020BC0F30800E6E7202084F83D00002062
:1020D000CDE70220CBE77047FEE70000044908780F
:1020E00020F00100087040F0080000F019B800006E
:1020F000000000200449087840F00100087040F01A
:10210000080000F00DB800000000002010B501200C
:1021100000F006F8BDE8104040F6B830FEF7BCBC51
:1021200010B5044600224FF480610648FFF7C5F958
:10213000200900F009F804F00F00BDE8104000F09D
:1021400003B80000000C024070B504461D4D0007A6
:102150004FF4004101D5012200E000222846FFF79C
:10216000ACF960074FF4804101D5012200E0002264
:102170002846FFF7A2F9A0074FF4005101D501222C
:1021800000E000222846FFF798F9E0074FF480515D
:1021900001D0012200E000222846FFF78EF901223B
:1021A000D40221462846FFF788F91420FEF774FC74
:1021B000002221462846FFF780F9BDE87040142030
:1021C000FEF76ABC000C024008B509A21268009232
:1021D000084AD3788B4200D80021507191711DF8C4
:1021E00001100844C0B240F08000FFF799FF08BD1D
:1021F000004014540000002010B504460122910252
:102200000548FFF75AF92009FFF79EFF04F00F0079
:10221000BDE81040FFF798BF000C02400449087861
:1022200040F00400087040F00800FFF779BF00009C
:102230000000002070B50D460646FEF755FC00F084
:1022400041F84AF6C870FEF727FC1D4C0020012D0E
:10225000E57026716071A071607001D9082060700E
:102260000320FFF771FF41F294152846FEF714FC96
:102270000320FFF769FF2846FEF70EFC0320FFF757
:1022800063FF2846FEF708FC0220FFF75DFF64208D
:10229000FEF702FC607840F02000FFF741FF0420C9
:1022A0002070FFF7BBFFFFF731FF0220A070062070
:1022B000FFF736FF2846BDE87040FEF7EDBB000093
:1022C0000000002030B585B014216846FEF7B2F951
:1022D0004FF44C40009001250024CDE9015469469B
:1022E00017480394FEF7E4FF4FF440500090CDE907
:1022F0000154694613480394FEF7DAFF124C00229A
:10230000A9022046FFF7D9F80022E1142046FFF782
:10231000D4F80022A1142046FFF7CFF80022690369
:102320002046FFF7CAF80022A9032046FFF7C5F8A8
:102330000022E9032046FFF7C0F805B030BD0000D9
:102340000004024000080240000C024070B51E4C20
:102350000D46002660B32878002813D060792179D3
:10236000884207D36671A1793046491CC9B2A17170
:10237000FFF72AFF28780A2822D0FFF73DFF60796F
:10238000401C607170BD60792179884207D3667105
:10239000A1793046491CC9B2A171FFF715FF287811
:1023A0000A2809D0FFF728FF6079401C60716D1C76
:1023B00028780028E7D170BDA079401CA071F6E70D
:1023C000A079401CA07170BD0000002070B51546BA
:1023D000FFF7FAFE134C16E060792179884207D3A3
:1023E00000206071A179491CC9B2A171FFF7ECFE10
:1023F00028780A280BD00D280FD0FFF7FDFE607952
:10240000401C60716D1C28780028E5D170BDA07952
:10241000401CC1B2A171607901E0A1790020FFF7F1
:10242000D3FEEFE7000000202DE9FF5F002567489D
:1024300000950195029564490395016001244FF4CC
:1024400040310461C0E90115047680F820506049EC
:10245000C0E90A151021C560C16180F830404461AF
:10246000FEF703FC08B172B6FEE74FF00A0807203A
:10247000CDF80080CDE9014069465448FEF74CFB99
:1024800008B172B6FEE70B200226CDE900066946C8
:102490004E48FEF741FB08B172B6FEE70C274FF03D
:1024A0000309CDE9007969464848FEF735FB08B1D4
:1024B00072B6FEE74FF00D0A4FF0040B6946434831
:1024C000CDE900ABFEF728FB08B172B6FEE70520A8
:1024D000CDE9005069463D48FEF71EFB08B172B6D3
:1024E000FEE70620CDE9004069463848FEF714FBB8
:1024F00008B172B6FEE70724CDE9006469463348A7
:10250000FEF70AFB08B172B6FEE70826CDE9009691
:1025100069462E48FEF700FB08B172B6FEE74FF0A1
:102520000909CDE900B969462848FEF7F5FA08B16E
:1025300072B6FEE70520CDE9000869462348FEF79C
:10254000EBFA08B172B6FEE7062000900B2001906E
:1025500069461E48FEF7E0FA08B172B6FEE7CDE91B
:10256000004769461948FEF7D7FA08B172B6FEE788
:102570000E24CDE9004A69461448FEF7CDFA08B1A9
:1025800072B6FEE70F27CDE9007469460F48FEF7E3
:10259000C3FA08B172B6FEE70096CDE90175694647
:1025A0000A48FEF7B9FA08B172B6FEE71020CDE985
:1025B000009069460548FEF7AFFA002801D072B6D0
:1025C000FEE7BDE8FF9F0000002001408C060020D0
:1025D0000100000F2DE9F04F87B014216846FEF787
:1025E00029F851480024016841F010010160016898
:1025F00001F010010591016841F0040101600168DA
:1026000001F004010591016841F0010101600168D8
:1026100001F001010591016841F0020101600168CA
:1026200001F002010591016841F0080101600068B4
:10263000DFF8F8A000F008004FF6BF750590002203
:1026400029465046FEF739FFDFF8E4B04FF46C46F8
:10265000002231465846FEF730FF4FF2D477002271
:1026600039463448FEF729FF4FF47F48002241469F
:102670003148FEF722FF4FF48079002249462F4867
:10268000FEF71BFF00950125CDE901546946504630
:102690000394FEF70DFE0096CDE9015469465846B5
:1026A0000394FEF705FE0097CDE9015469462148E1
:1026B0000394FEF7FDFDE80200901220CDE901042D
:1026C000032003900420049069461A48FEF7F0FDA9
:1026D000CDF80080CDE90154694617480394FEF710
:1026E000E7FD4FF490508DE8310069465846FEF7FB
:1026F000DFFDCDF80090CDE9015469460F48039401
:10270000FEF7D6FDFE208DE8310069460A48FEF747
:10271000CFFD28208DE8310069460648FEF7C8FD48
:1027200007B0BDE8F08F00003038024000100240D2
:102730000008024000040240000C02400000024079
:10274000FEE7FEE77047704710B5FEF7C1FE064C86
:102750002068401C2060642805DB00F0F3FD00F0D9
:1027600053FE0020206010BD6800002030B593B0FB
:1027700030216846FDF75EFF14210CA8FDF75AFFD3
:102780001D480025016841F080510160006800F09B
:10279000805011901948016841F48041016000683F
:1027A000022400F480401190012003901020049036
:1027B000009406940820CDE90750A820CDE909042B
:1027C00004200B906846FFF709F808B172B6FEE7DF
:1027D0000CA90F2081E831004FF4A0500F904FF466
:1027E0008050109005210CA8FEF70CFF002801D0A6
:1027F00072B6FEE713B030BD4038024000700040B2
:102800000248016841F470010160704788ED00E002
:1028100010B5806B0021C185C184FFF701FA10BD9E
:1028200070B5846B2068406994F83D10C0F3C01007
:102830000025212904D118B1E584204600F08AF84A
:102840002068406994F83E10C0F38010222904D11A
:1028500018B1E585204600F056F8206C40F01000D5
:1028600020642046FFF7DCF970BD10B50146806B8F
:1028700009680968C9052FD40021C18501680C3198
:1028800051E8002F22F4807241E80023002BF5D19B
:102890000168143151E8002F22F0010241E80023C1
:1028A000002BF5D10168143151E8002F22F04002CD
:1028B00041E80023002BF5D1202180F83E10016B68
:1028C000012909D101680C3151E8002F22F01002D2
:1028D00041E80023002BF5D1016B012902D0FFF75D
:1028E0009FFB10BD818DFFF76FF910BD10B5806B98
:1028F000016B012902D0FFF794FB10BD818D4908BF
:10290000FFF762F910BD01680C3151E8002F22F485
:10291000907241E80023002BF5D10168143151E891
:10292000002F22F0010241E80023002BF5D1016BBA
:10293000012909D101680C3151E8002F22F0100261
:1029400041E80023002BF5D1202180F83E10002122
:102950000163704701680C3151E8002F22F0C0027A
:1029600041E80023002BF5D1202180F83D1070476D
:1029700008B590F83E10222901D0022008BD8268D7
:102980004FF480539A4201D1016921B1816A9A4280
:102990001BD04AB10AE00268816A5268C2F3080299
:1029A0000A80816A891C08E0026972B10268526873
:1029B00002F07F020A70816A491C8162C18D491E42
:1029C0000904090CC18503D019E002685268F1E7D7
:1029D0000168CA6822F02002CA600168CA6822F44D
:1029E0008072CA6001684A6922F001024A612021AE
:1029F00080F83E10016B012903D0FFF711FB002086
:102A000008BD0021016301680C3151E8002F22F05C
:102A1000100241E80023002BF5D101680A68D206B4
:102A200002D50A6849680091818DFFF7CDF8E6E785
:102A300070B5044600680169E26821F44051114311
:102A400001612169A068E269084361691143084393
:102A50002168CA6849F20C639A430243CA6020683D
:102A60004169A26921F440711143416131492068F3
:102A7000884202D03049884202D1FEF76DFE01E063
:102A8000FEF75AFEE2690023192164253226B2F5C9
:102A9000004F626828D0A0FB0101930F9200FDF760
:102AA000EBFB0146B0FBF5F06FF01802504301EB71
:102AB000800006EB0010B0FBF5F000F0F002B1FB77
:102AC000F5F002EB0012B1FBF5F06FF0180358437C
:102AD00001EB800006EB0010B0FBF5F000F00F00FA
:102AE00021681044886070BDA0FB010192185B4111
:102AF000FDF7C2FB0146B0FBF5F00201B1FBF5F0BA
:102B00006FF01803584301EB800006EBC000B0FBE8
:102B1000F5F000F0F80002EB4002B1FBF5F058438D
:102B200001EB800006EBC000B0FBF5F000F0070001
:102B3000D6E70000001001400014014038B5816262
:102B400082850025134604460564222084F83E0051
:102B5000A26B1B48D063A26B1A481064A26B1A4880
:102B6000D064A06B0A4605652168A06B091DFEF7BD
:102B700055FB206801684068009084F83C5020684C
:102B80000C3050E8001F41F4807140E80012002A28
:102B9000F5D12068143050E8001F41F0010140E8F1
:102BA0000012002AF5D12068143050E8001F41F0CF
:102BB000400140E80012002AF5D1002038BD000095
:102BC0006B280008ED280008212800082DE9F041B5
:102BD000984617460E460446069D27E0681C25D0F9
:102BE0002DB1FEF76FFCA0EB0800A8421ED92068AB
:102BF0000C3050E8001F21F4D07140E80012002A88
:102C0000F5D12068143050E8001F21F0010140E8A0
:102C10000012002AF5D1202084F83D0084F83E00FF
:102C2000002084F83C000320BDE8F08120680068A3
:102C300036EA000004D00020B842CFD00020F3E7ED
:102C40000120F9E70148FEF7EDBF0000D40600209F
:102C50000148FEF7E7BF000018070020FEE709075C
:102C6000090E002804DB00F1E02080F80014704712
:102C700000F00F0000F1E02080F8141D704710B53F
:102C80001446FEF70DFC002803D12046FDF718FF7F
:102C9000002010BD10B504464FF480710348FEF7C4
:102CA00004FC2046BDE81040FDF70ABF00000240CA
:102CB00010B5044600224FF480710448FEF7FDFB76
:102CC0002046BDE81040FDF7FBBE000000000240BA
:102CD00010B50446012211020348FEF7EEFB204620
:102CE000BDE81040FDF7ECBE0000024070B5734D2A
:102CF000714C95ED020AD4ED000AB8EEC00AF4EE6C
:102D0000C00AF1EE10FA02DD002000F059FC95ED4A
:102D1000020AD4ED010AB8EEC00AF4EEC00AF1EEE0
:102D200010FA02DD012000F04BFC95ED020AD4ED13
:102D3000020AB8EEC00AF4EEC00AF1EE10FA02DDA3
:102D4000022000F03DFC95ED020AD4ED030AB8EE36
:102D5000C00AF4EEC00AF1EE10FA02DD032000F022
:102D60002FFC95ED020AD4ED040AB8EEC00AF4EE89
:102D7000C00AF1EE10FA02DD042000F021FC95ED0E
:102D8000020AD4ED050AB8EEC00AF4EEC00AF1EE6C
:102D900010FA02DD052000F013FC95ED020AD4EDD7
:102DA000060AB8EEC00AF4EEC00AF1EE10FA02DD2F
:102DB000062000F005FC95ED020AD4ED070AB8EEF6
:102DC000C00AF4EEC00AF1EE10FA02DD072000F0AE
:102DD000F7FB95ED020AD4ED080AB8EEC00AF4EE4E
:102DE000C00AF1EE10FA02DD082000F0E9FB95EDD3
:102DF000020AD4ED090AB8EEC00AF4EEC00AF1EEF8
:102E000010FA02DD092000F0DBFB95ED020AD4ED9B
:102E10000A0AB8EEC00AF4EEC00AF1EE10FA02DDBA
:102E20000A2000F0CDFB95ED020AD4ED0B0AB8EEB6
:102E3000C00AF4EEC00AF1EE10FA02DD0B2000F039
:102E4000BFFB95ED020AD4ED0C0AB8EEC00AF4EE11
:102E5000C00AF1EE10FA02DD0C2000F0B1FB95ED96
:102E6000020AD4ED0D0AB8EEC00AF4EEC00AF1EE83
:102E700010FA02DD0D2000F0A3FB95ED020AD4ED5F
:102E80000E0AB8EEC00AF4EEC00AF1EE10FA02DD46
:102E90000E2000F095FB95ED020AD4ED0F0AB8EE76
:102EA000C00AF4EEC00AF1EE10FA04DDBDE870408D
:102EB0000F2000F085BB70BDF0000020080000204E
:102EC0002DE9F043002489B005464FF4FA66062840
:102ED00000D13446FFF71AF900218EA20846FFF709
:102EE00075FA914F40F634094FF4FA786422402184
:102EF0003846FFF7C4FEA0B1642210213846FFF720
:102F0000BEFE78B3424602213846FFF7B8FE0028DD
:102F100062D0424608213846FFF7B1FE00285DD056
:102F2000D0E0641CFFF7F2F800217AA20846FFF710
:102F30004DFA012D0AD0022D0CD0032D0ED0042DF8
:102F400011D0052D13D0062D15D0DCE0182C00DB98
:102F50001824C4E03C2C00DB3C24C3E03C2C00DB08
:102F60003C24C2E00BE01F2C00DB1F24C0E00C2C33
:102F700000DB0C24BFE04C4500DB4C46BEE0641E89
:102F8000FFF7C4F8002163A20846FFF71FFA012DDE
:102F90000AD0022D0CD0032D0ED0042D10D0052DFB
:102FA00012D0062D14D0AEE0002CD2DC002496E026
:102FB000002CD2DC002495E0002CD2DC002494E02C
:102FC000002CD3DC002493E0002CD3DC002492E01E
:102FD000B442D3DC344691E000242EE0002C30D003
:102FE000FFF794F8012D0AD0022D0BD0032D0CD041
:102FF000042D0DD0052D0ED0062D0FD013E0224646
:103000004AA10DE022464FA10AE0224654A107E062
:1030100022465AA104E022465EA101E0224664A1B4
:103020006846FDF7A1F96A4601210020FFF7CEF9B5
:103030003046FDF745FDFFF769F809B02046BDE8C9
:10304000F083FFF763F8012D0AD0022D0FD0032D76
:1030500014D0042D19D0052D1ED0062D23D02CE020
:10306000002159A20846FFF7B1F95DA221E0002135
:1030700061A20846FFF7AAF966A21AE000216CA235
:103080000846FFF7A3F971A213E0002176A20846D3
:10309000FFF79CF97AA20CE000217FA20846FFF717
:1030A00095F983A205E0002188A20846FFF78EF972
:1030B0008CA201210020FFF789F93046FDF700FDC1
:1030C000FFF724F8012D0AD0022D0BD0032D0CD0D0
:1030D000042D0DD0052D0ED0062D0FD013E0224665
:1030E00086A10DE0224688A10AE0224689A107E0D8
:1030F00022468BA104E022468CA101E022468EA14B
:103100006846FDF731F96A4601210020FFF75EF9B4
:10311000ECE600004D454E552053455420444154A3
:10312000452054494D450000000C02405365742071
:10313000486F75722076616C756520256420736117
:1031400076656400536574204D696E7574652076EC
:10315000616C7565202564207361766564000000EC
:10316000536574205365636F6E642076616C75657A
:103170002025642073617665640000005365742027
:103180004461792076616C756520256420736176D1
:1031900065640000536574204D6F6E74682076611D
:1031A0006C756520256420736176656400000000FD
:1031B00053657420596561722076616C75652025B0
:1031C00064207361766564005361766520486F758D
:1031D000722076616C7565206661696C65640000BB
:1031E0004265636175736520486F75722076616C06
:1031F000756520697320300053617665204D696ED6
:103200007574652076616C7565206661696C6564AE
:103210000000000042656361757365204D696E753D
:1032200074652076616C756520697320300000003C
:1032300053617665205365636F6E642076616C75AB
:1032400065206661696C6564000000004265636129
:10325000757365205365636F6E642076616C756568
:103260002069732030000000536176652044617945
:103270002076616C7565206661696C65640000008C
:1032800042656361757365204461792076616C7570
:10329000652069732030000053617665204D6F6EA4
:1032A00074682076616C7565206661696C65640080
:1032B00042656361757365204D6F6E746820766139
:1032C0006C756520697320300000000053617665DD
:1032D00020796561722076616C7565206661696C24
:1032E000656400004265636175736520796561728C
:1032F0002076616C7565206973203000486F7572A7
:10330000203A2025640000004D696E757465203AEE
:10331000202564005365636F6E64203A20256400A5
:10332000446179203A202564000000004D6F6E74DE
:1033300068203A202564000059656172203A2025F2
:103340006400000030B5154C154B9FED162ADFEDDB
:10335000162A164D002200BF54F8220000EE100A73
:103360001046B8EE400A00F0F9F983ED040AD3EDF7
:10337000010A05EB8200521C60EE800A102A80EEE2
:10338000820A83ED030A93ED001AC0EE010A20EED3
:10339000A20A80ED000ADFDB30BD0000BC0900207E
:1033A0000800002000F07F4500007A44F000002073
:1033B00070B50E4D4FF4FA74224620212846FFF7CF
:1033C0005EFC002811D1FEF7A1FE002108A20846EC
:1033D000FEF7FCFF224608212846FFF750FC002894
:1033E000F3D1BDE87040FEF791BE70BD000402400D
:1033F00054524F55424C452033204D41494E544183
:103400004E414E434500000010B503F069FC03F047
:103410000FFC02F05FFDBDE81040FFF7C9BF0000E0
:103420002DE9F05F634B00287CD0634C01287AD0F3
:103430009D15022878D05E15032876D0042875D013
:10344000052874D09F14062872D04FF4005807281E
:103450006FD04FF4804908286CD04FF4004A0928F7
:1034600069D00A2868D00B2867D00C2870D00D28A6
:103470006FD0DFF848B10E286CD00F284FF0000253
:1034800069D004211846FEF718F800228021204652
:10349000FEF713F80022A1152046FEF70EF80022D1
:1034A00061152046FEF709F8002221152046FEF797
:1034B00004F80022E1142046FDF7FFFF0022394600
:1034C0002046FDF7FAFF0022444641463A48FDF700
:1034D000F4FF00224D4649463748FDF7EEFF002233
:1034E000564651463448FDF7E8FF00223946314838
:1034F000FDF7E3FF002221462E48FDF7DEFF002204
:1035000029462C48FDF7D9FF002231462948FDF70E
:10351000D4FF002239115C465846FDF7CEFF002249
:10352000F91013E00AE00CE00EE015E017E01AE0F5
:103530001DE01FE021E023E025E028E00022042137
:1035400023E00022802101E00022294620462CE0D1
:1035500020E022E024E026E000223146F6E70022C7
:103560004FF48061F2E700224FF40061EEE70022A1
:103570003946EBE700224146E8E700224946E5E705
:1035800000225146E2E70022394618460DE00022AB
:103590004146FAE700224946F7E700225146F4E7A0
:1035A0000022294600E031465846BDE8F05FFDF7AD
:1035B00084BF00000004024000100240000C0240E2
:1035C0002DE9F05F624B00287CD0624C01287AD054
:1035D0009D15022878D05E15032876D0042875D072
:1035E000052874D09F14062872D04FF4005807287D
:1035F0006FD04FF4804908286CD04FF4004A092856
:1036000069D00A2868D00B2867D00C2870D00D2804
:103610006FD0DFF844B10E286CD00F284FF00102B4
:1036200069D004211846FDF748FF01228021204679
:10363000FDF743FF012211022046FDF73EFF012264
:1036400051022046FDF739FF012291022046FDF785
:1036500034FF0122D1022046FDF72FFF0122394617
:103660002046FDF72AFF0122444641463948FDF72E
:1036700024FF01224D4649463648FDF71EFF012230
:10368000564651463348FDF718FF01223946304867
:10369000FDF713FF012221462D48FDF70EFF012201
:1036A00029462B48FDF709FF012231462848FDF73E
:1036B00004FF012211025C465846FDF7FEFE01227E
:1036C000510213E00AE00CE00EE015E017E019E00B
:1036D0001BE01DE01FE021E023E026E001220421A1
:1036E00021E00122802101E00122294620462AE032
:1036F0001EE020E022E024E001223146F6E701222C
:103700009102F3E70122D102F0E701223946EDE709
:1037100001224146EAE701224946E7E701225146F4
:10372000E4E70122394618460DE001224146FAE756
:1037300001224946F7E701225146F4E701222946D2
:1037400000E031465846BDE8F05FFDF7B6BE000028
:103750000004024000100240000C02400A49B0EE92
:10376000401A01EB80009FED070AD0ED001ADFED53
:10377000040A21EE800A00EE810A80ED000A7047FB
:10378000C520303ECFF7533FB000002008B5FDF70D
:10379000A7FEFEF7EBFFFEF71DFF6348002401685C
:1037A00041F4800101600068224600F4800000902E
:1037B00021463820FDF7F4FE3820FDF7E3FE002215
:1037C00011463920FDF7ECFE3920FDF7DBFE002223
:1037D00011464420FDF7E4FE4420FDF7D3FE544893
:1037E00052494FF4E1350160C0E901540C26C46030
:1037F000C0E904468461C461FEF748FB08B172B6B3
:10380000FEE74B484B4944300160C0E90154C460B5
:10381000C0E904468461C461FEF738FB08B172B6A2
:10382000FEE7FEF701FE44491022A1F54C70FDF7BA
:10383000B5FA3F498022E8313D48FEF799F93C4806
:1038400088300068016821F0080101600221282009
:10385000FEF7F0FC00210846FEF7B6FC002137A277
:103860000846FEF7B3FD3BA201210020FEF7AEFDA6
:103870004FF47A70FDF724F9FEF748FC3A4C3B4DC3
:103880003B4E2078A8B1286801283CD00228F8D106
:1038900038A200210E20FEF799FD394A01210A20A5
:1038A000FEF794FD307808B102F0E4FC00F024FB50
:1038B000E7E702F0FDFF00B101202070FEF726FCD3
:1038C00020780028F5D02F482FA12A6803681A48CD
:1038D0008038FCF749FD002130A20846FEF776FD4E
:1038E000154A0121803A0020FEF770FD03F058F9D7
:1038F000307808B102F0BEFC4FF4FA60FDF7E0F852
:10390000FEF704FCBDE71BA200210E20FEF75EFDC2
:103910001B4A01210A20FEF759FD307808B102F058
:10392000A9FC01F0DDFDACE7303802400010014099
:10393000D406002000140140BC0900203D3D3D3D5F
:103940003E204D5554414E5420322E30203C3D3DBA
:103950003D3D00003D3D3E204649524520414C4101
:10396000524D203C3D3D00006600002044000020F8
:10397000630000204D5554414E5420322E3000003B
:1039800009050020380000204D4F444520256420C3
:103990007C7C20494E542025640000005359535428
:1039A000454D2052554E4E494E47000070B5FEF72A
:1039B000ADFB4FF4FA661B4DB41000211AA2084665
:1039C000FEF704FD23A201210020FEF7FFFC2246A2
:1039D00008212846FFF753F958B12246022128460C
:1039E000FFF74DF90028E8D1FEF790FB00242046B0
:1039F00070BDFEF78BFB00211FA20846FEF7E6FC18
:103A000024A201210020FEF7E1FC3046FDF758F822
:103A1000FEF77CFB02F0B8FE0028CED00124FEF7B2
:103A200075FBE4E7000C02403D3D3D3D3D3D3D3D25
:103A30003D3D3E204D454E55205343414E2053457C
:103A40004E534F52203C3D3D3D3D3D3D3D3D3D3D76
:103A5000000000005072657373204F4B20544F20BC
:103A60005343414E206F72204241434B20544F201C
:103A700043414E43454C000053656E736F72207393
:103A800063616E2069732070726F63657373656420
:103A900000000000506C6561736520776169742EC9
:103AA0002E2E00002DE9F0410024FEF72FFB00210F
:103AB00027A20846FEF78AFC2B4D2C4FA0464FF458
:103AC000FA76324610213846FFF7D9F890B13246DF
:103AD00040213846FFF7D3F888B1324608213846EE
:103AE000FFF7CDF880B1324602213846FFF7C7F81C
:103AF00070B11FE0641C022C1CDD022426E0641E51
:103B0000002C17DC01241FE0012C08D0022C0BD064
:103B1000FEF7FCFA0020C5F82880BDE8F081FEF72A
:103B2000F5FA0120014603E0FEF7F0FA0120022138
:103B3000A962F2E7012C07D0022C07D00CA20121C8
:103B40000020FEF743FCBCE710A2F8E716A2F6E758
:103B50003D3E204D454E552053454E53494E47203E
:103B60004D4F4445203C3D001C000020000C02400D
:103B700055534520555026444F574E204B455953D9
:103B800020544F2053454C45435400004D4F44456D
:103B90002053494E474C452057495245202020206C
:103BA00020202020202000004D4F44452043524F2C
:103BB00053532057495245202020202020202020E8
:103BC0002020000070B500262C4D3446641CE4B261
:103BD000012C0AD0022C10D0032C17D0042C1ED09C
:103BE000052C25D0062C2CD033E00120FFF768F9F6
:103BF00010F0FF0028703FD02EE00220FFF760F9A0
:103C000010F0FF00687024D1002422E00320FFF7A9
:103C100057F910F0FF00A8701BD1012419E004200F
:103C2000FFF74EF910F0FF00E87012D1022410E007
:103C30000520FFF745F910F0FF00287109D1032492
:103C400007E00620FFF73CF910F0FF00687100D193
:103C5000042428780028B9D068780028B6D0A8783D
:103C60000028B3D0E8780028B0D028790028ADD05B
:103C700068790028AAD00126304670BD1C000020BB
:103C800070B50026FEF742FA3A4D4FF4FA7400BFC1
:103C900002F070F9224602212846FEF7F0FF0028C4
:103CA000F6D10024344D25E024B3012C25D0022C7C
:103CB00026D0032C27D0042C28D0052C29D0062C64
:103CC0002AD0072C2AD0082C2BD0092C2CD00A2C37
:103CD0002DD00B2C2ED00C2C2FD00D2C30D00E2C08
:103CE00031D02648FCF7EEFB01282FD901202855BA
:103CF000761C2DE020481030F4E71F483830F1E7FB
:103D00001D486030EEE71C488830EBE71A48B030B9
:103D1000E8E71948D830E5E71948E3E718482830BC
:103D2000E0E717485030DDE715487830DAE7144807
:103D3000A030D7E71148A038D4E710487838D1E749
:103D40000E485038CEE70D482838CBE700202855DC
:103D5000641C102CA8DB0024285D10B92046FFF756
:103D60002FFC641C102CF7DB0EB1012070BD00206D
:103D700070BD0000000C0240F90100206104002029
:103D8000F90200202DE9F04188B00024FEF7BEF9C9
:103D9000002137A20846FEF719FB3C4E3C4D4FF47C
:103DA000FA774FF4FA68642240212846FEF767FF4D
:103DB00090B1642210212846FEF761FFA8B13A466F
:103DC00002212846FEF75BFFD8B13A460821284673
:103DD000FEF755FFC0B140E0641CFEF797F90021E3
:103DE00023A20846FEF7F2FA37E0641EFEF78EF9CA
:103DF00000211FA20846FEF7E9FA002C2DDC002462
:103E00002BE00025F56113E0B4B10125F461FEF764
:103E10007DF922461FA16846FCF7A6FA6A460121F1
:103E20000020FEF7D3FA4046FCF74AFEFEF76EF993
:103E300008B02846BDE8F081FEF768F900211CA211
:103E40000846FEF7C3FA21A201210020FEF7BEFAC0
:103E50004046FCF735FEFEF759F9224623A1684695
:103E6000FCF782FA6A4601210020FEF7AFFA9AE7D2
:103E70004D454E5520534554205448524553484FC4
:103E80004C442056414C5545000000001C000020C9
:103E9000000C02405468726573686F6C6420766130
:103EA0006C756520256420736176656400000000F0
:103EB00053617665207468726573686F6C642076F0
:103EC000616C7565206661696C656400426563615B
:103ED000757365207468726573686F6C64207661B1
:103EE0006C756520697320300000000056414C5508
:103EF00045203A20256400002DE9F05FFE480225A8
:103F000000F1800BD0ED000ADBED001A0027FB4E1C
:103F1000F4EEE10A4FF00109F1EE10FA4FF47A786D
:103F200000F1400A00F1C00463DDFEF7EFF800BFC6
:103F300084F80090F248FCF7C5FA022808D3EE484E
:103F4000EF4AF0A17438FCF70FFAEB4A743A00E03C
:103F5000F1A201210020FEF739FA4046FEF79AFE51
:103F600002F0D0FDFA2208213046FEF788FE48B163
:103F7000E148DBED010A90ED010AB4EEE00AF1EE52
:103F800010FAD5DDFEF7C2F80020FEF791FEFEF72D
:103F9000BDF8002002F0E2FA012002F0DFFA2570FD
:103FA0006570D748FCF78EFA02280ED3DE48FCF77E
:103FB00089FA022809D3D048DB4BD14ADBA17438F7
:103FC000FCF7D2F9CC4A743A00E0DDA201210020CE
:103FD000FEF7FCF94046FEF75DFEFEF787FE02F0B5
:103FE00091FDFA2208213046FEF749FE0028D0D183
:103FF00070E0C1489BED011A90ED010AB4EEC10AD0
:10400000F1EE10FA76DDFEF781F8D2A200210E2043
:10401000FEF7DCF9C448FCF755FA022808D3B64885
:10402000C14ACFA17438FCF79FF9B34A743A00E053
:10403000CFA201210020FEF7C9F984F80190404683
:10404000FEF728FE02F05EFDFA2208213046FEF758
:1040500016FE48B1A848DBED000A90ED000AB4EE68
:10406000E00AF1EE10FAD5DDFEF750F80020FEF779
:104070001FFEFEF74BF8002002F070FA012002F05C
:104080006DFA257065709E48FCF71CFA02280ED365
:10409000A548FCF717FA022809D39748A24B984A7B
:1040A000A2A17438FCF760F9934A743A00E0A4A224
:1040B00001210020FEF78AF94046FEF7EBFDFEF7EE
:1040C00015FE02F01FFDFA2208213046FEF7D7FD4B
:1040D0000028D0D1FEF71AF8002002F021F90120C3
:1040E00002F01EF90020FEF7E3FD1020FFF798F91B
:1040F00045E0FFE79AED002AF4EEC20AF1EE10FA6D
:104100001ADDF4EEE10AF1EE10FA15D2277002F092
:10411000F9FC7948DAED010A90ED010AB4EEE00A03
:10412000F1EE10FA2BDDDBED010AB4EEE00AF1EE60
:1041300010FA24D2677020E0DAED010AB4EEE00A4A
:10414000F1EE10FA1BDDB4EEC10AF1EE10FA16D250
:10415000677002F0D7FC6848DAED000A90ED000ABB
:10416000B4EEE00AF1EE10FA09DDDBED000AB4EE80
:10417000E00AF1EE10FA02D2277002F0C3FC5E48AA
:10418000D0ED020A8030D0ED021AF4EEE10AF1EE31
:1041900010FA66DDFDF7BAFFDFF85CB10BF1800BBA
:1041A0007748FCF78FF9022808D35348744A6CA16A
:1041B0007438FCF7D9F8504A743A00E071A2012132
:1041C0000020FEF703F984F802904046FEF762FDF6
:1041D00002F098FCFA2208213046FEF750FD48B163
:1041E0004548DBED030A90ED030AB4EEE00AF1EE78
:1041F00010FAD5DDFDF78AFF0020FEF759FDFDF727
:1042000085FF022002F0AAF9032002F0A7F9A570A9
:10421000E5705B48FCF756F902280ED35D48FCF7C1
:1042200051F9022809D334485A4B554A3FA17438F2
:10423000FCF79AF8304A743A00E057A201210020B6
:10424000FEF7C4F84046FEF725FDFEF74FFD02F0ED
:1042500059FCFA2208213046FEF711FD0028D0D182
:10426000D6E0254800F1800B90ED030A9BED031A80
:10427000B4EEC10AF1EE10FA3CDDFDF747FFDFF8BE
:1042800078B04448FCF71EF9022808D31A48414A7E
:1042900033A17438FCF768F8174A743A00E043A277
:1042A00001210020FEF792F884F803904046FEF7C3
:1042B000F1FC02F027FCFA2208213046FEF7DFFC71
:1042C00050B10D489BED020A8030D0ED020AB4EEE9
:1042D000E00AF1EE10FAD4DDFDF718FF0020FEF73A
:1042E000E7FCFDF713FF022002F038F9032002F08B
:1042F00035F963E09BE00000F0000020000402407C
:10430000090200205A4F4E4520257320414B544945
:1043100046202020000000005365676D656E742004
:104320003120414B54494600310200205A4F4E453E
:10433000202573202620257320414B544946000038
:104340005365676D656E7420312026203220414B05
:10435000544946004D5554414E5420322E300000F1
:104360005A4F4E4520257320414B544946000000CA
:104370005365676D656E74203220414B5449460089
:10438000590200205365676D656E74203320414BE0
:1043900054494600810200205365676D656E7420A4
:1043A000332026203420414B544946005365676D25
:1043B000656E74203420414B54494600A570E57069
:1043C000FE48FCF77FF802280DD3FD48FCF77AF889
:1043D000022808D3FA4BF94AAFF2B001F948FBF7CB
:1043E000C3FFF84A01E0AFF2500201210020FDF7BF
:1043F000EDFF4046FEF74EFCFEF778FC02F082FB34
:10440000FA2208213046FEF73AFC00287FF46BAF11
:10441000FDF77CFE022001F083FF032001F080FF06
:104420000020FEF745FC1020FEF7FAFF46E09AED6B
:10443000022AF4EEC20AF1EE10FA1BDDF4EEE10AF4
:10444000F1EE10FA16D2A77002F05CFBDD48DAED4F
:10445000030A743090ED030AB4EEE00AF1EE10FAAC
:104460002CDDDBED030AB4EEE00AF1EE10FA25D202
:10447000E77021E0DAED030AB4EEE00AF1EE10FA9B
:104480001CDDB4EEC10AF1EE10FA17D2E77002F0AB
:1044900039FBCC48DAED020A743090ED020AB4EE32
:1044A000E00AF1EE10FA09DDDBED020AB4EEE00AF3
:1044B000F1EE10FA02D2A77002F024FBDFF804B389
:1044C0000BF1740B0BF18000DBED040AD0ED041A44
:1044D000F4EEE10AF1EE10FA61DDFDF717FEBA48DD
:1044E000FBF7F0FF022807D3B74AAFF28C11B548AB
:1044F000FBF73AFFB34A00E0B4A201210020FDF728
:1045000065FF84F804904046FEF7C4FB02F0FAFA17
:10451000FA2208213046FEF7B2FB50B1A9489BEDC4
:10452000050AF430D0ED050AB4EEE00AF1EE10FA17
:10453000D5DDFDF7EBFD0020FEF7BAFBFDF7E6FD4C
:10454000042002F00BF8052002F008F825716571CF
:104550009D48FBF7B7FF02280DD3A048FBF7B2FF39
:10456000022808D39D4B984AAFF240219548FBF7AB
:10457000FBFE944A00E09AA201210020FDF726FFED
:104580004046FEF787FBFEF7B1FB02F0BBFAFA22CA
:1045900008213046FEF773FB0028D1D16BE0894833
:1045A0009BED050AF43090ED051AB4EEC10AF1EE68
:1045B00010FA70DDFDF7AAFD8848FBF783FF02289B
:1045C00007D3864AAFF268217E48FBF7CDFE7D4ACD
:1045D00000E088A201210020FDF7F8FE84F8059094
:1045E0004046FEF757FB02F08DFAFA2208213046CA
:1045F000FEF745FB50B173489BED040AF430D0ED53
:10460000040AB4EEE00AF1EE10FAD5DDFDF77EFD06
:104610000020FEF74DFBFDF779FD042001F09EFF21
:10462000052001F09BFF257165716748FBF74AFF84
:1046300002280DD36948FBF745FF022808D3674BD2
:10464000614AAFF218315F48FBF78EFE5D4A00E029
:1046500063A201210020FDF7B9FE4046FEF71AFBD8
:10466000FEF744FB02F04EFAFA2208213046FEF72C
:1046700006FB0028D1D1FDF749FD042001F050FED2
:10468000052001F04DFE0020FEF712FB1020FEF782
:10469000C7FE47E0FFE79AED042AF4EEC20AF1EE06
:1046A00010FA1BDDF4EEE10AF1EE10FA16D22771D2
:1046B00002F028FA9BED050ADAED050AB4EEE00AED
:1046C000F1EE10FA2EDD3F48F430D0ED050AB4EEDD
:1046D000E00AF1EE10FA25D2677121E0DAED050A61
:1046E000B4EEE00AF1EE10FA1CDDB4EEC10AF1EE10
:1046F00010FA17D2677102F005FA9BED040ADAEDA1
:10470000040AB4EEE00AF1EE10FA0BDD2D48F430A5
:10471000D0ED040AB4EEE00AF1EE10FA02D22771ED
:1047200002F0F0F927489BED060AF43090ED061AE6
:10473000B4EEC10AF1EE10FA70DDFDF7E7FC314886
:10474000FBF7C0FE022807D32E4AAFF2EC311D481A
:10475000FBF70AFE1B4A00E02BA201210020FDF717
:1047600035FE84F806904FF4FA60FEF793FA02F0F3
:10477000C9F9FA2208213046FEF781FA50B11148F2
:104780009BED070AF430D0ED070AB4EEE00AF1EE33
:1047900010FAD4DDFDF7BAFC0020FEF789FAFDF728
:1047A000B5FC062001F0DAFE072001F0D7FEA57166
:1047B000E5711948FBF786FE022830E05902002017
:1047C000810200207C000020A90200205365676D53
:1047D000656E74203520414B54494600D1020020BB
:1047E0005365676D656E7420352026203620414B59
:1047F000544946005365676D656E74203620414B01
:1048000054494600F90200205365676D656E7420B7
:104810003720414B544946002103002022E00DD3AC
:10482000FE48FBF74FFE022808D3FD4BFB4AAFF2D0
:104830000451FC48FBF798FDFA4A00E0FAA2012176
:104840000020FDF7C3FD4046FEF724FAFEF74EFABE
:1048500002F058F9FA2208213046FEF710FA002833
:104860009FD16BE0EF48DBED070AF43090ED072AAB
:10487000F4EEC20AF1EE10FA70DDFDF747FCE848ED
:10488000FBF720FE022807D3E54AAFF22C51E5489A
:10489000FBF76AFDE34A00E0E8A201210020FDF7F2
:1048A00095FD84F807904046FEF7F4F902F02AF9E6
:1048B000FA2208213046FEF7E2F950B1D9489BEDC3
:1048C000060AF430D0ED060AB4EEE00AF1EE10FA72
:1048D000D5DDFDF71BFC0020FEF7EAF9FDF716FC1D
:1048E000062001F03BFE072001F038FEA571E571BE
:1048F000CB48FBF7E7FD02280DD3C848FBF7E2FDE4
:10490000022808D3C64BC54AAFF2E051C548FBF7B1
:104910002BFDC44A00E0C4A201210020FDF756FD92
:104920004046FEF7B7F9FEF7E1F902F0EBF8FA229C
:1049300008213046FEF7A3F90028D1D1FDF7E6FBA8
:10494000062001F0EDFC072001F0EAFC0020FEF754
:10495000AFF91020FEF764FD3DE0FFE7DAED061A3F
:10496000B4EEE10AF1EE10FA1BDDB4EEC10AF1EE8D
:1049700010FA16D2A77102F0C5F89BED070ADAED1E
:10498000070AB4EEE00AF1EE10FA24DDA548F4308F
:10499000D0ED070AB4EEE00AF1EE10FA1BD2E7718F
:1049A00017E0DAED072AF4EEE20AF1EE10FA12DD72
:1049B000F4EEC20AF1EE10FA0DD2B4EEE10AE7719C
:1049C000F1EE10FA07DDB4EEC10AF1EE10FA02D2F0
:1049D000A77102F097F89348DBED080AF430D0EDA8
:1049E000081AF4EEE10AF1EE10FA61DDFDF78EFB34
:1049F0009648FBF767FD022807D3944AAFF2A061FF
:104A00008848FBF7B1FC874A00E091A20121002011
:104A1000FDF7DCFC84F808904046FEF73BF902F015
:104A200071F8FA2208213046FEF729F950B17D4885
:104A30009BED090AF430D0ED090AB4EEE00AF1EE7C
:104A400010FAD5DDFDF762FB0020FEF731F9FDF726
:104A50005DFB082001F082FD092001F07FFD257239
:104A600065727A48FBF72EFD02280DD37C48FBF7D0
:104A700029FD022808D37A4B744AAFF25071694875
:104A8000FBF772FC674A00E076A201210020FDF7E7
:104A90009DFC4046FEF7FEF8FEF728F902F032F8DA
:104AA000FA2208213046FEF7EAF80028D1D16BE05F
:104AB0005C489BED090AF43090ED091AB4EEC10A86
:104AC000F1EE10FA70DDFDF721FB6548FBF7FAFC0B
:104AD000022807D3624AAFF278715248FBF744FCD0
:104AE000504A00E065A201210020FDF76FFC84F828
:104AF00009904046FEF7CEF802F004F8FA220821A9
:104B00003046FEF7BCF850B146489BED080AF43039
:104B1000D0ED080AB4EEE00AF1EE10FAD5DDFDF7AB
:104B2000F5FA0020FEF7C4F8FDF7F0FA082001F0CE
:104B300015FD092001F012FD257265724348FBF74F
:104B4000C1FC02280DD34648FBF7BCFC022808D361
:104B5000434B3E4AAFF62C013248FBF705FC314A85
:104B600000E040A201210020FDF730FC4046FEF7A6
:104B700091F8FEF7BBF801F0C5FFFA220821304694
:104B8000FEF77DF80028D1D1FDF7C0FA082001F02A
:104B9000C7FB092001F0C4FB0020FEF789F81020B4
:104BA000FEF73EFC82E0FFE79AED082AF4EEC20A27
:104BB000F1EE10FA1BDDF4EEE10AF1EE10FA16D276
:104BC000277201F09FFF9BED090ADAED090AB4EEA6
:104BD000E00AF1EE10FA69DD1248F430D0ED090A6E
:104BE000B4EEE00AF1EE10FA60D267725CE0DAED42
:104BF000090AB4EEE00AF1EE10FA57DDB4EEC10A8C
:104C0000F1EE10FA52D2677201F07CFF9BED080AB8
:104C1000DAED080AB4EEE00A3AE00000F9020020FA
:104C2000210300207C0000205365676D656E7420B1
:104C3000372026203820414B544946005365676D84
:104C4000656E74203820414B5449460049030020CA
:104C50005365676D656E74203920414B5449460099
:104C6000710300205365676D656E7420392026201E
:104C7000313020414B544946000000005365676DB8
:104C8000656E7420313020414B54494600000000CD
:104C9000F1EE10FA0ADDFD48D0ED080AB4EEE00AA4
:104CA000F1EE10FA02D2277201F02CFFF748DBED8B
:104CB0000A0AD0ED0A1AF4EEE10AF1EE10FA6ADD02
:104CC000FDF724FAF248FBF7FDFB022809D3F04A6E
:104CD000AFF67411ED48F438FBF746FBEB4AF43AB3
:104CE00000E0ECA201210020FDF770FB84F80A909F
:104CF0004046FDF7CFFF01F005FFFA2208213046BC
:104D0000FDF7BDFF48B1E1489BED0B0AD0ED0B0A62
:104D1000B4EEE00AF1EE10FAD4DDFDF7F7F9002069
:104D2000FDF7C6FFFDF7F2F90A2001F017FC0B2092
:104D300001F014FCA572E572D548FBF7C3FB02280D
:104D40000FD3D948FBF7BEFB02280AD3D64BD04A73
:104D5000AFF62821CD48F438FBF706FBCB4AF43AEE
:104D600000E0D2A201210020FDF730FB4046FDF714
:104D700091FFFDF7BBFF01F0C5FEFA220821304686
:104D8000FDF77DFF0028CFD1FDF7C0F9002001F02D
:104D9000C7FA012073E0BD489BED0B0A90ED0B1A9A
:104DA000B4EEC10AF1EE10FA73DDFDF7AFF9BE48BB
:104DB000FBF788FB022809D3BB4AAFF65C21B34856
:104DC000F438FBF7D1FAB14AF43A00E0BDA2012170
:104DD0000020FDF7FBFA84F80B904046FDF75AFFE0
:104DE00001F090FEFA2208213046FDF748FF48B155
:104DF000A6489BED0A0AD0ED0A0AB4EEE00AF1EEED
:104E000010FAD4DDFDF782F90020FDF751FFFDF720
:104E10007DF90A2001F0A2FB0B2001F09FFBA57297
:104E2000E5729B48FBF74EFB02280FD39E48FBF729
:104E300049FB02280AD39C4B954AAFF610319348A0
:104E4000F438FBF791FA914AF43A00E097A2012175
:104E50000020FDF7BBFA4046FDF71CFFFDF746FFBB
:104E600001F050FEFA2208213046FDF708FF002825
:104E7000CFD1FDF74BF90A2001F052FA0B2001F0D7
:104E80004FFA0020FDF714FF1020FEF7C9FA45E0A5
:104E9000FFE79AED0A2AF4EEC20AF1EE10FA1ADDE3
:104EA000F4EEE10AF1EE10FA15D2A77201F02AFE33
:104EB0009BED0B0ADAED0B0AB4EEE00AF1EE10FA04
:104EC0002CDD7248D0ED0B0AB4EEE00AF1EE10FAD8
:104ED00024D2E77220E0DAED0B0AB4EEE00AF1EE3C
:104EE00010FA1BDDB4EEC10AF1EE10FA16D2E77229
:104EF00001F008FE9BED0A0ADAED0A0AB4EEE00AB8
:104F0000F1EE10FA0ADD6148D0ED0A0AB4EEE00ACB
:104F1000F1EE10FA02D2A77201F0F4FD5B48DBED6E
:104F20000C0AD0ED0C1AF4EEE10AF1EE10FA64DD91
:104F3000FDF7ECF86848FBF7C5FA022809D3664A82
:104F4000AFF6E4315148F438FBF70EFA4F4AF43A21
:104F500000E062A201210020FDF738FA84F80C90ED
:104F60004046FDF797FE01F0CDFDFA2208213046BC
:104F7000FDF785FE48B145489BED0D0AD0ED0D0AC1
:104F8000B4EEE00AF1EE10FAD4DDFDF7BFF8002030
:104F9000FDF78EFEFDF7BAF80C2001F0DFFA0D20C8
:104FA00001F0DCFA257365734B48FBF78BFA022896
:104FB0000FD34F48FBF786FA02280AD34C4B464AD8
:104FC000AFF698413148F438FBF7CEF92F4AF43A5E
:104FD00000E048A201210020FDF7F8F94046FDF766
:104FE00059FEFDF783FE01F08DFDFA2208213046BF
:104FF000FDF745FE0028CFD1B8E024489BED0D0A0F
:1050000090ED0D1AB4EEC10AF1EE10FA3DDDFDF798
:105010007DF83748FBF756FA022809D3344AAFF631
:10502000C0411A48F438FBF79FF9184AF43A00E0F7
:1050300036A201210020FDF7C9F984F80D90404601
:10504000FDF728FE01F05EFDFA2208213046FDF74B
:1050500016FE48B10D489BED0C0AD0ED0C0AB4EEDB
:10506000E00AF1EE10FAD4DDFDF750F80020FDF76C
:105070001FFEFDF74BF80C2001F070FA0D2001F037
:105080006DFA2573657314484AE07EE070010020D4
:10509000990300205365676D656E7420313120419E
:1050A0004B54494600000000C10300205365676D62
:1050B000656E74203131202620313220414B544915
:1050C000460000005365676D656E742031322041E3
:1050D0004B54494600000000E90300205365676D0A
:1050E000656E7420313320414B5449460000000066
:1050F000110400205365676D656E742031332026DE
:1051000020313420414B5449460000005365676DFF
:10511000656E7420313420414B5449460000000034
:10512000FBF7D0F902280DD3D748FBF7CBF90228BB
:1051300008D3D54BD54AAFF60C61D548FBF714F927
:10514000D34A01E0AFF2540201210020FDF73EF9FD
:105150004046FDF79FFDFDF7C9FD01F0D3FCFA22A3
:1051600008213046FDF78BFD002884D1FCF7CEFFE7
:105170000C2001F0D5F80D2001F0D2F80020FDF749
:1051800097FD1020FEF74CF946E09AED0C2AF4EE5C
:10519000C20AF1EE10FA1BDDF4EEE10AF1EE10FAAC
:1051A00016D2277301F0AEFC9BED0D0ADAED0D0A65
:1051B000B4EEE00AF1EE10FA2EDDB548F430D0ED91
:1051C0000D0AB4EEE00AF1EE10FA25D2677321E081
:1051D000DAED0D0AB4EEE00AF1EE10FA1CDDB4EEE1
:1051E000C10AF1EE10FA17D2677301F08BFC9BED48
:1051F0000C0ADAED0C0AB4EEE00AF1EE10FA0BDD5F
:10520000A348F430D0ED0C0AB4EEE00AF1EE10FA47
:1052100002D2277301F076FC9D48DBED0E0AF430D4
:10522000D0ED0E1AF4EEE10AF1EE10FA64DDFCF7AF
:105230006DFF4746DFF8588208F1F4089548FBF700
:1052400041F9022807D3934AAFF6EC619048FBF787
:105250008BF88F4A00E090A201210020FDF7B6F8FC
:1052600084F80E903846FDF715FD01F04BFCFA224C
:1052700008213046FDF703FD40B19BED0F0AD8ED44
:105280000F0AB4EEE00AF1EE10FAD7DDFCF73EFFAC
:105290000020FDF70DFDFCF739FF0E2001F05EF94F
:1052A0000F2001F05BF9A573E5737A48FBF70AF963
:1052B00002280DD37D48FBF705F9022808D37B4B64
:1052C000744AAFF698717248FBF74EF8704A00E0E6
:1052D00077A201210020FDF779F83846FDF7DAFCC6
:1052E000FDF704FD01F00EFCFA2208213046FDF71F
:1052F000C6FC0028D1D16DE06548743000F1800B08
:1053000090ED0F0A9BED0F1AB4EEC10AF1EE10FA00
:1053100070DDFCF7FBFE4746ABF180086348FBF706
:10532000D1F8022807D3614AAFF6CC715848FBF791
:105330001BF8574A00E064A201210020FDF746F85F
:1053400084F80F903846FDF7A5FC01F0DBFBFA224C
:1053500008213046FDF793FC40B198ED0E0ADBEDD5
:105360000E0AB4EEE00AF1EE10FAD7DDFCF7CEFE3D
:105370000020FDF79DFCFCF7C9FE0E2001F0EEF8C1
:105380000F2001F0EBF8A573E5734248FBF79AF89C
:1053900002280CD34548FBF795F8022807D3434B66
:1053A0003C4A4E493A48FAF7DFFF394A00E040A24A
:1053B00001210020FDF70AF83846FDF76BFCFDF7E8
:1053C00095FC01F09FFBFA2208213046FDF757FCBF
:1053D0000028D2D1FCF79AFE0E2000F0A1FF0F208A
:1053E00000F09EFF0020FDF763FCBDE8F05F102099
:1053F000FEF716B89AED0E2A254D5646F4EEC20A6F
:105400007435F1EE10FA19DDF4EEE10AF1EE10FA5E
:1054100014D2A77301F076FB95ED0F0AD6ED0F0AB3
:10542000B4EEE00AF1EE10FA2CDDDBED0F0AB4EE7B
:10543000E00AF1EE10FA25D2E7731FE0D6ED0F0A6D
:10544000B4EEE00AF1EE10FA1CDDB4EEC10AF1EEA2
:1054500010FA17D2E77301F055FB95ED0E0AD6ED61
:105460000E0AB4EEE00AF1EE10FA0BDDDBED0E0AE7
:10547000B4EEE00AF1EE10FA04D2A773BDE8F05FD3
:1054800001F040BBBDE8F09F11040020E9030020BB
:105490007C000020390400205365676D656E742020
:1054A000313520414B544946000000006104002082
:1054B0005365676D656E74203135202620313620A6
:1054C000414B5449460000005365676D656E74207A
:1054D000313620414B544946000000002C4300085F
:1054E0002DE9F05FDFF8F893022509F1800A99EDC4
:1054F000000ADAED000AFB4F4FF00008B4EEE00AB4
:1055000009F1C004F1EE10FA4FF47A7634DDFCF7BD
:10551000FDFD002001F022F8FA20FDF7BBFB25700D
:10552000F148FAF7CFFF022808D3ED48EE4AEFA181
:105530007438FAF719FFEA4A743A00E0EFA2012141
:105540000020FCF743FFFDF7D1FB3046FBF7B8FA2C
:1055500001F0D8FAC82208213846FDF790FB002850
:10556000D7D1FDF7A5FB002000F0DAFE1020FDF7F3
:1055700057FFFCF7CBFD03E084F8008001F0C2FA8E
:1055800099ED010ADAED010AB4EEE00AF1EE10FA43
:1055900034DDFCF7BBFD012000F0E0FFFA20FDF751
:1055A00079FB6570D948FAF78DFF022808D3CC48FB
:1055B000D64ACEA17438FAF7D7FEC94A743A00E049
:1055C000D3A201210020FCF701FFFDF78FFB30463D
:1055D000FBF776FA01F096FAC82208213846FDF763
:1055E0004EFB0028D7D1FDF763FB012000F098FEA9
:1055F0001020FDF715FFFCF789FD03E084F801801A
:1056000001F080FA99ED020ADAED020AB4EEE00A3E
:10561000F1EE10FA34DDFCF779FD022000F09EFF78
:10562000FA20FDF737FBA570BD48FAF74BFF0228BB
:1056300008D3AB48BA4AADA17438FAF795FEA84A28
:10564000743A00E0B7A201210020FCF7BFFEFDF78D
:105650004DFB3046FBF734FA01F054FAC82208211A
:105660003846FDF70CFB0028D7D1FDF721FB0220BF
:1056700000F056FE1020FDF7D3FEFCF747FD03E0D7
:1056800084F8028001F03EFA99ED030ADAED030A8C
:10569000CB46D146B4EEE00AF1EE10FA34DDFCF769
:1056A00035FD032000F05AFFFA20FDF7F3FAE5700C
:1056B000A048FAF707FF022808D389489D4A8BA122
:1056C0007438FAF751FE864A743A00E09AA2012132
:1056D0000020FCF77BFEFDF709FB3046FBF7F0F9F5
:1056E00001F010FAC82208213846FDF7C8FA002850
:1056F000D7D1FDF7DDFA032000F012FE1020FDF7F0
:105700008FFEFCF703FD03E084F8038001F0FAF953
:105710009BED040AD9ED040ADA46B4EEE00AF1EE94
:1057200010FA34DDFCF7F2FC042000F017FFFA2039
:10573000FDF7B0FA25718448FAF7C4FE022808D3B1
:105740006748814A69A17438FAF70EFE644A743AD0
:1057500000E07EA201210020FCF738FEFDF7C6FA2A
:105760003046FBF7ADF901F0CDF9C82208213846E3
:10577000FDF785FA0028D7D1FDF79AFA042000F04A
:10578000CFFD1020FDF74CFEFCF7C0FC03E084F8D1
:10579000048001F0B7F99AED050AD9ED050AB4EED7
:1057A000E00AF1EE10FA34DDFCF7B0FC052000F061
:1057B000D5FEFA20FDF76EFA65716848FAF782FEA9
:1057C000022808D34648654A48A17438FAF7CCFD48
:1057D000434A743A00E062A201210020FCF7F6FD82
:1057E000FDF784FA3046FBF76BF901F08BF9C8221C
:1057F00008213846FDF743FA0028D7D1FDF758FABB
:10580000052000F08DFD1020FDF70AFEFCF77EFC60
:1058100003E084F8058001F075F99AED060AD9EDE8
:10582000060AB4EEE00AF1EE10FA34DDFCF76EFC85
:10583000062000F093FEFA20FDF72CFAA5714C48E3
:10584000FAF740FE022808D32548494A27A17438B0
:10585000FAF78AFD224A743A00E046A201210020AC
:10586000FCF7B4FDFDF742FA3046FBF729F901F0E9
:1058700049F9C82208213846FDF701FA0028D7D196
:10588000FDF716FA062000F04BFD1020FDF7C8FDCD
:10589000FCF73CFC03E084F8068001F033F99AED54
:1058A000070AD9ED070AB4EEE00AF1EE10FA16DDA8
:1058B000FCF72CFC072000F051FEFA20FDF7EAF976
:1058C000E5713048FAF7FEFD02285DD304482D4A01
:1058D00006A17438FAF748FD014A743A55E071E0C0
:1058E000F000002000040240090200205A4F4E45FB
:1058F00020257320414B5449462020005365676D95
:10590000656E74203120414B54494600310200201D
:105910005365676D656E74203220414B54494600D3
:10592000590200205365676D656E74203320414B2A
:1059300054494600810200205365676D656E7420EE
:105940003420414B54494600A90200205365676D3D
:10595000656E74203520414B54494600D102002029
:105960005365676D656E74203620414B544946007F
:10597000F90200205365676D656E74203720414B36
:105980005449460021030020FEA201210020FCF71B
:105990001DFDFDF7ABF93046FBF792F801F0B2F8C8
:1059A000C82208213846FDF76AF9002882D1FDF7A0
:1059B0007FF9072000F0B4FC1020FDF731FDFCF763
:1059C000A5FB03E084F8078001F09CF89AED080A33
:1059D000D9ED080ACB46B4EEE00AF1EE10FA33DD59
:1059E000FCF794FB082000F0B9FDFA20FDF752F90E
:1059F0002572E848FAF766FD022807D3E54AAFF2B8
:105A00001411E548FAF7B0FCE34A00E0E3A20121F3
:105A10000020FCF7DBFCFDF769F93046FBF750F896
:105A200001F070F8C82208213846FDF728F900284F
:105A3000D8D1FDF73DF9082000F072FC1020FDF7E9
:105A4000EFFCFCF763FB03E084F8088001F05AF8F0
:105A50009AED090ADBED090AD146DA46B4EEE00A0E
:105A6000F1EE10FA32DDFCF751FB092000F076FD73
:105A7000FA20FDF70FF96572CC48FAF723FD0228EA
:105A800006D3CA4ACAA1C448FAF76EFCC24A00E06B
:105A9000CCA201210020FCF799FCFDF727F9304644
:105AA000FBF70EF801F02EF8C82208213846FDF762
:105AB000E6F80028D9D1FDF7FBF8092000F030FC0A
:105AC0001020FDF7ADFCFCF721FB03E084F8098012
:105AD00001F018F899ED0A0ADAED0A0AB4EEE00AC4
