:020000040800F2
:10000000800D002049020008B3350008272F0008A2
:10001000B135000891170008FD3800080000000005
:10002000000000000000000000000000B7350008DC
:10003000BD18000800000000B5350008B9350008FB
:1000400063020008630200086302000863020008FC
:1000500063020008630200086302000863020008EC
:1000600063020008630200086302000863020008DC
:1000700063020008630200086302000863020008CC
:1000800063020008630200086302000863020008BC
:1000900063020008630200086302000863020008AC
:1000A000630200086302000863020008630200089C
:1000B000630200086302000863020008630200088C
:1000C000630200086302000863020008630200087C
:1000D00063020008D13800086302000863020008C8
:1000E000630200086302000863020008630200085C
:1000F000630200086302000863020008630200084C
:10010000630200086302000863020008630200083B
:10011000630200086302000863020008630200082B
:1001200095170008630200086302000863020008D4
:10013000630200086302000863020008630200080B
:1001400063020008630200086302000863020008FB
:10015000630200086302000863020008DD3800083B
:1001600063020008630200086302000863020008DB
:100170006302000863020008630200080000000038
:10018000630200086302000800F002F800F04CF877
:100190000AA090E8000C82448344AAF10107DA45E2
:1001A00001D100F041F8AFF2090EBAE80F0013F0E8
:1001B000010F18BFFB1A43F001031847B05A0000A3
:1001C000D05A0000103A24BF78C878C1FAD8520734
:1001D00024BF30C830C144BF04680C6070470000C1
:1001E0000023002400250026103A28BF78C1FBD840
:1001F000520728BF30C148BF0B607047662905F021
:10020000D884642900F0CC80002070471FB505F029
:10021000C6FC00F0A5FC04000020002105F008FB4E
:10022000E0601FBD10B510BD00F09AFD1146FFF74C
:10023000EDFF03F099FE00F0B8FD03B4FFF7F2FF05
:1002400003BC00F0FBFD0000094880470948004757
:10025000FEE7FEE7FEE7FEE7FEE7FEE7FEE7FEE776
:10026000FEE7FEE704480549054A064B70470000D3
:100270005D3600088901000880070020800D0020FD
:10028000800900208009002053EA020C00F06980F8
:100290002DE9F04B4FF00006002B1FBFB3FA83F59A
:1002A00003FA05F424FA05F65E4012BF1643B2FACB
:1002B00082F502FA05F4C5F120051EBF22FA05FCFD
:1002C00044EA0C04203556EA044C4FEA144418BFA3
:1002D000641C4FF000084FF00009904271EB030CD2
:1002E00039D3002919BFB1FA81F701FA07F6B0FA3C
:1002F00080F700FA07F6C7F120071EBF20FA07FCB7
:1003000046EA0C062037B6FBF4FCA7EB0507103FC6
:1003100007F01F0BCBF120060CFA0BFB2CFA06F6AC
:1003200044BFB3460026202FA4BF5E464FF0000B0B
:100330005BEA060C08BF4FF0010B19EB0B09ABFB96
:10034000027C48EB0608C01B06FB02CC0BFB03CC6F
:1003500071EB0C01C1E70B46024641464846BDE839
:10036000F08B13B54FF000004FF00001AFF30080A9
:10037000BDE81C40704700000FB41CB5074B06AA2F
:100380007B4469460090059800F0D1FB0020694647
:1003900000F0E0FB1CBC5DF814FB0000D10700007E
:1003A0002DE9F0410646002410687529314616A54E
:1003B00010D0AFF30080002802DA404213A507E016
:1003C00031688A0701D512A502E0490704D511A5B5
:1003D000012401E0AFF3008000210A2206F1240786
:1003E00009E0B0FBF2FCB0FBF2F302FB1C00303082
:1003F00078541846491C0028F3D123462A46304633
:10040000BDE8F04100F025B9000000002D0000001B
:100410002B000000200000002DE9F0474FF0000AFB
:1004200089460446C0F820A02046E1688847002895
:1004300076D0252806D0D4E901219047206A401CB7
:100440002062F1E7E168204600258847C4F81CA037
:1004500006460027C4F818A02A2E09D0304603F01B
:1004600076FA38B304EB8708303EC8F8186019E014
:1004700059F8041B204604EB87029161E168884724
:10048000012F064618D1E069002820DA25F0200562
:100490001DE0D8F8180000EB800006EB4000303873
:1004A000C8F818002046E1688847064603F04FFA6E
:1004B0000028EED1012F0AD02E2E08D12046E16867
:1004C00088477F1C0646022F45F02005C4DBA06943
:1004D000002803DA404245F00105A061E80701D099
:1004E00025F01005B6B1A6F14100192802D8203632
:1004F00045F400654A463146204625604D46FFF7E3
:100500007DFE58B1012806D0ED1D25F0070000F151
:10051000080989E704E005F1040985E730468AE720
:10052000206ABDE8F08710B5431C02E010F8011BFB
:1005300071B18107FAD14FF0013202C88C1A8C4395
:1005400014EAC211F9D0C01A0A0603D0C01E10BDA9
:10055000C01A10BD0A0401D0801E10BD0902FCD0D3
:10056000401E10BD4FF000020429C0F0128010F0B0
:10057000030C00F01B80CCF1040CBCF1020F18BF7F
:1005800000F8012BA8BF20F8022BA1EB0C0100F012
:100590000DB85FEAC17C24BF00F8012B00F8012BE5
:1005A00048BF00F8012B70474FF0000200B513461A
:1005B00094469646203922BFA0E80C50A0E80C5083
:1005C000B1F12001BFF4F7AF090728BFA0E80C5034
:1005D00048BF0CC05DF804EB890028BF40F8042B2D
:1005E00008BF704748BF20F8022B11F0804F18BF9A
:1005F00000F8012B704710B5044610F0030F08BF38
:1006000011F0030F40F015804FF0013E121FC0F2B1
:100610000E8051F8043BA3EB0E0C2CEA030C1CEAF1
:10062000CE1C08BF40F8043BF0D0A1F1040102F158
:100630000402521E08DB11F8013B002B00F8013BBD
:10064000F7D11146FFF78EFF204610BD7047704767
:1006500070472DE9F0470D4699469246044600F151
:1006600024080168880604D5E06921F010012160A2
:1006700000E00120A84201DD471B00E00027A1693E
:100680007A1902EB0900081AA0612078C00602D48A
:100690002046AFF30080002608E0D4E901211AF8D3
:1006A00006009047206A401C761C20624E45F4DB11
:1006B0002078C0060AD52046AFF3008006E0D4E9D2
:1006C000012130209047206A401C2062381EA7F18B
:1006D0000107F4DC07E0D4E9012118F80500904790
:1006E000206A401C2062281EA5F10105F3DC20468B
:1006F000AFF300802078000602D50220BDE8F08725
:100700000120FBE770472DE9FF4F0C461E464FF0D6
:10071000FF378BB0D2E90001DDF860800A908A468D
:10072000C1F30A5505B93D46002108464FF00000C7
:10073000BAF1000F00F4400005DA00EB80004FF43E
:10074000400101EA50004FEA9059B9F1010F00DD74
:10075000B9460A9850EA4A000ED044F61050A5F265
:10076000FF3545432F14B8F1000F1ED07542291EE6
:100770001EDDC9F100021CE0B8F1010F4FF00000CE
:1007800001D0302103E0F24305E02154401CB04287
:10079000FBDB30460022002121540B99C1F8088070
:1007A000C1E900200FB0BDE8F08FBD1B6D1CDEE776
:1007B0004A4600DA694206A800F05CFA06AB93E804
:1007C000070003AB83E8070050460A9900F03DFBA1
:1007D0008DE80700A0F500501F3800900398002D09
:1007E0000ADD42F21F014A460844002303A9039090
:1007F000684600F0A6FD09E0A0F500504A461F3803
:10080000002303A90390684600F0B0FD8DE80700BF
:100810000004000C03D04FF0FF30410800E0104608
:10082000B8F1000F03D00022009215461EE0751E9D
:1008300005D400F099F9303262556D1EF9D5B346F2
:100840000122084302D000227F1C04E020783028D7
:1008500001D100227F1E002A099784D01DE0112DAE
:1008600007DA00F081F9303262556D1C50EA01025E
:10087000F5D1084302D00098C8B10EE00021681EEF
:1008800005E0235C625C63542254401E491C814293
:10089000F7DBAB46A81B401E0990002004F80B00B4
:1008A0000B98099AC0F80880C0E9002B7AE7112656
:1008B0004FF0000857E72DE9F04F88460446D21D57
:1008C00022F0070191B0D1E90001CDE90A0103F05E
:1008D00016F802460B98C00F01D02D2007E02068C3
:1008E000810701D52B2002E0202101EAC000032A64
:1008F000099001D0072A05DB03464146204600F057
:1009000079F90BE12078800601D5E06900E0062046
:10091000B8F1650F814606D0B8F1660F18D0B8F16E
:10092000670F70D131E00020B9F1110F009001DBA9
:10093000112301E009F101030AAA01A90CA8FFF79C
:10094000E2FEDDE90C70002609F10105834647E06F
:1009500001204B4600904FF000470AAA01A90CA8BD
:10096000FFF7D1FEDDE90DB00C995D46002610B908
:1009700009F101000D18B9EB050003D4C0F1FF36F1
:1009800009F10105A5EB09002BE0B9F1010F01DA2E
:100990004FF001090020B9F1110F0090484601DD28
:1009A000112300E003460AAA01A90CA8FFF7ABFE39
:1009B000DDE90C704D4600268346207800070AD4F6
:1009C000AB4500DA5D4601A8012D04DD411911F89F
:1009D000011C302907D04F4502DA17F1040F04DA61
:1009E000012082460FE06D1EEEE7002F02DCED1BBA
:1009F0003E4403E0781CA84200DD7D1CB81B00F1DA
:100A0000010A4FF000472078000703D4AA4501DB14
:100A10004FF0FF3A0021B7F1004F0DF143088DF878
:100A2000431024D002202B23002F01DA7F422D23F4
:100A30000A21021EA0F1010000DC5FB197FBF1FC6E
:100A400097FBF1F201FB1C7C17460CF1300C08F807
:100A500001CDEEE7A8F1010003702188090501D559
:100A6000452100E06521A0F1010800F8011C09986A
:100A70000FA9A1EB0807FF1D00B10120411901EBEF
:100A8000EA70A1693844081A401EA0612078C006A7
:100A900002D42046AFF30080099828B1D4E901219F
:100AA0009047206A401C20622078C00622D520464C
:100AB000AFF300801EE0002E04DBB34502DD01A889
:100AC000805D00E03020D4E901219047206A401C7D
:100AD0002062761CAAF101005FEA000A0AD100F048
:100AE0003FF8C0680168405CD4E901219047206A62
:100AF000401C2062281EA5F10105DCDC07E0D4E9DA
:100B0000012118F8010B9047206A401C2062381E12
:100B1000A7F10107F3DC2046AFF30080032011B0FA
:100B200041E6000001694A1C02610878704700B57F
:100B30008FB0CDE901310021059105497944CDE916
:100B4000031011466846FFF767FC0FB000BD0000B8
:100B5000E5FFFFFF0A6802F8010B0A60704700001A
:100B6000004870474007002030B5B0F10A024FEA54
:100B7000900E71F100034EEA817EB0EB0E0061EB46
:100B800091014FEA101E4EEA017E10EB0E0041EB80
:100B900011114FEA102E4EEA016E10EB0E0041EBE0
:100BA00011214FEA104E4EEA014E10EB0E0041EBC0
:100BB0001141401841F100014FEAD00040EA417074
:100BC0004FEAD10110EB80054FEA810444EA9074AA
:100BD00044EB01046D1944EB0404521BA3414FF094
:100BE000000348BF0A3200D530BD401C41F100016E
:100BF00030BD00002DE9F0411F4604460326016880
:100C0000072A01F4006004DB08B116A505E016A56B
:100C100003E008B115A500E015A521F01000206043
:100C2000A069C01EA0610FB1401EA0612046AFF3B5
:100C300000804FB1D4E9012138469047206A401C1A
:100C40002062C01C206206E0206AFAE7D4E9012194
:100C500015F8010B9047761EF8D22046AFF30080BE
:100C6000BDE8F0814E414E006E616E00494E460077
:100C7000696E66002DE9F047814616468AB0354810
:100C800078440DC88DE80D0032487844801C03ACD0
:100C90000DC884E80D0041F69B300844372190FBD5
:100CA000F1F290FBF1F5A5F1800501FB12041B3C6C
:100CB00002D56442012000E00020DFF898A08046C1
:100CC0000027FA44AAF1BE0A0EE0E0070AD0324635
:100CD000684607EB470101230AEB810100F046FB60
:100CE0008DE8070064107F1C002CEED1194F7F4463
:100CF000AE3F19E0E80715D007EB04100DF1180A14
:100D000090E80E008AE80E00C068F04201D1981900
:100D100008903246012306A903A800F027FB03AB85
:100D200083E807006D10641C002DE3D14FF0010330
:100D300032466946B8F1000F03A802D000F001FB6B
:100D400001E000F013FBC9E90001C9F808200AB06E
:100D5000BDE8F087D04F0000004870472007002012
:100D60007546FFF7F9FFAE4605006946534620F089
:100D70000700854618B020B5FFF774FABDE820409B
:100D80004FF000064FF000074FF000084FF0000B47
:100D900021F00701AC46ACE8C009ACE8C009ACE8FA
:100DA000C009ACE8C0098D46704710B50446AFF3E2
:100DB00000802046BDE81040FFF73FBA4FF0013CED
:100DC00050F8042B51F8043B9A4221D1A2EB0C03BA
:100DD000934313EACC1317D150F8042B51F8043B7A
:100DE0009A4215D1A2EB0C03934313EACC130BD117
:100DF00050F8042B51F8043B9A4209D1A2EB0C03A2
:100E0000934313EACC13DBD04FF00000704700BFD0
:100E1000D01A01BAB1FA81F101F0180122FA01F0F9
:100E2000CB40C1F12001DBB2C0B2C01A2CFA01F3F1
:100E3000D11A914311EAC311E6D170470149182034
:100E4000ABBEFEE72600020070475FEA400C08BF19
:100E500091F0000F4FEA8C234FEAC12243EA51512F
:100E60004FEA1C5018BF00F5F0404FEA300018BFA1
:100E700041F000415FEA6C5C00F02980BCF1FF3F6B
:100E800008BF40F080407047130C06BF12044FF0BB
:100E9000100C4FF0000C130E04BF12020CF1080CE2
:100EA000130F04BF12010CF1040C930F04BF920046
:100EB0000CF1020CD30F04BF52000CF1010C1146CF
:100EC0004FF00002A0F11F00A0EB0C00704711F0E2
:100ED000004F08BF704731F000413FF4D5AF0B0C15
:100EE00006BF09044FF0100C4FF0000C0B0E04BFAE
:100EF00009020CF1080C0B0F04BF09010CF1040CE2
:100F00008B0F04BF89000CF1020CCB0F04BF49000A
:100F10000CF1010CCCF12003A0EB0C0022FA03F33E
:100F200002FA0CF241EA030100F10100704720F0DF
:100F30007F4C80EA030023F07F47ACEB070303F507
:100F40007C5300F0004003F1FF032DE980494FEA94
:100F5000154B09B44FEA144325EA0B4E24EA034823
:100F60000FF2042606EB132749083E785FEA3202A7
:100F700003FB0667C7F5000707FB06F64FEA543781
:100F80004FEAD64606F1020607FB066CCCF1005C80
:100F90004FEA1C472CEA074C07FB06F40CFB06F54E
:100FA00004EB15464FEA961634BF00204FF0004080
:100FB0004FEAD13706FB07FC4FEA1C4C0CFB0BF742
:100FC000D21B03FB0CF761EB07010CFB0EF7B0EB38
:100FD000074072EB17420CFB08F734BFA2EB074245
:100FE000B2EB074261EB17414FEA0C444FEA91071D
:100FF00006FB07FC4FEA1C4C0CFB0BF7B0EBC740A1
:1010000072EB573203FB0CF734BFA2EBC742B2EBD3
:10101000C74261EB57310CFB0EF7B0EBC70072EB28
:1010200057720CFB08F734BFA2EBC702B2EBC70242
:1010300061EB5771039F4FEA816141EA921104EB22
:10104000CC044FEAD1374FEA826206FB07FC42EA42
:1010500090124FEA80604FEA1C4C0CFB0BF7D21B3E
:1010600003FB0CF761EB07010CFB0EF7B0EB07403D
:1010700072EB17420CFB08F734BFA2EB0742B2EB4E
:10108000074261EB17414FEA8C554FEA910704EB99
:101090009C2406FB07FC4FEA1C4C0CFB0BF7B0EB47
:1010A000C74072EB573203FB0CF734BFA2EBC742C9
:1010B000B2EBC74261EB57310CFB0EF7B0EBC70048
:1010C00072EB57720CFB08F734BFA2EBC702B2EB0E
:1010D000C70261EB577115EB4C254FEA816141EA7C
:1010E00092114FEA82624FEAD13742EA901206FB30
:1010F00007FC44F100044FEA80604FEA1C4C0CFBF3
:101100000BF7D21B03FB0CF761EB07010CFB0EF78F
:10111000B0EB074072EB17420CFB08F734BFA2EBB1
:101120000742B2EB074261EB174115EB1C154FEA82
:10113000813141EA92414FEA823242EA90424FEADB
:1011400080304FEA0C7644F1000448EA03434EEA4B
:101150000B484FF0000EB2EB080C71EB030724BFF5
:10116000624639464EEB0E0E4FF0000B001852410E
:1011700049414BEB0B0BB2EB080C71EB03077BF116
:10118000000B24BF624639464EEB0E0E4FF0000BAB
:101190000018524149414BEB0B0BB2EB080C71EBC1
:1011A00003077BF1000B24BF624639464EEB0E0E5F
:1011B00051EA020718BF46F0010616EB0E7655F10C
:1011C000000254F1000103D5BDE88901BDE80088A3
:1011D000BDE88901BDE80048B619524141EB010163
:1011E000A3F10103704780807F7E7D7C7B7A7978D4
:1011F000777676757473727171706F6E6E6D6C6CDC
:101200006B6A6A696868676666656464636362617D
:101210006160605F5F5E5E5D5D5C5C5B5B5A5A59FE
:10122000595858575756565555555454535352526A
:101230005251515050504F4F4F4E4E4D4D4D4C4CC2
:101240004C4B4B4B4A4A4A4949494848484747470B
:101250004746464645454544444444434343434248
:10126000424242414141002B9C4630D477002BD072
:101270001CB54FEA370703B44FF010004FF01001D0
:10128000BAF1000F06D0BCF1000FDCBF40F008003F
:1012900040F008014FF000000FBCBDE810400BF11A
:1012A000010BBBF1010F08BF5FEA170722BF12F164
:1012B000010211F101014FF0004143F1000300F080
:1012C000004043EA00007047F9D35708D0E746EAE8
:1012D000064613F1400F4FEA16461FDD13F1200FAB
:1012E000DFBF16430A46002120335B42BED0C3F164
:1012F000200746EA064602FA07F74FEA164646EA8C
:101300000706C3F1200722FA03F201FA07F721FAD0
:1013100003F14FF0000342EA0702A7E746EA02069C
:1013200046EA06464FEA164646EA0106BCBF46EACA
:101330000646360C4FF000034FF000024FF000015C
:1013400094E72DE9804C9A46934670B491E83800B2
:1013500007C831EA400C48BF34EA430C03D5FFF715
:10136000E6FDFFF780FFF0BCBDE8008C2DE9804C66
:101370009A46934670B491E8380007C810F0804F41
:1013800008BF13F0804F03D100F005F8FFF76BFFA3
:10139000F0BCBDE8008C20F07F4780EA030023F01A
:1013A0007F4C07EB0C03A3F57C5300F00040A3F146
:1013B000FE0392F0000F00F0B38095F0000F00F0F4
:1013C00077802DE901494FEA11404FEA144621EA9E
:1013D000004800FB06FC24EA064708FB06F607FB6C
:1013E00008F800FB07F718EB06484CEB164C4FEAE1
:1013F000124B18EB07484FEA15464CEB174022EA10
:101400000B4E0BFB06FC25EA06470EFB06F607FB18
:101410000EFE0BFB07F71EEB064E4CEB164C4FF087
:1014200000061EEB074E4CEB174B18EB0B0840F178
:10143000000018EB0E0B58EB000840F100008F1A6B
:101440004FF000013CBFC943661B14BFB5EB040C51
:1014500000213CBFC943F61B4FEA17444EEA8E0EEB
:1014600027EA04454FEA1C4704FB07622CEA074CB5
:1014700005FB07F70CFB05F604FB0CFC16EB074617
:1014800042EB174216EB0C4642EB1C421BEB0606E6
:1014900058EB0202414146EA9E0601D5BDE80189AA
:1014A000B619524141EB0101A3F10103BDE80189E5
:1014B0004FEA14454FEA114724EA054621EA074C52
:1014C00005FB07F406FB07F70CFB06F105FB0CFC1C
:1014D00011EB074144EB17444FEA124711EB0C4163
:1014E00044EB1C4422EA074C05FB07F206FB07F716
:1014F0000CFB06F605FB0CFC16EB074642EB17420D
:1015000016EB0C4642EB1C456A1854F1000148BF2B
:101510007047B619524141EB0101A3F10103704735
:1015200095F0000F37D04FEA11424FEA144721EAF5
:10153000024624EA074C02FB07F106FB07F70CFB07
:1015400006F402FB0CFC14EB074441EB17414FEA95
:10155000154714EB0C4441EB1C4125EA074C02FBF8
:1015600007F506FB07F70CFB06F602FB0CFC16EB77
:10157000074645EB174516EB0C4645EB1C42121986
:1015800051F1000148BF7047B619524141EB0101CA
:10159000A3F1010370474FEA14454FEA114724EACB
:1015A000054621EA074C05FB07F106FB07F70CFB94
:1015B00006F24FF0000605FB0CFC12EB074241EB74
:1015C000174112EB0C4251EB1C4148BF7047921877
:1015D00041EB0101A3F10103704710B50146806B97
:1015E000026C12F0500F05D0026CD20626D500F026
:1015F00011FA10BD016C41F40071016401688A6840
:1016000012F0405F17D1027EAAB9CA6A12F4700FB5
:1016100002D08A6852050ED44A6822F020024A603D
:10162000016C21F480710164016CC90403D4016C64
:1016300041F00101016400F0EBF910BD806BC26C58
:10164000BDE810400846104710B5806B402101648A
:10165000416C41F00401416400F0DCF910BD10B5AB
:10166000806B00F0D6F910BD464910B54A6822F4E7
:1016700040324A604A6843681A434A6001684A68CF
:1016800022F480724A6001684A68036942EA0322D0
:101690004A6001684A6822F040724A6001684A68FC
:1016A00083681A434A6001688A6822F400628A608B
:1016B00001688A68C3681A438A60816A6FF0706241
:1016C000D14201688A6822F070628A6001688A6883
:1016D0000CD0836A1A438A6001688A6822F04052FB
:1016E0008A6001688A68C36A1A4301E022F04052A6
:1016F0008A6001688A6822F002028A6001688A684A
:10170000037E42EA43028A6090F8201000290168B3
:101710004A680FD042F400624A6001684A6822F4C5
:1017200060424A6001684A68174C436A04EB4333DD
:101730001A4301E022F400624A600168CA6A22F496
:101740007002CA620168CA6A838B104C04EB0353AF
:101750001A43CA6201688A6822F400728A600168CA
:101760008A6890F8303042EA43228A6001688A68C9
:1017700022F480628A6001688A68406942EA8020B7
:10178000886010BD0023014000E0FFFF0000F0FF73
:10179000FEE70000014800F0DDBA0000A4020020CE
:1017A00001681823CAB2103AB2FBF3F2054B6FF38B
:1017B0000901032A9B5CC36500D9091D81650846A0
:1017C00070470000B65B000810B5014600208B6929
:1017D0008A6A4FF0C07453B1B3F5005F15D072B18F
:1017E000012A0CD0022A0AD0032A09D104E01AB136
:1017F000012A06D0022A03D1C96AC90100D50120F5
:1018000010BDC96AA142FAD010BD002AF7D0012A42
:10181000F2D0022AF3D0032AF3D010BD30B5046809
:10182000256825F480252560046863608368402B63
:10183000036803D099600068C26030BD9A60006898
:10184000C16030BD064A10B553680649064C0968A8
:10185000B1FBF4F141435068C01A8842FBD310BD7C
:10186000001000E07400002040420F00074A10B54D
:10187000536807494FF47A740968B1FBF4F14143A6
:101880005068C01A8842FBD310BD0000001000E071
:101890007400002007480168C9010AD4016841F0BA
:1018A00080710160044800214160016841F001013C
:1018B00001607047FCED00E0001000E0704772B678
:1018C000FEE7000078B50024009490F83C20012A3F
:1018D00019D0012280F83C200A6807230568092AEC
:1018E00013D9EE680A3A02EB420293409E43EE603F
:1018F0000B788A680A3B03EB43039A400368DD6870
:101900002A43DA6010E0022078BD2E6902EB420221
:1019100093409E432E610B788A6803EB43039A4001
:1019200003681D692A431A614A681F23072A13D2D4
:1019300005686E6B521E02EB820293409E436E63FB
:101940000B790A885B1E92B203EB83039A4003680B
:101950005D6B2A435A6327E005680D2A12D22E6B6D
:10196000D21F02EB820293409E432E630B790A88BA
:10197000DB1F92B203EB83039A4003681D6B2A437B
:101980001A6311E0EE6A0D3A02EB820293409E4325
:10199000EE620B790A880D3B92B203EB83039A4007
:1019A0000368DD6A2A43DA62164B0568144A9D42D1
:1019B00006D10D68122D03D1556845F48005556098
:1019C00005689D4218D10B68102B01D0112B13D143
:1019D000536843F400035360096810290CD10A4985
:1019E0000A4A0968B1FBF2F101EB8101490000E00C
:1019F000491E00910029FBD180F83C40002078BDB1
:101A000000230140002001407400002040420F00EC
:101A100070477047704770B504004FF0000503D061
:101A2000206C002610B107E0012070BD204600F0B8
:101A30001DF8666484F83C60206CC00610D4206CED
:101A400020F4885040F0020020642046FFF70CFE8E
:101A50006664206C20F0020040F00100206400E089
:101A6000012584F83C60284670BD000070B586B042
:101A7000064614216846FEF797FD2C4930688842D7
:101A800051D12B480025016841F480710160006844
:101A9000274900F4807014390590086840F004006C
:101AA0000860086800F004000590086840F0010034
:101AB0000860086800F001000590086840F0020026
:101AC00008600868032400F0020005903F208DE8BC
:101AD00031006946174800F0C1FAFF208DE8310057
:101AE0006946154800F0BAFA009469461348CDE9F2
:101AF000014500F0B3FA134C1148C4E90005001584
:101B0000A560C4E90350800060618000A06180117D
:101B1000C4E907052046656200F0ECF908B1FFF75B
:101B2000CEFEB463A66306B070BD00000020014085
:101B30004438024000080240000002400004024015
:101B400010640240A4020020F8B5044600200E46AE
:101B5000009094F83C10012907D0012184F83C1032
:101B600021688B68DB0702D011E00220F8BD8B688A
:101B700043F001038B604049404B0968B1FBF3F12E
:101B800001EB410100E0491E00910029FBD12168D1
:101B90008B68DB0503D58B6823F480738B60216829
:101BA0008B68DB075DD0236C40F20165AB4343F4E7
:101BB000807323644968490505D5216C21F40051DF
:101BC00041F480512164216CC90404D5616C21F079
:101BD0000601616400E0606484F83C00A16B294860
:101BE000274DC863A16B28480864A16B2748C864C7
:101BF00021686FF0220008602068416841F0806130
:101C000041602068816841F48071816021681346D9
:101C100032464C31A06B00F0D7F968681C49C00609
:101C2000206806D0884224D1816811F0405F13D02B
:101C30001FE08842F8D0174A904203D1D1F804231C
:101C4000D206F1D0144A904213D1D1F8041301F016
:101C50001F011029E8D30CE0816841F080418160C8
:101C600007E0206C40F010002064606C40F0010040
:101C700060640020F8BD00007400002040420F00A6
:101C800000230140DB1500085F1600084916000814
:101C90000020014000210140002201402DE9F041D7
:101CA0000446876D00F0E4FA064694F835000025F6
:101CB000022806D08020606584F834500120BDE8F9
:101CC000F0812068016821F01601016020684169F7
:101CD00021F080014161206C08B9A06C20B120681E
:101CE000016821F0080101602068016821F001010C
:101CF00001600CE000F0BCFA801B052807D9202009
:101D00006065032084F8350084F83450D7E72068F4
:101D10000068C007EED194F85C103F208840B8609E
:101D2000012084F8350084F834500020C7E790F88B
:101D30003510022903D0802141650120704705211B
:101D400080F835100068016821F001010160002071
:101D5000704700002DE9F84304464FF00009CDF824
:101D6000009063484FF41651A56D0068B0FBF1F781
:101D70002E6894F85C10082000FA01F131420FD06F
:101D800021680A6852070BD50A6822F004020A602B
:101D900094F85C108840A860606D40F001006065B8
:101DA00094F85C104FF0010808FA01F0304208D0B6
:101DB00021684969090604D5A860606D40F00200F9
:101DC000606594F85C1004208840304208D0216897
:101DD0000968890704D5A860606D40F0040060655B
:101DE00094F85C1010208840304218D021680968AF
:101DF000090714D5A86020680168490304D5006864
:101E0000000308D5A16C07E00168C90503D4016887
:101E100021F008010160216C09B12046884794F83F
:101E20005C1020208840304231D021680968C90602
:101E30002DD5A86094F8350005282068016806D0E3
:101E4000490347D5006800031DD4616C1CE021F0F4
:101E5000160101602068416921F080014161206C18
:101E600008B9A06C20B12068016821F00801016068
:101E700094F85C103F208840A86084F8358084F88E
:101E80003490216D1FE0E16B09B120468847606DF9
:101E900000282BD0606DC00714D0052084F83500D1
:101EA0002068016821F0010101600098401C009049
:101EB000B84203D820680068C007F6D184F835809E
:101EC00084F83490E16C002910D001B02046BDE8C0
:101ED000F04308470168C905D5D4016821F0100115
:101EE000016084F8358084F83490CCE7BDE8F8834D
:101EF000740000202DE9F041044600F0B9F90646CF
:101F00005CB1022084F83500002584F83450206844
:101F1000016821F0010101600DE00120BDE8F081C0
:101F200000F0A6F9801B052805D920206065032054
:101F300084F83500F2E720680068C007F0D1226815
:101F4000116820480140D4E901031843D4E903365D
:101F50003343184363691843A3691843E36918437B
:101F6000236A18430843616A042903D1D4E90B1397
:101F700019430843106020684069666A20F0070131
:101F800030460E43012704280CD1A06A0643E06ABC
:101F900040B12046FFF718FC20B14020606584F86E
:101FA0003570BAE7206846612046FFF7F9FB94F8E0
:101FB0005C203F2191408160656584F83570002088
:101FC000ACE700003F8010F02DE9F0410446866D3B
:101FD00090F83400002501280DD0012084F8340049
:101FE00094F835700020012F07D084F834000225C2
:101FF0002846BDE8F0810220FBE7022784F835700F
:1020000060652046FFF70AFC94F85C103F2088408A
:10201000B0602068016841F016010160206C20B1B9
:102020002068016841F0080101602068016841F002
:1020300001010160DCE7000070B5044600F018F90A
:102040000546601C02D004480078044400F010F9F2
:10205000401BA042FAD370BD680000202DE9F84F64
:10206000DFF8BCA1002201250AF1040B03264FF082
:102070000F090BF1040E00BF0B6805FA02F42340B0
:10208000A34270D10F7907F00307012F01D0022F6F
:1020900016D187684FEA420806FA08FC27EA0C07BF
:1020A000D1F80CC00CFA08FC4CEA070CC0F808C0C8
:1020B0004768A7430C79C4F3001494403C43446040
:1020C0000C79E443A4070AD0C4684FEA420C06FA2C
:1020D0000CF7BC438F6807FA0CF72743C7600C79ED
:1020E00004F00304022C12D1D40800EB840CDCF8B9
:1020F00020405707FF0E09FA07F824EA0804D1F830
:10210000108008FA07F848EA0408CCF82080046830
:102110004FEA420C06FA0CF7BC430F7907F00307AD
:1021200007FA0CF7274307604C6814F4403F70D05F
:102130003C4C276847F480472760246822F0030757
:1021400004F480440094384C07EB040CDCF8084895
:1021500097074FEA177809FA08F7BC43334FB8429C
:1021600002D1002724E054E0314FB84201D10127C9
:102170001EE0304FB84201D1022719E02E4FB8427D
:1021800001D1032714E02D4FB84201D104270FE0FD
:102190002B4FB84201D105270AE02A4FB84201D19E
:1021A000062705E0284FB84201D1072700E008279D
:1021B00007FA08F72743CCF80878DAF800405746C2
:1021C000D1F804C09C435FEACC3C00D51C433C6082
:1021D000DBF800405F46D1F804C09C435FEA8C3CCA
:1021E00000D51C433C60DEF800407746D1F804C0BF
:1021F0009C435FEACC2C00D51C433C60084F0C3755
:102200003C68D1F804C09C435FEA8C2C00D51C4389
:102210003C60521C102AFFF42FAFBDE8F88F00007D
:10222000003C0140443802400030014000000240C0
:102230000004024000080240000C0240001002406E
:102240000014024000180240001C024000690840CF
:1022500000D001207047426921EA02030A4043EAA4
:102260000241816170470AB1816170470904FBE74F
:1022700001488068704700006800002070B50400C5
:1022800025D094F83D00002520B984F83C50204624
:1022900000F0B8F8242084F83D002068016821F09F
:1022A000010101602068016841F40041016020687B
:1022B000016821F40041016000F00EFA4D4A6168A6
:1022C000914201D84C4900E04C49884201D201209A
:1022D00070BD4B492368B0FBF1F15E6826F03F0604
:1022E0000E435E606368934206D94FF49673594378
:1022F0004FF47A73B1FBF3F12368491C1E6A26F090
:102300003F06314319626168914210D84900401E6E
:10231000B0FBF1F2521CC2F30B02042A01D20420DA
:1023200022E0B0FBF1F0401CC0F30B001CE0A268FF
:10233000F2B301EBC10303EB0116431EB3FBF6F34B
:102340005B1C43F480431B0549D092B301EBC102EF
:1023500002EB0111401EB0FBF1F0401CC0F30B007A
:1023600040F4804040F400402168CA694CF6FF7395
:102370009A431043C861D4E90710014320680268FA
:1023800022F0C00211430160D4E903010143206837
:10239000826848F2FF339A4311438160D4E9050112
:1023A00008432168CA6822F0FF021043C86001E0B8
:1023B0000EE016E02068016841F00101016025642B
:1023C000202084F83D00256384F83E50002070BD35
:1023D00001EB4106431EB3FBF6F35B1CB3E70120A0
:1023E000C2E701EB4101401EB0FBF1F0401CC0F31D
:1023F0000B00B7E7A086010080841E0000093D00A5
:1024000040420F0010B586B0044614216846FEF71E
:10241000CBF814492068884221D113480021026872
:1024200042F002020260006800F0020005904FF4E2
:10243000406000901220CDE90101032003900420A8
:10244000049069460948FFF709FE07481030016803
:1024500041F480010160006800F48000059006B03E
:1024600010BD000000580040303802400004024017
:10247000024881680278114481607047680000203A
:102480000B4810B5016841F400710160016841F426
:1024900080610160016841F480710160032000F0F7
:1024A0006FF80F2000F006F800F024F8002010BDAF
:1024B000003C024070B50D4D04464FF47A71287807
:1024C000B1FBF0F00A490968B1FBF0F000F00CFB39
:1024D00048B9102C07D200222146501E00F030F8D7
:1024E00000206C6070BD012070BD000068000020FD
:1024F000740000200A4808B5016841F48041016079
:10250000006800F4804000900548001F016841F019
:1025100080510160006800F08050009008BD00000C
:1025200044380240002809DB00F01F0201219140DD
:102530004009800000F1E020C0F800117047000061
:10254000F0B40E4B1B680C46C3F30223C3F107051E
:10255000042D00D90425191D072901D2002300E00C
:10256000DB1E012606FA05F1491E214099409E40D6
:10257000761E16403143F0BC01F0D9B90CED00E0F5
:10258000064900F0070208684FF6FF03184040EACA
:102590000220034A10430860704700000CED00E081
:1025A0000000FA052DE9F0470E46050065D0DFF87A
:1025B0001481D8F80000F7B200F00700B04207D24B
:1025C00088F80070D8F8000000F00700B04254D13D
:1025D00028683D4C810712D5400703D5206840F498
:1025E000E05020602878000703D5206840F4604060
:1025F00020602068A96820F0F00008432060287857
:10260000C0072DD0304968680839012812D0022847
:1026100013D0032811D00968890700292DDA216811
:1026200021F0030101432160FFF722FE814641F2C0
:10263000883A0EE009688903EFE709688901ECE749
:10264000FFF716FEA0EB0901514502D90320BDE8B2
:10265000F0872068696800F00C00B0EB810FEFD1C3
:10266000D8F80010404601F00701B14207D90770C1
:10267000006800F00700B04201D00120E7E72878A9
:10268000400705D52068E96820F4E0500843206041
:102690002878000706D52068296920F4604040EAC0
:1026A000C100206000F038F82168084AC1F3031126
:1026B000515CC8400649086006480068FFF7FAFE0A
:1026C0000020C4E7003C024008380240BE5B00081E
:1026D000740000206C000020044805490068096867
:1026E000044AC1F38221515CC84070477400002045
:1026F00008380240CE5B00080448054900680968B4
:10270000044AC1F34231515CC84070477400002054
:1027100008380240CE5B0008154810B5006810F07C
:102720000C02144813D01449042A0FD0082A0ED1E1
:102730000F4C241F2268236802F03F025B0207D57A
:102740002068C0F38810A0FB010106E0084610BD18
:102750002168C1F38811A1FB00010023FDF794FD5E
:102760002168C1F30141491C4900B0FBF1F010BDE3
:10277000083802400024F40040787D012DE9F84F2C
:1027800004006ED02078DFF84C93C007A9F104054F
:102790004AD009F104000168C1F38101012908D080
:1027A0000068C0F3810002280AD1D9F80000400275
:1027B00006D52868800337D560680028E1D033E06B
:1027C0006068B0F5803F10D0B0F5A02F286810D019
:1027D00020F480302860286820F480202860606819
:1027E000A8B1FFF745FD06460DE0286840F48030AB
:1027F000F4E740F480202860F7E700BFFFF738FDDA
:10280000801B642873D828688003F7D50CE0FFF795
:102810002FFD064605E000BFFFF72AFD801B642858
:10282000F0D828688003F7D42078DFF8AC828007DE
:102830004FF0000A3ED5A748001D016811F00C0FAB
:1028400008D00068C0F3810002280BD1D9F800003D
:10285000400207D42868800716D5E068012800D117
:1028600012E033E1E068B8B10120C8F80000FFF7DA
:10287000FFFC064605E000BFFFF7FAFC801B0228BC
:10288000C0D828688007F7D52868216920F0F800AB
:1028900040EAC10028600DE0C8F800A0FFF7E8FC9E
:1028A000064604E0FFF7E4FC801B02281FD82868D6
:1028B0008007F7D42078000722D5864F87486169C2
:1028C000703771B101210160FFF7D2FC064604E0C8
:1028D000FFF7CEFC801B022809D838688007F7D59F
:1028E0000EE0C0F800A0FFF7C3FC064605E082E05A
:1028F000FFF7BEFC801B02287DD838688007F7D41C
:102900002078400768D5DFF8CCB100270BF13C0BED
:10291000DBF80000C0000BD4DBF8001041F0805160
:10292000CBF80010DBF80000012700F08050009089
:102930006B4E3068C00510D4306840F48070306051
:10294000FFF796FC009005E0FFF792FC0099401A13
:10295000022850D83068C005F6D55E4EA0686C36A7
:1029600001280FD00528306810D020F00100306019
:10297000306820F004003060A068B8B1FFF778FC40
:1029800000900FE0306840F00100F4E740F00400F0
:102990003060F7E7FFF76CFC0099411A41F288308C
:1029A000814266D830688007F4D50EE0FFF760FCFE
:1029B000009007E0FFF75CFC0099411A41F2883073
:1029C000814256D830688007F4D42FB1DBF800106C
:1029D00021F08051CBF80010A069C8B33D49091D12
:1029E0000968C1F3810102294AD00228504607D064
:1029F000C8F8600000E03CE0FFF73AFC04463BE02A
:102A00004746C8F86000FFF733FC064605E000BF04
:102A1000FFF72EFC801B02282BD828688001F7D4F2
:102A2000D4E907010843A16A2E4A490802EB014193
:102A3000626A41EA8211084394F82C1040EA01616D
:102A4000C9F8001001203866FFF712FC044606E0C2
:102A50003EE000BFFFF70CFC001B022809D82868E5
:102A60008001F7D534E000BFFFF702FC001B02280D
:102A700002D90320BDE8F88F28688001F4D427E04C
:102A80000128F7D0D9F80000E26900F480019142F2
:102A90001CD1226A00F03F01914217D147F6C07164
:102AA000626A0140B1EB821F10D1A26A4FF0FF337E
:102AB00000F4403103EB5202B1EB024F06D194F81F
:102AC0002C1000F07060B0EB016F01D00120D1E755
:102AD0000020CFE70438024000004742800E474202
:102AE000007000400000FFFF10B5401EB0F1807F75
:102AF00001D3012010BD4FF0E02460610F21601769
:102B000000F015FF0020A06107202061002010BD0B
:102B100070477047F8B5016804460868CA684B6991
:102B200010F00F0F4FF0000559D003F0010602F42A
:102B30009077374365D0C10705D0D10503D5216C07
:102B400041F001012164410705D5D90703D0216C6B
:102B500041F002012164810705D5D90703D0216C1A
:102B600041F004012164010707D502F0200131433F
:102B700003D0216C41F008012164216C00293AD076
:102B8000800604D5900602D5204600F09EFD206800
:102B90004069216CC0F38010090700D460B320465F
:102BA00000F06CFD20684069400621D52068143093
:102BB00050E8001F21F0400140E80012002AF5D142
:102BC000A06BA8B16C490165A06BFFF7B0F80028B5
:102BD00011D0A06B016D01B0BDE8F040084783063D
:102BE0000FD593060DD52046BDE8F84000F06DBD29
:102BF0002046FFF78EFFF8BD2046FFF78AFF2564C9
:102C0000F8BD266B2023012E79D1C60677D5D606CE
:102C100075D50868486800904869400640D5A16BA2
:102C2000086840680004000CEAD0A28D8242E7D90F
:102C3000E085C869B0F5807F2DD020680C3050E861
:102C4000001F21F4807140E80012002AF5D12068AD
:102C5000143050E8001F21F0010140E80012002A62
:102C6000F5D12068143050E8001F21F0400140E801
:102C70000012002AF5D184F83E30256320680C301C
:102C800050E8001F21F0100140E80012002AF5D1A1
:102C9000A06BFFF703F8A08DE18D401A81B229E007
:102CA000A08DE18D401A81B2E08D0028A8D00029C6
:102CB000A6D020680C3050E8002F22F4907240E833
:102CC0000026002EF5D12068143050E8002F22F0A5
:102CD000010240E80026002EF5D184F83E3025633D
:102CE00020680C3050E8002F22F0100240E800234A
:102CF000002BF5D12046FFF70BFFF8BDFFE70506D7
:102D00002BD5150629D594F83D002128F5D1A068CA
:102D1000B0F5805F01D12069B0B1206A411C216209
:102D2000216800784860E08C401E0004000CE084BC
:102D3000E3D12068C16821F08001C1602068C168CA
:102D400041F04001C160D8E7206A0088C0F3080064
:102D50004860206A801C2062E5E74006CDD5500619
:102D6000CBD5CA68204622F04002CA6084F83D30C4
:102D700000F0D8F8C1E700006D36000870B5040017
:102D800004D094F83D00002510B106E0012070BD8C
:102D900084F83C50204600F023F8242084F83D00BD
:102DA0002068C16821F40051C160204600F0EEFCAB
:102DB0002068016921F4904101612068416921F096
:102DC0002A0141612068C16841F40051C160256455
:102DD000202084F83D0084F83E00002070BD0000F3
:102DE00070B586B0044614216846FDF7DDFB2A481D
:102DF000284E256800242849143802220323B542AE
:102E000020D10D6845F010050D60096801F0100132
:102E10000591016841F0010101600068694600F018
:102E20000100059058028DE815000720CDE9033018
:102E30001A48FFF713F9002211462520FFF780FBFF
:102E4000252023E0164EB54222D10D6845F020051D
:102E50000D60096801F020010591016841F004014D
:102E600001600068694600F0040005904FF4E070CE
:102E70008DE815000820CDE903300A48FFF7EEF889
:102E8000002211464720FFF75BFB4720FFF74AFB74
:102E900006B070BD001001404438024000000240FE
:102EA000001401400008024090F83E30202B0ED163
:102EB00059B152B190F83C30012B08D0012380F871
:102EC0003C300023036300F0E7BC01207047022080
:102ED0007047000070B5104E314670784C883B2822
:102EE00004D00E490855641C748070BD002505E0AF
:102EF0000A4832213230FDF735FB6D1CA542F7DB65
:102F00000649224601F13200FDF775FB0449012014
:102F100008700020708070BD00000020400200207A
:102F2000630000207047FEE70449087820F00100A4
:102F3000087040F0080000F019B8000004000020FC
:102F40000449087840F00100087040F0080000F0E3
:102F50000DB800000400002010B5012000F006F8B4
:102F6000BDE8104040F6B830FEF76CBC10B5044622
:102F700000224FF480610648FFF775F9200900F040
:102F800009F804F00F00BDE8104000F003B800009D
:102F9000000C024070B504461D4D00074FF400417F
:102FA00001D5012200E000222846FFF75CF9600706
:102FB0004FF4804101D5012200E000222846FFF7AE
:102FC00052F9A0074FF4005101D5012200E0002280
:102FD0002846FFF748F9E0074FF4805101D001225D
:102FE00000E000222846FFF73EF90122D4022146E4
:102FF0002846FFF738F91420FEF724FC002221466A
:103000002846FFF730F9BDE870401420FEF71ABCDF
:10301000000C024008B509A212680092084AD37851
:103020008B4200D80021507191711DF801100844A5
:10303000C0B240F08000FFF799FF08BD0040145473
:103040000400002010B50446012291020548FFF754
:103050000AF92009FFF79EFF04F00F00BDE81040B9
:10306000FFF798BF000C02400449087840F00400C4
:10307000087040F00800FFF779BF0000040000204E
:1030800070B50D460646FEF705FC00F041F84AF61D
:10309000C870FEF7D7FB1D4C0020012DE57026718E
:1030A0006071A071607001D9082060700320FFF783
:1030B00071FF41F294152846FEF7C4FB0320FFF789
:1030C00069FF2846FEF7BEFB0320FFF763FF284693
:1030D000FEF7B8FB0220FFF75DFF6420FEF7B2FBAE
:1030E000607840F02000FFF741FF04202070FFF7D8
:1030F000BBFFFFF731FF0220A0700620FFF736FF6D
:103100002846BDE87040FEF79DBB0000040000208B
:1031100030B585B014216846FDF746FA4FF44C40AF
:10312000009001250024CDE9015469461748039415
:10313000FEF794FF4FF440500090CDE901546946EA
:1031400013480394FEF78AFF124C0022A90220467E
:10315000FFF789F80022E1142046FFF784F80022E7
:10316000A1142046FFF77FF8002269032046FFF7ED
:103170007AF80022A9032046FFF775F80022E90338
:103180002046FFF770F805B030BD00000004024093
:1031900000080240000C024070B51E4C0D4600268F
:1031A00060B32878002813D060792179884207D34A
:1031B0006671A1793046491CC9B2A171FFF72AFF97
:1031C00028780A2822D0FFF73DFF6079401C607103
:1031D00070BD60792179884207D36671A179304644
:1031E000491CC9B2A171FFF715FF28780A2809D038
:1031F000FFF728FF6079401C60716D1C287800285B
:10320000E7D170BDA079401CA071F6E7A079401C01
:10321000A07170BD0400002070B51546FFF7FAFEDE
:10322000134C16E060792179884207D30020607141
:10323000A179491CC9B2A171FFF7ECFE28780A28D0
:103240000BD00D280FD0FFF7FDFE6079401C607198
:103250006D1C28780028E5D170BDA079401CC1B252
:10326000A171607901E0A1790020FFF7D3FEEFE7BB
:10327000040000202DE9FF5F0025674800950195B7
:10328000029564490395016001244FF440310461C3
:10329000C0E90115047680F820506049C0E90A159C
:1032A0001021C560C16180F830404461FEF7B3FB76
:1032B00008B172B6FEE74FF00A080720CDF800808B
:1032C000CDE9014069465448FEF7FCFA08B172B6F0
:1032D000FEE70B200226CDE9000669464E48FEF7C0
:1032E000F1FA08B172B6FEE70C274FF00309CDE9F9
:1032F000007969464848FEF7E5FA08B172B6FEE77C
:103300004FF00D0A4FF0040B69464348CDE900AB7E
:10331000FEF7D8FA08B172B6FEE70520CDE90050F5
:1033200069463D48FEF7CEFA08B172B6FEE70620C0
:10333000CDE9004069463848FEF7C4FA08B172B6D4
:10334000FEE70724CDE9006469463348FEF7BAFA80
:1033500008B172B6FEE70826CDE9009669462E4808
:10336000FEF7B0FA08B172B6FEE74FF00909CDE9F1
:1033700000B969462848FEF7A5FA08B172B6FEE71B
:103380000520CDE9000869462348FEF79BFA08B1FD
:1033900072B6FEE7062000900B20019069461E4899
:1033A000FEF790FA08B172B6FEE7CDE9004769462C
:1033B0001948FEF787FA08B172B6FEE70E24CDE988
:1033C000004A69461448FEF77DFA08B172B6FEE776
:1033D0000F27CDE9007469460F48FEF773FA08B16C
:1033E00072B6FEE70096CDE9017569460A48FEF718
:1033F00069FA08B172B6FEE71020CDE9009069467F
:103400000548FEF75FFA002801D072B6FEE7BDE876
:10341000FF9F000000200140780000200100000F05
:103420002DE9F04F87B014216846FDF7BDF85948E3
:103430000024016841F010010160016801F01001F1
:103440000591016841F004010160016801F0040187
:103450000591016841F080010160016801F080017F
:103460000591016841F001010160016801F001016D
:103470000591016841F002010160016801F002015B
:103480000591016841F0080101600068DFF808A1BA
:1034900000F008004FF6BF750590002229465046FF
:1034A000FEF7E1FEDFF8F4B04FF40C46002231469F
:1034B0005846FEF7D8FE002201213948FEF7D3FE18
:1034C0004FF2D437002239463648FEF7CCFE4FF48F
:1034D0007F48002241463448FEF7C5FE4FF40149BB
:1034E000002249463148FEF7BEFE00950125CDE990
:1034F0000154694650460394FEF7B0FD4020CDE9E3
:103500000004694650460294FEF7A8FD0096CDE9F6
:103510000154694658460394FEF7A0FD0095CDE995
:10352000015469461E480394FEF798FD0097CDE9C3
:10353000015469461B480394FEF790FDCDF80080C6
:10354000CDE90154694618480394FEF787FD4FF40E
:1035500090508DE8310069465846FEF77FFDCDF862
:103560000090CDE90154694610480394FEF776FDBA
:10357000FE208DE8310069460B48FEF76FFD2820DC
:103580008DE8310069460748FEF768FD07B0BDE8E1
:10359000F08F000030380240001002400008024066
:1035A000001C024000040240000C024000000240E7
:1035B000FEE7FEE77047704710B5FEF759FFBDE81C
:1035C000104000F0A9BB000030B593B03021684630
:1035D000FCF7EAFF14210CA8FCF7E6FF1D480025C4
:1035E000016841F080510160006800F08050119046
:1035F0001948016841F4804101600068022400F428
:1036000080401190012003901020049000940694B3
:103610000820CDE90750A820CDE9090404200B902B
:103620006846FFF7ABF808B172B6FEE70CA90F20A9
:1036300081E831004FF4A0500F904FF4805010906B
:1036400005210CA8FEF7AEFF002801D072B6FEE7F8
:1036500013B030BD4038024000700040024801689D
:1036600041F470010160704788ED00E010B5806B97
:103670000021C185C184FFF74CFA10BD01680C31EF
:1036800051E8002F22F4907241E80023002BF5D17D
:103690000168143151E8002F22F0010241E80023B3
:1036A000002BF5D1016B012909D101680C3151E8DA
:1036B000002F22F0100241E80023002BF5D1202139
:1036C00080F83E1000210163704708B590F83E1065
:1036D000222901D0022008BD82684FF480539A420B
:1036E00001D1016921B1816A9A421BD04AB10AE035
:1036F0000268816A5268C2F308020A80816A891CE2
:1037000008E0026972B10268526802F07F020A7032
:10371000816A491C8162C18D491E0904090CC18559
:1037200003D019E002685268F1E70168CA6822F024
:103730002002CA600168CA6822F48072CA60016807
:103740004A6922F001024A61202180F83E10016B93
:10375000012903D0FFF7BEFB002008BD0021016353
:1037600001680C3151E8002F22F0100241E80023DB
:10377000002BF5D101680A68D20602D50A684968AB
:103780000091818DFFF7C4F9E6E7000070B50446AB
:1037900000680169E26821F4405111430161216927
:1037A000A068E26908436169114308432168CA6857
:1037B00049F20C639A430243CA6020684169A269D6
:1037C00021F440711143416131492068884202D09F
:1037D0003049884202D1FEF78FFF01E0FEF77CFFFF
:1037E000E2690023192164253226B2F5004F626890
:1037F00028D0A0FB0101930F9200FCF745FD014684
:10380000B0FBF5F06FF01802504301EB800006EBBF
:103810000010B0FBF5F000F0F002B1FBF5F002EBA8
:103820000012B1FBF5F06FF01803584301EB800074
:1038300006EB0010B0FBF5F000F00F00216810441B
:10384000886070BDA0FB010192185B41FCF71CFD74
:103850000146B0FBF5F00201B1FBF5F06FF0180383
:10386000584301EB800006EBC000B0FBF5F000F020
:10387000F80002EB4002B1FBF5F0584301EB800089
:1038800006EBC000B0FBF5F000F00700D6E7000043
:10389000001001400014014081628285C285002130
:1038A0000164222280F83E2080F83C100168CA683A
:1038B00042F48072CA6001684A6942F001024A61BA
:1038C0000068C16841F02001C1600020704700001D
:1038D0000148FFF71FB900001401002010B505488A
:1038E000FFF718F9BDE81040012203490148FFF72E
:1038F000DBBA00005801002001000020FEE703B4FD
:1039000001984100009850EAC12018BF04204A0DD8
:1039100018BF40F0010040F2FF72B2EB515F08BFE8
:1039200040F00200012808BF052002B070470907D7
:10393000090E002804DB00F1E02080F80014704735
:1039400000F00F0000F1E02080F8141D70473038BF
:103950000A2801D2012070470020704710B5144694
:10396000FEF774FC002803D12046FEF765FB00201B
:1039700010BD000010B504464FF480710348FEF7F7
:103980006AFC2046BDE81040FDF770BF0000024011
:1039900010B5044600224FF480710448FEF763FC22
:1039A0002046BDE81040FDF761BF00000000024066
:1039B00010B50446012211020348FEF754FC2046CC
:1039C000BDE81040FDF752BF0000024070B5734DD6
:1039D000714C95ED020AD4ED000AB8EEC00AF4EE7F
:1039E000C00AF1EE10FA02DD002000F0D7F995EDE3
:1039F000020AD4ED010AB8EEC00AF4EEC00AF1EEF4
:103A000010FA02DD012000F0C9F995ED020AD4EDAB
:103A1000020AB8EEC00AF4EEC00AF1EE10FA02DDB6
:103A2000022000F0BBF995ED020AD4ED030AB8EECE
:103A3000C00AF4EEC00AF1EE10FA02DD032000F035
:103A4000ADF995ED020AD4ED040AB8EEC00AF4EE21
:103A5000C00AF1EE10FA02DD042000F09FF995EDA6
:103A6000020AD4ED050AB8EEC00AF4EEC00AF1EE7F
:103A700010FA02DD052000F091F995ED020AD4ED6F
:103A8000060AB8EEC00AF4EEC00AF1EE10FA02DD42
:103A9000062000F083F995ED020AD4ED070AB8EE8E
:103AA000C00AF4EEC00AF1EE10FA02DD072000F0C1
:103AB00075F995ED020AD4ED080AB8EEC00AF4EEE5
:103AC000C00AF1EE10FA02DD082000F067F995ED6A
:103AD000020AD4ED090AB8EEC00AF4EEC00AF1EE0B
:103AE00010FA02DD092000F059F995ED020AD4ED33
:103AF0000A0AB8EEC00AF4EEC00AF1EE10FA02DDCE
:103B00000A2000F04BF995ED020AD4ED0B0AB8EE4D
:103B1000C00AF4EEC00AF1EE10FA02DD0B2000F04C
:103B20003DF995ED020AD4ED0C0AB8EEC00AF4EEA8
:103B3000C00AF1EE10FA02DD0C2000F02FF995ED2D
:103B4000020AD4ED0D0AB8EEC00AF4EEC00AF1EE96
:103B500010FA02DD0D2000F021F995ED020AD4EDF6
:103B60000E0AB8EEC00AF4EEC00AF1EE10FA02DD59
:103B70000E2000F013F995ED020AD4ED0F0AB8EE0D
:103B8000C00AF4EEC00AF1EE10FA04DDBDE87040A0
:103B90000F2000F003B970BDA80300200C00002026
:103BA0004C4910B5D1ED000A08464FF47A7490EDF7
:103BB000010AF5EEC00AF1EE10FA68D8B5EEC00AB7
:103BC000F1EE10FA63D891ED021AB5EEC01AF1EEDB
:103BD00010FA5CD891ED031AB5EEC01AF1EE10FAA6
:103BE00055D891ED041AB5EEC01AF1EE10FA4ED880
:103BF00091ED051AB5EEC01AF1EE10FA47D891ED25
:103C0000061AB5EEC01AF1EE10FA40D891ED071A77
:103C1000B5EEC01AF1EE10FA39D891ED081AB5EEEA
:103C2000C01AF1EE10FA32D891ED091AB5EEC01AA9
:103C3000F1EE10FA2BD891ED0A1AB5EEC01AF1EE9A
:103C400010FA24D891ED0B1AB5EEC01AF1EE10FA65
:103C50001DD891ED0C1AB5EEC01AF1EE10FA16D877
:103C600091ED0D1AB5EEC01AF1EE10FA0FD891EDE4
:103C70000E1AB5EEC01AF1EE10FA08D891ED0F1A2F
:103C8000B5EEC01AF1EE10FA01D813A216E01148F1
:103C9000403090ED001AF4EEC10AF1EE10FA03D2B2
:103CA000FFF75AF912A209E0D0ED010AB4EEE00ADA
:103CB000F1EE10FA0DD2FFF74FF912A20121002008
:103CC000FFF7AAFA2046FFF755FEBDE81040FFF7C0
:103CD00043B910BDA803002053454E534F52203D19
:103CE0003E53484F525420434952435549540000D3
:103CF0004F50454E20434952435549542053454760
:103D0000203100004F50454E2043495243554954FD
:103D1000205345472032000030B5154C154B9FED20
:103D2000162ADFED162A164D002200BF54F8220095
:103D300000EE100A1046B8EE400A00F0FDF883EDE0
:103D4000040AD3ED010A05EB8200521C60EE800AE2
:103D5000102A80EE820A83ED030A93ED001AC0EE6A
:103D6000010A20EEA20A80ED000ADFDB30BD000070
:103D7000000200200C00002000F07F4500007A4483
:103D8000A803002010B501F02BFC01F0FDFB00F0B2
:103D90002FFEBDE8104001F07DB900002DE9F05F75
:103DA000624B00287CD0624C01287AD09D150228F5
:103DB00078D05E15032876D0042875D0052874D0F5
:103DC0009F14062872D04FF4005807286FD04FF484
:103DD000804908286CD04FF4004A092869D00A2885
:103DE00068D00B2867D00C2870D00D286FD0DFF872
:103DF00044B10E286CD00F284FF0010269D0042185
:103E00001846FEF730FA012280212046FEF72BFAF1
:103E1000012211022046FEF726FA01225102204615
:103E2000FEF721FA012291022046FEF71CFA012238
:103E3000D1022046FEF717FA012239462046FEF746
:103E400012FA0122444641463948FEF70CFA012293
:103E50004D4649463648FEF706FA01225646514677
:103E60003348FEF700FA012239463048FEF7FBF9E5
:103E7000012221462D48FEF7F6F9012229462B485A
:103E8000FEF7F1F9012231462848FEF7ECF901224C
:103E900011025C465846FEF7E6F90122510213E092
:103EA0000AE00CE00EE015E017E019E01BE01DE071
:103EB0001FE021E023E026E00122042121E001228D
:103EC000802101E00122294620462AE01EE020E070
:103ED00022E024E001223146F6E701229102F3E7D5
:103EE0000122D102F0E701223946EDE701224146E5
:103EF000EAE701224946E7E701225146E4E70122C9
:103F0000394618460DE001224146FAE701224946AA
:103F1000F7E701225146F4E70122294600E0314645
:103F20005846BDE8F05FFEF79EB90000000402406D
:103F300000100240000C02400A49B0EE401A01EBAA
:103F400080009FED070AD0ED001ADFED040A21EE94
:103F5000800A00EE810A80ED000A7047C520303EDD
:103F6000CFF7533F6803002008B5FEF789FAFFF743
:103F70002BFBFFF755FA5D485B49002401605C4963
:103F8000C0E901144FF48041C0E9034144618461F8
:103F9000C4610462FEF772F908B172B6FEE75348D5
:103FA000544954304FF4E1360160C0E901640C27F4
:103FB000C460C0E904478461C461FEF7DFFE08B154
:103FC00072B6FEE7494D4C4898352860C5E9016452
:103FD000EC60C5E90447AC612846EC61FEF7CEFE13
:103FE00008B172B6FEE74548016841F480010160FE
:103FF0000068002200F48000009011463820FEF78F
:104000009FFA3820FEF78EFAFFF734F93C49102268
:10401000A1F5C470FDF798FD2868C16841F0200142
:10402000C16002212820FFF72BF800210846FEF787
:10403000F1FF002133A20846FFF7EEF836A2012176
:104040000020FFF7E9F84FF47A70FDF7F5FFFEF76F
:1040500083FF364C364D2078A8B12868012836D029
:104060000228F8D133A200211220FFF7D5F833A29D
:1040700001210C20FFF7D0F800F064FAFFF790FD63
:10408000FFF7A4FCE7E701F075F900B1012020700B
:10409000FEF762FF20780028F5D02E482EA12A686E
:1040A000036817486438FCF767F900212FA2084617
:1040B000FFF7B2F8124A0121643A0020FFF7ACF88A
:1040C0004FF4FA60FDF7B8FFFEF746FFC3E719A209
:1040D00000211220FFF7A0F818A201210C20FFF701
:1040E0009BF800F0ABFAC9E700580040C000002080
:1040F000A086010000100140001401403038024049
:10410000000200203D3D3D3D3E204D5554414E5462
:10411000203C3D3D3D3D00003D3D3E204649524551
:1041200020414C41524D203C3D3D0000000000200C
:10413000440000204D5554414E5400003330204E71
:104140004F5620323032312C2030302E3130205733
:1041500049420000380000204D4F4445202564208E
:104160007C7C20494E542025640000005359535450
:10417000454D2052554E4E494E47000070B5FEF752
:10418000EBFE4FF4FA661B4DB41000211AA208464C
:10419000FFF742F823A201210020FFF73DF8224655
:1041A00008212846FFF7DAFB58B12246202128468D
:1041B000FFF7D4FB0028E8D1FEF7CEFE002420460E
:1041C00070BDFEF7C9FE00211FA20846FFF724F8C4
:1041D00024A201210020FFF71FF83046FDF72CFF35
:1041E000FEF7BAFE00F0CCFF0028CED00124FEF787
:1041F000B3FEE4E7000C02403D3D3D3D3D3D3D3D0D
:104200003D3D3E204D454E55205343414E205345A4
:104210004E534F52203C3D3D3D3D3D3D3D3D3D3D9E
:10422000000000005072657373204F4B20544F20E4
:104230005343414E206F72204241434B20544F2044
:1042400043414E43454C000053656E736F722073BB
:1042500063616E2069732070726F63657373656448
:1042600000000000506C6561736520776169742EF1
:104270002E2E00002DE9F0410024FEF76DFE0021F6
:1042800027A20846FEF7C8FF2B4D2C4FA0464FF43F
:10429000FA76324610213846FFF760FB90B132467D
:1042A00040213846FFF75AFB88B13246082138468C
:1042B000FFF754FB80B1324620213846FFF74EFB12
:1042C00070B11FE0641C022C1CDD022426E0641E79
:1042D000002C17DC01241FE0012C08D0022C0BD08D
:1042E000FEF73AFE0020C5F82480BDE8F081FEF715
:1042F00033FE0120014603E0FEF72EFE01200221DD
:104300006962F2E7012C07D0022C07D00CA2012130
:104310000020FEF781FFBCE710A2F8E716A2F6E73F
:104320003D3E204D454E552053454E53494E472066
:104330004D4F4445203C3D0020000020000C024031
:1043400055534520555026444F574E204B45595301
:1043500020544F2053454C45435400004D4F444595
:104360002053494E474C4520574952452020202094
:1043700020202020202000004D4F44452043524F54
:104380005353205749524520202020202020202010
:104390002020000070B50024FEF7DEFD124E4FF421
:1043A000FA7500BF00F052FB2A4620213046FFF785
:1043B000D5FA0028F6D10D48FCF7B5F80B4D103DA5
:1043C000012802D901202870641C08482830FCF715
:1043D000AAF8012802D902206870641C0CB10120DF
:1043E00070BD002070BD0000000C0240A004002041
:1043F0002DE9F04188B00024FEF7AEFD00212FA288
:104400000846FEF709FF344E344D4FF4FA774FF467
:10441000FA68642210212846FFF7A0FA90B16422BE
:1044200040212846FFF79AFA70B13A4620212846E3
:10443000FFF794FA50B13A4608212846FFF78EFA62
:1044400038B12FE0641C2DE0641E2BE00025B5611F
:1044500013E0B4B10125B461FEF77EFD224620A130
:104460006846FBF789FF6A4601210020FEF7D4FE6B
:104470004046FDF7E1FDFEF76FFD08B02846BDE8B8
:10448000F081FEF769FD00211CA20846FEF7C4FE7C
:1044900021A201210020FEF7BFFE4046FDF7CCFD22
:1044A000FEF75AFD224624A16846FBF765FF6A46DF
:1044B00001210020FEF7B0FEABE700004D454E5550
:1044C00020534554205448524553484F4C4420569D
:1044D000414C55450000000020000020000C024027
:1044E0005468726573686F6C642076616C756520C2
:1044F0002564207361766564000000005361766571
:10450000207468726573686F6C642076616C756581
:10451000206661696C65640042656361757365203E
:104520007468726573686F6C642076616C75652061
:10453000697320300000000056414C5545203A2058
:10454000256400002DE9F0412B4D4FF47A7605F1FA
:10455000800495ED000AD4ED000A7700B4EEE00A7D
:10456000F1EE10FA1DDDFEF7F7FC24A225E000BFF6
:1045700095ED010AD4ED010AB4EEE00AF1EE10FA6D
:104580002DDD002000F0B4FC012000F0B1FC20A2E1
:1045900001210020FEF740FE3846BDE8F041FDF75E
:1045A0004BBD95ED010AD4ED010AB4EEE00AF1EE3F
:1045B00010FA1EDDFEF7D0FC1BA201210020FEF741
:1045C0002BFE3046FFF7D6F9FEF7C6FC95ED000A44
:1045D000D4ED000AB4EEE00AF1EE10FAC8DC0020D7
:1045E00000F0B4FB012000F0B1FBBDE8F041FEF7A4
:1045F000B3BCBDE8F0810000A80300205345474D3F
:10460000454E542031204143544956450000000096
:104610005345474D454E54203120262032204143FA
:1046200054495645000000005345474D454E54201F
:1046300032204143544956450000000070B5A44C57
:104640004FF4FA6604F1800594ED000AD5ED000AF6
:10465000B4EEE00AF1EE10FA0ADD002000F048FCAA
:104660009CA201210020FEF7D7FD3046FDF7E4FCB7
:1046700094ED010AD5ED010AB4EEE00AF1EE10FA6C
:104680000ADD012000F034FC96A201210020FEF793
:10469000C3FD3046FDF7D0FC94ED020AD5ED020AC9
:1046A000B4EEE00AF1EE10FA0ADD022000F020FC80
:1046B00090A201210020FEF7AFFD3046FDF7BCFCC3
:1046C00094ED030AD5ED030AB4EEE00AF1EE10FA18
:1046D0000ADD032000F00CFC8AA201210020FEF775
:1046E0009BFD3046FDF7A8FC94ED040AD5ED040AC5
:1046F000B4EEE00AF1EE10FA0ADD042000F0F8FB57
:1047000084A201210020FEF787FD3046FDF794FCCE
:1047100094ED050AD5ED050AB4EEE00AF1EE10FAC3
:104720000ADD052000F0E4FB7EA201210020FEF757
:1047300073FD3046FDF780FC94ED060AD5ED060AC0
:10474000B4EEE00AF1EE10FA0ADD062000F0D0FB2C
:1047500078A201210020FEF75FFD3046FDF76CFCDA
:1047600094ED070AD5ED070AB4EEE00AF1EE10FA6F
:104770000ADD072000F0BCFB72A201210020FEF739
:104780004BFD3046FDF758FC94ED080AD5ED080ABC
:10479000B4EEE00AF1EE10FA0ADD082000F0A8FB02
:1047A0006CA201210020FEF737FD3046FDF744FCE6
:1047B00094ED090AD5ED090AB4EEE00AF1EE10FA1B
:1047C0000ADD092000F094FB66A201210020FEF71B
:1047D00023FD3046FDF730FC94ED0A0AD5ED0A0AB8
:1047E000B4EEE00AF1EE10FA0ADD0A2000F080FBD8
:1047F00061A201210020FEF70FFD3046FDF71CFCF1
:1048000094ED0B0AD5ED0B0AB4EEE00AF1EE10FAC6
:104810000ADD0B2000F06CFB5CA201210020FEF7FA
:10482000FBFC3046FDF708FC94ED0C0AD5ED0C0AB4
:10483000B4EEE00AF1EE10FA0ADD0C2000F058FBAD
:1048400057A201210020FEF7E7FC3046FDF7F4FBFC
:1048500094ED0D0AD5ED0D0AB4EEE00AF1EE10FA72
:104860000ADD0D2000F044FB52A201210020FEF7DA
:10487000D3FC3046FDF7E0FB94ED0E0AD5ED0E0AB1
:10488000B4EEE00AF1EE10FA0ADD0E2000F030FB83
:104890004DA201210020FEF7BFFC3046FDF7CCFB06
:1048A00094ED0F0AD5ED0F0AB4EEE00AF1EE10FA1E
:1048B0000CDD0F2000F01CFB48A201210020FEF7B8
:1048C000ABFC3046BDE87040FDF7B6BB70BD0000E4
:1048D000A80300205365676D656E74203120414B3D
:1048E000544946005365676D656E74203220414B14
:1048F000544946005365676D656E74203320414B03
:10490000544946005365676D656E74203420414BF1
:10491000544946005365676D656E74203520414BE0
:10492000544946005365676D656E74203620414BCF
:10493000544946005365676D656E74203720414BBE
:10494000544946005365676D656E74203820414BAD
:10495000544946005365676D656E74203920414B9C
:10496000544946005365676D656E742031302041AF
:104970004B544946000000005365676D656E742016
:10498000313120414B544946000000005365676DAA
:10499000656E7420313220414B54494600000000BE
:1049A0005365676D656E7420313320414B54494621
:1049B000000000005365676D656E7420313420413E
:1049C0004B544946000000005365676D656E7420C6
:1049D000313520414B544946000000005365676D56
:1049E000656E7420313620414B544946000000006A
:1049F00070B51048007800281BD14FF4FA74224695
:104A000004210D48FEF7AAFF002812D1FEF7A4FAF0
:104A10000A4D00210AA20846FEF7FEFB22460821A5
:104A20002846FEF79BFF0028F3D1BDE87040FEF753
:104A300093BA70BD20000020000C02400004024028
:104A400042555A5A4552204F4646000070B5564CC2
:104A5000E068002801DA0F2002E00F2801DD0020C5
:104A6000E060524D4FF4FA76324640212846FEF778
:104A700075FF60B1324610212846FEF76FFF48B13E
:104A8000324608212846FEF769FF38B159E0E06850
:104A9000401C01E0E068401EE06052E0FEF75CFA76
:104AA000E068102848D2DFE800F0080B0F13171B4E
:104AB0001F23262A2E32363A3E413D49012038E056
:104AC0003B492831022034E039495031032030E09D
:104AD0003749783104202CE03549A031052028E001
:104AE0003349C831062024E03149F031072020E065
:104AF000304908201DE02F492831092019E02D49AF
:104B000050310A2015E02B4978310B2011E029495A
:104B1000A0310C200DE02749C8310D2009E02549BE
:104B2000F0310E2005E024490F2002E02249102038
:104B3000283100F0A1FD04E0002120A20846FEF784
:104B40006BFBE06810282ED2DFE800F0080A0C0E9C
:104B500010121416181A1C1E202224261BA21CE058
:104B600020A21AE025A218E02AA216E02FA214E043
:104B700034A212E039A210E03EA20EE043A20CE003
:104B800048A20AE04DA208E052A206E057A204E0C3
:104B90005CA202E061A200E066A2BDE870400021D4
:104BA0000846FEF739BB70BD20000020000C024013
:104BB000A0040020B8050020D00600204341534542
:104BC000204C4F4F5020414741494E00494E5055CF
:104BD00054204E414D4520494E205A4F4E452031DC
:104BE0003F200000494E505554204E414D4520492C
:104BF0004E205A4F4E4520323F000000494E50553E
:104C000054204E414D4520494E205A4F4E452033A9
:104C10003F000000494E505554204E414D4520491B
:104C20004E205A4F4E4520343F000000494E50550B
:104C300054204E414D4520494E205A4F4E45203577
:104C40003F000000494E505554204E414D452049EB
:104C50004E205A4F4E4520363F000000494E5055D9
:104C600054204E414D4520494E205A4F4E45203745
:104C70003F000000494E505554204E414D452049BB
:104C80004E205A4F4E4520383F000000494E5055A7
:104C900054204E414D4520494E205A4F4E45203913
:104CA0003F200000494E505554204E414D4520496B
:104CB0004E205A4F4E452031303F0000494E50554E
:104CC00054204E414D4520494E205A4F4E452031EB
:104CD000313F0000494E505554204E414D4520492A
:104CE0004E205A4F4E452031323F0000494E50551C
:104CF00054204E414D4520494E205A4F4E452031BB
:104D0000333F0000494E505554204E414D452049F7
:104D10004E205A4F4E452031343F0000494E5055E9
:104D200054204E414D4520494E205A4F4E4520318A
:104D3000353F0000494E505554204E414D452049C5
:104D40004E205A4F4E452031363F00002DE9F05F8E
:104D5000634B00287ED04FF4806801287BD0614EE1
:104D60004FF40069022877D04FF40047032874D02D
:104D70005D4C042872D005286FD006286FD0072814
:104D80006ED008286DD009286CD00A286BD00B286B
:104D90006AD0564D4FF4807A0C2866D04FF4007BD1
:104DA0000D2870D00E286FD00F286ED010284FD04D
:104DB000002201211846FDF756FA002241464848D4
:104DC000FDF751FA002249463046FDF74CFA002221
:104DD00039463046FDF747FA002240212046FDF7CC
:104DE00042FA002239463046FDF73DFA00221021F2
:104DF0002046FDF738FA002220212046FDF733FA3D
:104E0000002204212046FDF72EFA00220821204628
:104E1000FDF729FA002201212046FDF724FA00229D
:104E200002212046FDF71FFA002251462846FDF7D1
:104E30001AFA002259462846FDF715FA00224021A9
:104E40002846FDF710FA002280212846FDF70BFACC
:104E500000220BE010E012E018E01EE01AE01FE074
:104E600022E024E026E028E02AE02CE01021284679
:104E7000BDE8F05FFDF7F7B90022012101E0002253
:104E800041461846F4E721E023E025E000224946A8
:104E90003046EDE70022402104E000223946F7E7E2
:104EA000002210212046E3E700222021FAE7002219
:104EB0000421F7E700220821F4E700220121F1E7AD
:104EC00000220221EEE700225146D0E70022594697
:104ED000CDE700224021CAE700228021C7E7000079
:104EE000001C024000080240001002400004024082
:104EF0002DE9F05F634B00287ED0634E4FF480684D
:104F000001287AD04FF40069022877D04FF4004787
:104F1000032874D05D4C042872D005286FD0062871
:104F20006FD007286ED008286DD009286CD00A28C9
:104F30006BD00B286AD0564D4FF4807A0C2866D07F
:104F40004FF4007B0D2870D00E286FD00F286ED044
:104F500010284FD0012211461846FDF784F901228E
:104F600041464848FDF77FF9012249463046FDF7A2
:104F70007AF9012239463046FDF775F901224021C0
:104F80002046FDF770F9012239463046FDF76BF9EE
:104F9000012210212046FDF766F90122202120463A
:104FA000FDF761F9012204212046FDF75CF9012299
:104FB00008212046FDF757F9012211462046FDF74A
:104FC00052F9012202212046FDF74DF901225146F6
:104FD0002846FDF748F9012259462846FDF743F9CE
:104FE000012240212846FDF73EF901228021284672
:104FF000FDF739F901220BE010E013E018E01EE0A4
:105000001AE01FE022E024E026E028E02AE02CE07D
:1050100010212846BDE8F05FFDF725B901221146B1
:105020001846F7E70122414604E021E023E025E0AD
:10503000012249463046EDE70122402104E00122E9
:105040003946F7E7012210212046E3E7012220211B
:10505000FAE701220421F7E701220821F4E70122FF
:105060001146F1E701220221EEE701225146D0E785
:1050700001225946CDE701224021CAE701228021C1
:10508000C7E70000001C0240000802400010024078
:105090000004024070B5224C224E4FF4FA7520787D
:1050A00040B92A4608213046FEF758FC90B12078D6
:1050B000002834D02A4608213046FEF74FFC00284D
:1050C0002DD1FDF749FFBDE87040002116A208462A
:1050D000FEF7A2B8FDF740FFFDF726FF002119A259
:1050E0000846FEF799F84FF4FA60FCF7A5FFFDF7C4
:1050F0001BFF002119A20846FEF78EF841F2883006
:10510000FCF79AFFBFF34F8F1B4801681B4A01F45D
:10511000E06111430160BFF34F8F00BFFDE770BD39
:1051200020000020000402402020202020202053C6
:10513000595354454D2043414E4E4F5420524553F0
:105140004554000020202020202020202020205214
:10515000455345542053595354454D002020202099
:10516000202020202020524553544152542053598E
:105170005354454D000000000CED00E00400FA051A
:105180002DE9F0472DED068B86B0002554480168C7
:1051900009B932210160534F4FF0000881469FED5D
:1051A000529B9FED53AB08EE101A07F1400606F133
:1051B000400400BF07EB8800B8EE480AD0ED008A33
:1051C00038EE800A10EE100A00F078FC53EC192B30
:1051D00000F076FB00F042FB44F8280018EE900A3D
:1051E00000F06CFC53EC1A2B00F06AFB00F036FB6D
:1051F00046F8280008F10108B8F1100FDADB3E4943
:10520000002000BF06EB800292ED000AB5EEC00A56
:10521000F1EE10FA04D154F820208A4200DA6D1C15
:10522000401C0F28EEDB4FF4FA6A0F2D2CDDFDF742
:1052300093FE002131A20846FDF7EEFF786800F0EA
:105240003DFC80468946386800F038FC02AA82E8B6
:1052500003033048826A4168CDE90012036821489F
:105260002A462DA1A438FBF787F81E4A0121A43A4B
:105270000020FDF7D1FF5046FCF7DEFE002006B00F
:10528000BDEC068BBDE8F087FDF766FE00212CA281
:105290000846FDF7C1FF206800F010FC04460D46EB
:1052A000B046706800F00AFC06460F46D8F80000C9
:1052B00000F004FC8DE8C3000A48CDE9044524A1B0
:1052C000A438D9F80020FBF757F8064A0121A43A80
:1052D0000020FDF7A1FF5046FCF7AEFE0120CEE70F
:1052E00038000020A8030020CDCCCCCCCCCCEC3FA7
:1052F0009A9999999999C93F000016435343414E91
:10530000204641494C45442C2054525920414741A4
:10531000494E0000000200202564207C7C2025648A
:10532000207C7C202564207C7C202564207C7C20C3
:10533000252E3266207C7C20252E3266000000005F
:105340005343414E205355434345535300000000FF
:105350002564207C7C206F70203A2020252E326628
:10536000207C7C20252E3266207C7C20252E3266F7
:10537000200000002DE9FC4100252C46FDF7ECFD46
:1053800000214AA20846FDF747FF4CA20121002058
:10539000FDF742FF40F6B8384046FCF74DFEFDF7FA
:1053A000DBFD4FF4FA764C4FFEF7ECFC00214BA2EC
:1053B0000846FDF731FF324610213846FEF7CEFA97
:1053C00060B1324640213846FEF7C8FA50B1324645
:1053D00008213846FEF7C2FA48B12CE06D1E2AD5E6
:1053E000002530E06D1C032D25DD032531E035B1AE
:1053F000012D0BD0022D10D0032D15D02EE0FEF77D
:1054000039FF00B1012060F307041CE0FEF7C2FF82
:1054100000B1012060F30F2417E0FEF7AFFE00B1EA
:10542000012060F3174412E0FEF7E2FF00B1012013
:1054300060F31F640DE035B1012D06D0022D06D0BA
:10544000032D06D00AE030A204E034A202E038A224
:1054500000E03CA201210020FDF7DEFEE0B20128C1
:10546000A2D1C4F3072001289ED1C4F3074001282C
:105470009AD1200E012897D1FDF76EFD210EC4F3BD
:105480000740CDE90001C4F30723E2B232A13D4851
:10549000FAF772FF00213B4A0846FDF7BDFE0124E2
:1054A0004046FCF7C9FD2046BDE8FC814D454E5500
:1054B000204F5054494F4E53000000005052455366
:1054C00053205550202620444F574E20544F204300
:1054D000484F4F5345000000000C02403D3D3D3D0C
:1054E0003D3D3D3D3D3D3D3D3E204D454E55204FD2
:1054F0005054494F4E53203C3D3D3D3D3D3D3D3D8B
:105500003D3D3D3D0000000053454E53494E472070
:105510004D4F4445204D454E550000005A4F4E45D5
:10552000204E414D45204D454E5520202000000085
:105530005343414E2053454E534F52204D454E55F7
:105540002000000053455420494E54455256414CCA
:10555000204D454E550000002053455454494E47B8
:105560002053554343455353203D3E202564207C22
:105570007C202564207C7C202564207C7C20256484
:105580000000000068040020104810B500780028D2
:105590001AD14FF4FA7280210D48FEF7DFF9002886
:1055A00012D1FDF7D9FCFDF7BFFC002109A2084686
:1055B000FDF732FE4FF47A70FEF7EAF9FDF7B4FC1E
:1055C000BDE81040FDF7C8BC10BD00002000002061
:1055D000000C024042757A7A6572204F66660000C0
:1055E0002DE9F0411A4D4FF4FA7422462021284645
:1055F000FEF7B4F9002828D1FDF7AEFC4FF6FF7690
:105600006700002113A20846FDF706FE3046FFF7AB
:105610006FFC3846FEF7CCF9224608212846FEF7F3
:105620009DF90028EDD16420FCF706FD00210FA2B2
:105630000846FDF7F1FD0020FEF7AAF91220FFF75A
:1056400085FBBDE8F041FDF787BCBDE8F0810000B7
:105650000004024020202020202020202020204163
:105660006C61726D204F4E2100000000416C617230
:105670006D204F46462100002DE9F04F894620213C
:105680008BB000255C4C824689F80010092801DCAB
:10569000082003E0BAF10A0F02DB092020616061F3
:1056A000DFF854B1554F4FF000080BF1280B4FF4C1
:1056B000FA76524652A16846FAF75EFE00216A4623
:1056C0000846FDF7A9FD207C0021FDF7A3FCFDF7AE
:1056D00037FCD4E90401884201DC216103E027287A
:1056E00001DB27202061324640213846FEF736F99B
:1056F00030B1324610213846FEF730F958B126E075
:10570000A068401CA0606168884201D01A280FDDA3
:10571000C4F808800CE0A068401EA06001D51A20E3
:1057200002E01A2802DD0120A06001E00028F6DB7B
:10573000A1680BEB01000A90207C0021FDF76AFCB8
:1057400001200A99FDF728FDC820FCF775FC3246B8
:1057500008213846FEF702F9A8B9A1686D1C1BF8AC
:10576000011009F80510207C0021FDF753FC0120F1
:105770000A99FDF711FDC4F808802069401C2061DA
:10578000C820FCF759FC324602213846FEF7E6F8FD
:1057900000BBE069401CE06104281BDDFDF7DCFB79
:1057A00052461AA16846FAF7E7FD00216A46084604
:1057B000FDF732FD4A4601210020FDF72DFD41F2A3
:1057C0008830FCF739FCC4F81C80FDF7C5FB0BB032
:1057D000BDE8F08F324620213846FEF7BFF800289A
:1057E0007FF467AF206A401C206204287FF761AF16
:1057F000C4F82080EBE7000020000020000C0240ED
:105800005A4F4E452025643A0000000020202020F9
:1058100020202053415645204E414D45205A4F4EA1
:105820004520256420535543434553530000000051
:1058300010B500290AD00878002807D00548784418
:10584000FBF7BCFA002801D0002010BD02487844C4
:1058500010BD00004E0400004604000021F000428C
:10586000A2F16052B2F5801F01F0004328BFD2F1CF
:105870007F6C0BD95FEA001C43EAC20242EB507016
:1058800018BF704728BF20F001007047B2F5801F95
:10589000BCBF184670474FEA410C1CF5001F02D2EE
:1058A000084600F081B970B500F0B4F80000008936
:1058B000FFF7F6BF4FF00040A0F5800070470000F2
:1058C000DFF848C170B51CEA111E1EBF1CEA131593
:1058D0009EEA0C0F95EA0C0F00F06F8081EA03043A
:1058E00023EA4C134EEAD47E21EA4C1141F4801194
:1058F00043F48013AE44A1FB024CA0FB0365AEF160
:105900007F7E361955EB0C05A1FB034C4CF10003CF
:10591000A0FB021C16EB0C06654153F10003094283
:1059200018BF46F0010613F4007F0BD14FEA033194
:105930004FEA0530340341EA155140EA16506FF042
:1059400003020AE04FEAC3214FEAC520F40241EA0C
:10595000555140EA56506FF0020202EB2E4201EB25
:10596000025585EACE710AD05FEA440C18BF24F0D4
:10597000004450F1000041F1000120EAD47040F2EF
:10598000FE7C624500D270BDA84214BF4FF0804437
:105990004FF04044002E08BF0024BEF1806FA8BF26
:1059A000A1F1C041BDE8704080F282804FF000005C
:1059B00001F1C04101F0004170479EEA0C0F0CEA72
:1059C000131518BF95EA0C0F06D04FF0000081EABE
:1059D000030E0EF0004170BD00F01CF88900013E7E
:1059E00000F007B800F009B84FEA430C5FEA5C5CCE
:1059F00008D081EA030100F05BB84FEA410C5FEA8E
:105A00005C5CF6D14FF00000014970470000FF07D1
:105A10000000F87F0EF1020E2EF0030E5EF8046B0C
:105A2000364205D4012A43EB030515F5001F12D8B1
:105A3000012841EB010C1CF5001F0CD80ED14FEAD8
:105A4000D17C15F5001F0CEB4C0C0CF1020C08BFBF
:105A50004CEBD37C04E04FF0080C01E04FEAD37C20
:105A60000CEB4C0526FA05F606F00706B6F1040C19
:105A700006D20EEB860CBDE870404CF0010C60477E
:105A8000DFE80CF0090B02024FF000414FF000007C
:105A9000A1F5002170BD19461046012851EB010403
:105AA00018BFD4F5001484BF002001F0004170BD80
:105AB0000808A0F500114FEA3101704743004FEA92
:105AC000D30C4FEA3C0C43401FBF40070CF1605120
:105AD00013F0FE4F70471CF0006F03D100200CF054
