:020000040800F2
:10000000201100203902000843270008D9200008E9
:1000100041270008CD0900085D2C00080000000001
:10002000000000000000000000000000472700085A
:10003000110B0008000000004527000849270008B0
:10004000530200085302000853020008530200083C
:10005000530200085302000853020008530200082C
:10006000530200085302000853020008530200081C
:10007000530200085302000853020008530200080C
:1000800053020008530200085302000853020008FC
:1000900053020008530200085302000853020008EC
:1000A00053020008530200085302000853020008DC
:1000B00053020008530200085302000853020008CC
:1000C00053020008530200085302000853020008BC
:1000D00053020008452C0008530200085302000890
:1000E000530200085302000853020008530200089C
:1000F000530200085302000853020008530200088C
:10010000530200085302000853020008530200087B
:10011000530200085302000853020008530200086B
:10012000D1090008DD090008530200085302000845
:10013000530200085302000853020008530200084B
:10014000530200085302000853020008530200083B
:10015000E90900085302000853020008512C000866
:10016000530200085302000853020008530200081B
:100170005302000853020008530200080000000068
:10018000530200085302000800F002F800F044F89F
:100190000AA090E8000C82448344AAF10107DA45E2
:1001A00001D100F039F8AFF2090EBAE80F0013F0F0
:1001B000010F18BFFB1A43F001031847346A00000F
:1001C000546A0000103A24BF78C878C1FAD85207A0
:1001D00024BF30C830C144BF04680C6070470000C1
:1001E0000023002400250026103A28BF78C1FBD840
:1001F000520728BF30C148BF0B607047642900F028
:100200002581732900F0C982002070471FB506F0D0
:10021000D4FC1FBD10B510BD00F0C3FA1146FFF7A6
:10022000F5FF03F02FF800F0E1FA03B4FFF7F2FF57
:1002300003BC00F0E9FA000009488047094800477C
:10024000FEE7FEE7FEE7FEE7FEE7FEE7FEE7FEE786
:10025000FEE7FEE704480549054A064B70470000E3
:100260000128000889010008200B0020201100202F
:10027000200D0020200D002053EA020C00F06980C0
:100280002DE9F04B4FF00006002B1FBFB3FA83F5AA
:1002900003FA05F424FA05F65E4012BF1643B2FADB
:1002A00082F502FA05F4C5F120051EBF22FA05FC0D
:1002B00044EA0C04203556EA044C4FEA144418BFB3
:1002C000641C4FF000084FF00009904271EB030CE2
:1002D00039D3002919BFB1FA81F701FA07F6B0FA4C
:1002E00080F700FA07F6C7F120071EBF20FA07FCC7
:1002F00046EA0C062037B6FBF4FCA7EB0507103FD7
:1003000007F01F0BCBF120060CFA0BFB2CFA06F6BC
:1003100044BFB3460026202FA4BF5E464FF0000B1B
:100320005BEA060C08BF4FF0010B19EB0B09ABFBA6
:10033000027C48EB0608C01B06FB02CC0BFB03CC7F
:1003400071EB0C01C1E70B46024641464846BDE849
:10035000F08B13B54FF000004FF00001AFF30080B9
:10036000BDE81C40704700000FB41CB5074B06AA3F
:100370007B4469460090059800F0E5F90020694645
:1003800000F0F4F91CBC5DF814FB0000F903000058
:100390002DE9F0410E460446002020622046E16827
:1003A000884730B3252805D0D4E901219047206A39
:1003B000401CF2E7E168204600278847050018D076
:1003C000A5F14100192802D820354FF400673246C4
:1003D000294620462760FFF711FF40B1012804D0CD
:1003E000F61D26F007060836D8E7361DD6E728465C
:1003F000DAE7206ABDE8F08170B50C460546012AAF
:1004000005D02878800600D5EA69002302E00123A0
:1004100005E05B1C934202D2E05C0028F9D1A86998
:10042000E618C01AA861286A184428622846AFF363
:10043000008004E0D5E9012114F8010B9047B44293
:10044000F8D32846AFF3008070BD00002DE9F041DD
:100450000646002410687529314616A510D0AFF362
:100460000080002802DA404213A507E031688A07BD
:1004700001D512A502E0490704D511A5012401E028
:10048000AFF3008000210A2206F1240709E0B0FB47
:10049000F2FCB0FBF2F302FB1C003030785418463B
:1004A000491C0028F3D123462A463046BDE8F041D6
:1004B00000F0EAB8000000002D0000002B00000052
:1004C0002000000010B5431C02E010F8011B71B1C0
:1004D0008107FAD14FF0013202C88C1A8C4314EA1A
:1004E000C211F9D0C01A0A0603D0C01E10BDC01A2E
:1004F00010BD0A0401D0801E10BD0902FCD0401EB0
:1005000010BD032A40F2308010F0030C00F015807B
:1005100011F8013BBCF1020F624498BF11F801CB06
:1005200000F8013B38BF11F8013BA2F1040298BF6B
:1005300000F801CB38BF00F8013B11F0030300F0D5
:100540002580083AC0F0088051F8043B083A51F879
:1005500004CBA0E80810F5E7121D5CBF51F8043B7E
:1005600040F8043BAFF30080D20724BF11F8013BF1
:1005700011F801CB48BF11F8012B24BF00F8013B53
:1005800000F801CB48BF00F8012B704710B5203AA6
:10059000C0F00B80B1E81850203AA0E81850B1E83C
:1005A0001850A0E81850BFF4F5AF5FEA027C24BFF2
:1005B000B1E81850A0E8185044BF18C918C0BDE8E9
:1005C00010405FEA827C24BF51F8043B40F8043BB2
:1005D00008BF7047D20728BF31F8023B48BF11F867
:1005E000012B28BF20F8023B48BF00F8012B7047C1
:1005F0004FF000020429C0F0128010F0030C00F04C
:100600001B80CCF1040CBCF1020F18BF00F8012BC9
:10061000A8BF20F8022BA1EB0C0100F00DB85FEA97
:10062000C17C24BF00F8012B00F8012B48BF00F863
:10063000012B70474FF0000200B5134694469646D2
:10064000203922BFA0E80C50A0E80C50B1F12001E5
:10065000BFF4F7AF090728BFA0E80C5048BF0CC093
:100660005DF804EB890028BF40F8042B08BF7047F1
:1006700048BF20F8022B11F0804F18BF00F8012B63
:1006800070477047704770472DE9F0470D4699460F
:100690009246044600F124080168880604D5E06902
:1006A00021F01001216000E00120A84201DD471B7C
:1006B00000E00027A1697A1902EB0900081AA0617D
:1006C0002078C00602D42046AFF30080002608E060
:1006D000D4E901211AF806009047206A401C761CD4
:1006E00020624E45F4DB2078C0060AD52046AFF3E1
:1006F000008006E0D4E9012130209047206A401CA8
:100700002062381EA7F10107F4DC07E0D4E90121DB
:1007100018F805009047206A401C2062281EA5F1A9
:100720000105F3DC2046AFF300802078000602D5F7
:100730000220BDE8F0870120FBE7000001694A1CA8
:1007400002610878704700B58FB0CDE90131002112
:10075000059105497944CDE9031011466846FFF734
:1007600017FE0FB000BD0000E5FFFFFF0A6802F8AA
:10077000010B0A60704710B5436913B1AFF30080F5
:1007800001E0FFF739FE012010BD127800F12401CD
:100790000A7000224A700122EDE711684FF0FF3223
:1007A000E9E7754600F02CF8AE4605006946534669
:1007B00020F00700854618B020B5FFF74BFDBDE8D7
:1007C00020404FF000064FF000074FF000084FF0B8
:1007D000000B21F00701AC46ACE8C009ACE8C00949
:1007E000ACE8C009ACE8C0098D46704710B50446B6
:1007F000AFF300802046BDE81040FFF716BD0000B3
:1008000000487047BC0A002001491820ABBEFEE733
:1008100026000200704710B50146806B026C12F092
:10082000500F05D0026CD20626D500F01DFA10BD7F
:10083000016C41F40071016401688A6812F0405F44
:1008400017D1027EAAB9CA6A12F4700F02D08A6860
:1008500052050ED44A6822F020024A60016C21F44D
:1008600080710164016CC90403D4016C41F0010181
:10087000016400F0F7F910BD806BC26CBDE8104058
:100880000846104710B5806B40210164416C41F06F
:100890000401416400F0E8F910BD10B5806B00F070
:1008A000E2F910BD464910B54A6822F440324A6068
:1008B0004A6843681A434A6001684A6822F48072B1
:1008C0004A6001684A68036942EA03224A60016893
:1008D0004A6822F040724A6001684A6883681A4395
:1008E0004A6001688A6822F400628A6001688A6846
:1008F000C3681A438A60816A6FF07062D1420168EE
:100900008A6822F070628A6001688A680CD0836A03
:100910001A438A6001688A6822F040528A6001683E
:100920008A68C36A1A4301E022F040528A60016873
:100930008A6822F002028A6001688A68037E42EABD
:1009400043028A6090F82010002901684A680FD09D
:1009500042F400624A6001684A6822F460424A60D8
:1009600001684A68174C436A04EB43331A4301E0B9
:1009700022F400624A600168CA6A22F47002CA6204
:100980000168CA6A838B104C04EB03531A43CA6292
:1009900001688A6822F400728A6001688A6890F8A7
:1009A000303042EA43228A6001688A6822F4806219
:1009B0008A6001688A68406942EA8020886010BDC8
:1009C0000023014000E0FFFF0000F0FFFEE7000011
:1009D000014800F0E9BA0000FC090020014800F0DD
:1009E000E3BA00005C0A0020014800F0DDBA000014
:1009F0005C07002001681823CAB2103AB2FBF3F278
:100A0000054B6FF30901032A9B5CC36500D9091DDF
:100A10008165084670470000CE6B000810B501469E
:100A200000208B698A6A4FF0C07453B1B3F5005F40
:100A300015D072B1012A0CD0022A0AD0032A09D19A
:100A400004E01AB1012A06D0022A03D1C96AC901F9
:100A500000D5012010BDC96AA142FAD010BD002AFC
:100A6000F7D0012AF2D0022AF3D0032AF3D010BD26
:100A700030B50468256825F4802525600468636026
:100A80008368402B036803D099600068C26030BD62
:100A90009A600068C16030BD064A10B553680649C7
:100AA000064C0968B1FBF4F141435068C01A884212
:100AB000FBD310BD001000E07800002040420F0082
:100AC000074A10B5536807494FF47A740968B1FBB7
:100AD000F4F141435068C01A8842FBD310BD0000B6
:100AE000001000E07800002007480168C9010AD41E
:100AF000016841F080710160044800214160016893
:100B000041F0010101607047FCED00E0001000E0E1
:100B1000704772B6FEE7000078B50024009490F8A4
:100B20003C20012A19D0012280F83C200A680723C2
:100B30000568092A13D9EE680A3A02EB420293408B
:100B40009E43EE600B788A680A3B03EB43039A40AE
:100B50000368DD682A43DA6010E0022078BD2E6960
:100B600002EB420293409E432E610B788A6803EBAE
:100B700043039A4003681D692A431A614A681F2388
:100B8000072A13D205686E6B521E02EB8202934055
:100B90009E436E630B790A885B1E92B203EB83035C
:100BA0009A4003685D6B2A435A6327E005680D2A63
:100BB00012D22E6BD21F02EB820293409E432E6311
:100BC0000B790A88DB1F92B203EB83039A40036818
:100BD0001D6B2A431A6311E0EE6A0D3A02EB8202A2
:100BE00093409E43EE620B790A880D3B92B203EB71
:100BF00083039A400368DD6A2A43DA62164B05686C
:100C0000144A9D4206D10D68122D03D1556845F452
:100C10008005556005689D4218D10B68102B01D0E6
:100C2000112B13D1536843F4000353600968102952
:100C30000CD10A490A4A0968B1FBF2F101EB8101C2
:100C4000490000E0491E00910029FBD180F83C409A
:100C5000002078BD002301400020014078000020E2
:100C600040420F0070477047704770B504004FF066
:100C7000000503D0206C002610B107E0012070BDF4
:100C8000204600F01DF8666484F83C60206CC006C5
:100C900010D4206C20F4885040F0020020642046DC
:100CA000FFF700FE6664206C20F0020040F00100B7
:100CB000206400E0012584F83C60284670BD0000F7
:100CC00070B586B0064614216846FFF7B3FC2C4980
:100CD0003068884251D12B480025016841F4807169
:100CE00001600068274900F4807014390590086895
:100CF00040F004000860086800F0040005900868EF
:100D000040F001000860086800F0010005900868E4
:100D100040F0020008600868032400F0020005901B
:100D20003F208DE831006946174800F0C1FAFF20E6
:100D30008DE831006946154800F0BAFA009469461A
:100D40001348CDE9014500F0B3FA134C1148C4E94A
:100D500000050015A560C4E90350800060618000B3
:100D6000A0618011C4E907052046656200F0ECF936
:100D700008B1FFF7CEFEB463A66306B070BD0000F5
:100D800000200140443802400008024000000240B8
:100D90000004024010640240FC090020F8B504463B
:100DA00000200E46009094F83C10012907D0012144
:100DB00084F83C1021688B68DB0702D011E0022028
:100DC000F8BD8B6843F001038B604049404B0968D4
:100DD000B1FBF3F101EB410100E0491E0091002954
:100DE000FBD121688B68DB0503D58B6823F4807306
:100DF0008B6021688B68DB075DD0236C40F2016556
:100E0000AB4343F4807323644968490505D5216CDD
:100E100021F4005141F480512164216CC90404D5AE
:100E2000616C21F00601616400E0606484F83C00BC
:100E3000A16B2948274DC863A16B28480864A16BA2
:100E40002748C86421686FF0220008602068416864
:100E500041F0806141602068816841F48071816067
:100E60002168134632464C31A06B00F0D7F9686810
:100E70001C49C006206806D0884224D1816811F040
:100E8000405F13D01FE08842F8D0174A904203D148
:100E9000D1F80423D206F1D0144A904213D1D1F8EC
:100EA000041301F01F011029E8D30CE0816841F020
:100EB0008041816007E0206C40F010002064606C8D
:100EC00040F0010060640020F8BD000078000020C0
:100ED00040420F0000230140170800089B0800084B
:100EE0008508000800200140002101400022014047
:100EF0002DE9F0410446876D00F0E4FA064694F8C7
:100F000035000025022806D08020606584F8345022
:100F10000120BDE8F0812068016821F01601016020
:100F20002068416921F080014161206C08B9A06C02
:100F300020B12068016821F0080101602068016883
:100F400021F0010101600CE000F0BCFA801B0528D3
:100F500007D920206065032084F8350084F83450D8
:100F6000D7E720680068C007EED194F85C103F20F6
:100F70008840B860012084F8350084F8345000209F
:100F8000C7E790F83510022903D080214165012080
:100F90007047052180F835100068016821F00101D3
:100FA00001600020704700002DE9F84304464FF02F
:100FB0000009CDF8009063484FF41651A56D006804
:100FC000B0FBF1F72E6894F85C10082000FA01F1EC
:100FD00031420FD021680A6852070BD50A6822F007
:100FE00004020A6094F85C108840A860606D40F0CC
:100FF0000100606594F85C104FF0010808FA01F0F8
:10100000304208D021684969090604D5A860606D9E
:1010100040F00200606594F85C1004208840304283
:1010200008D021680968890704D5A860606D40F080
:101030000400606594F85C1010208840304218D09D
:1010400021680968090714D5A86020680168490368
:1010500004D50068000308D5A16C07E00168C90544
:1010600003D4016821F008010160216C09B1204618
:10107000884794F85C1020208840304231D02168A5
:101080000968C9062DD5A86094F8350005282068A0
:10109000016806D0490347D5006800031DD4616C80
:1010A0001CE021F0160101602068416921F08001F7
:1010B0004161206C08B9A06C20B12068016821F062
:1010C0000801016094F85C103F208840A86084F813
:1010D000358084F83490216D1FE0E16B09B1204622
:1010E0008847606D00282BD0606DC00714D00520A4
:1010F00084F835002068016821F001010160009842
:10110000401C0090B84203D820680068C007F6D1A0
:1011100084F8358084F83490E16C002910D001B057
:101120002046BDE8F04308470168C905D5D40168E9
:1011300021F01001016084F8358084F83490CCE708
:10114000BDE8F883780000202DE9F041044600F066
:10115000B9F906465CB1022084F83500002584F810
:1011600034502068016821F0010101600DE0012088
:10117000BDE8F08100F0A6F9801B052805D92020E4
:101180006065032084F83500F2E720680068C00736
:10119000F0D12268116820480140D4E901031843C6
:1011A000D4E903363343184363691843A3691843EA
:1011B000E3691843236A18430843616A042903D189
:1011C000D4E90B1319430843106020684069666A2C
:1011D00020F0070130460E43012704280CD1A06AF5
:1011E0000643E06A40B12046FFF718FC20B14020DA
:1011F000606584F83570BAE7206846612046FFF7DD
:10120000F9FB94F85C203F2191408160656584F88A
:1012100035700020ACE700003F8010F02DE9F04170
:101220000446866D90F83400002501280DD0012079
:1012300084F8340094F835700020012F07D084F82A
:10124000340002252846BDE8F0810220FBE7022792
:1012500084F8357060652046FFF70AFC94F85C104E
:101260003F208840B0602068016841F016010160AD
:10127000206C20B12068016841F0080101602068FD
:10128000016841F001010160DCE7000070B504462F
:1012900000F018F90546601C02D0044800780444A8
:1012A00000F010F9401BA042FAD370BD6C00002082
:1012B0002DE9F84FDFF8BCA1002201250AF1040B4B
:1012C00003264FF00F090BF1040E00BF0B6805FA5F
:1012D00002F42340A34270D10F7907F00307012FD6
:1012E00001D0022F16D187684FEA420806FA08FC9F
:1012F00027EA0C07D1F80CC00CFA08FC4CEA070CE2
:10130000C0F808C04768A7430C79C4F300149440A0
:101310003C4344600C79E443A4070AD0C4684FEA14
:10132000420C06FA0CF7BC438F6807FA0CF7274308
:10133000C7600C7904F00304022C12D1D40800EB2E
:10134000840CDCF820405707FF0E09FA07F824EA5E
:101350000804D1F8108008FA07F848EA0408CCF825
:10136000208004684FEA420C06FA0CF7BC430F7960
:1013700007F0030707FA0CF7274307604C6814F4DB
:10138000403F70D03C4C276847F480472760246872
:1013900022F0030704F480440094384C07EB040C5B
:1013A000DCF8084897074FEA177809FA08F7BC43B2
:1013B000334FB84202D1002724E054E0314FB84205
:1013C00001D101271EE0304FB84201D1022719E0B8
:1013D0002E4FB84201D1032714E02D4FB84201D15E
:1013E00004270FE02B4FB84201D105270AE02A4F0E
:1013F000B84201D1062705E0284FB84201D107279E
:1014000000E0082707FA08F72743CCF80878DAF84D
:1014100000405746D1F804C09C435FEACC3C00D55D
:101420001C433C60DBF800405F46D1F804C09C439D
:101430005FEA8C3C00D51C433C60DEF800407746F8
:10144000D1F804C09C435FEACC2C00D51C433C601F
:10145000084F0C373C68D1F804C09C435FEA8C2CE1
:1014600000D51C433C60521C102AFFF42FAFBDE88E
:10147000F88F0000003C0140443802400030014039
:10148000000002400004024000080240000C02403C
:10149000001002400014024000180240001C0240EC
:1014A0000069084000D001207047426921EA020328
:1014B0000A4043EA0241816170470AB18161704785
:1014C0000904FBE701488068704700006C000020B9
:1014D0000248816802781144816070476C000020E6
:1014E0000B4810B5016841F400710160016841F4D6
:1014F00080610160016841F480710160032000F0A7
:101500006FF80F2000F006F800F024F8002010BD5E
:10151000003C024070B50D4D04464FF47A712878B6
:10152000B1FBF0F00A490968B1FBF0F000F00CFBE8
:1015300048B9102C07D200222146501E00F030F886
:1015400000206C6070BD012070BD00006C000020A8
:10155000780000200A4808B5016841F48041016024
:10156000006800F4804000900548001F016841F0C9
:1015700080510160006800F08050009008BD0000BC
:1015800044380240002809DB00F01F02012191408D
:101590004009800000F1E020C0F800117047000011
:1015A000F0B40E4B1B680C46C3F30223C3F10705CE
:1015B000042D00D90425191D072901D2002300E0BC
:1015C000DB1E012606FA05F1491E214099409E4086
:1015D000761E16403143F0BC01F041BB0CED00E03B
:1015E000064900F0070208684FF6FF03184040EA7A
:1015F0000220034A10430860704700000CED00E031
:101600000000FA052DE9F0470E46050065D0DFF829
:101610001481D8F80000F7B200F00700B04207D2FA
:1016200088F80070D8F8000000F00700B04254D1EC
:1016300028683D4C810712D5400703D5206840F447
:10164000E05020602878000703D5206840F460400F
:1016500020602068A96820F0F00008432060287806
:10166000C0072DD0304968680839012812D00228F7
:1016700013D0032811D00968890700292DDA2168C1
:1016800021F0030101432160FFF71CFF814641F275
:10169000883A0EE009688903EFE709688901ECE7F9
:1016A000FFF710FFA0EB0901514502D90320BDE867
:1016B000F0872068696800F00C00B0EB810FEFD173
:1016C000D8F80010404601F00701B14207D9077071
:1016D000006800F00700B04201D00120E7E7287859
:1016E000400705D52068E96820F4E05008432060F1
:1016F0002878000706D52068296920F4604040EA70
:10170000C100206000F038F82168084AC1F30311D5
:10171000515CC8400649086006480068FFF7FAFEB9
:101720000020C4E7003C024008380240D66B0008A5
:10173000780000207000002004480549006809680E
:10174000044AC1F38221515CC840704778000020F0
:1017500008380240E66B000804480549006809683B
:10176000044AC1F34231515CC84070477800002000
:1017700008380240E66B0008154810B5006810F004
:101780000C02144813D01449042A0FD0082A0ED191
:101790000F4C241F2268236802F03F025B0207D52A
:1017A0002068C0F38810A0FB010106E0084610BDC8
:1017B0002168C1F38811A1FB00010023FEF75CFD45
:1017C0002168C1F30141491C4900B0FBF1F010BD93
:1017D000083802400024F40040787D012DE9F84FDC
:1017E00004006ED02078DFF84C93C007A9F10405FF
:1017F0004AD009F104000168C1F38101012908D030
:101800000068C0F3810002280AD1D9F80000400224
:1018100006D52868800337D560680028E1D033E01A
:101820006068B0F5803F10D0B0F5A02F286810D0C8
:1018300020F480302860286820F4802028606068C8
:10184000A8B1FFF73FFE06460DE0286840F480305F
:10185000F4E740F480202860F7E700BFFFF732FE8E
:10186000801B642873D828688003F7D50CE0FFF745
:1018700029FE064605E000BFFFF724FE801B642812
:10188000F0D828688003F7D42078DFF8AC8280078E
:101890004FF0000A3ED5A748001D016811F00C0F5B
:1018A00008D00068C0F3810002280BD1D9F80000ED
:1018B000400207D42868800716D5E068012800D1C7
:1018C00012E033E1E068B8B10120C8F80000FFF78A
:1018D000F9FD064605E000BFFFF7F4FD801B022876
:1018E000C0D828688007F7D52868216920F0F8005B
:1018F00040EAC10028600DE0C8F800A0FFF7E2FD53
:10190000064604E0FFF7DEFD801B02281FD828688A
:101910008007F7D42078000722D5864F8748616971
:10192000703771B101210160FFF7CCFD064604E07C
:10193000FFF7C8FD801B022809D838688007F7D553
:101940000EE0C0F800A0FFF7BDFD064605E082E00E
:10195000FFF7B8FD801B02287DD838688007F7D4D0
:101960002078400768D5DFF8CCB100270BF13C0B9D
:10197000DBF80000C0000BD4DBF8001041F0805110
:10198000CBF80010DBF80000012700F08050009039
:101990006B4E3068C00510D4306840F48070306001
:1019A000FFF790FD009005E0FFF78CFD0099401ACD
:1019B000022850D83068C005F6D55E4EA0686C3657
:1019C00001280FD00528306810D020F001003060C9
:1019D000306820F004003060A068B8B1FFF772FDF5
:1019E00000900FE0306840F00100F4E740F00400A0
:1019F0003060F7E7FFF766FD0099411A41F2883041
:101A0000814266D830688007F4D50EE0FFF75AFDB2
:101A1000009007E0FFF756FD0099411A41F2883027
:101A2000814256D830688007F4D42FB1DBF800101B
:101A300021F08051CBF80010A069C8B33D49091DC1
:101A40000968C1F3810102294AD00228504607D013
:101A5000C8F8600000E03CE0FFF734FD04463BE0DE
:101A60004746C8F86000FFF72DFD064605E000BFB9
:101A7000FFF728FD801B02282BD828688001F7D4A7
:101A8000D4E907010843A16A2E4A490802EB014143
:101A9000626A41EA8211084394F82C1040EA01611D
:101AA000C9F8001001203866FFF70CFD044606E077
:101AB0003EE000BFFFF706FD001B022809D828689A
:101AC0008001F7D534E000BFFFF7FCFC001B0228C3
:101AD00002D90320BDE8F88F28688001F4D427E0FC
:101AE0000128F7D0D9F80000E26900F480019142A2
:101AF0001CD1226A00F03F01914217D147F6C07114
:101B0000626A0140B1EB821F10D1A26A4FF0FF332D
:101B100000F4403103EB5202B1EB024F06D194F8CE
:101B20002C1000F07060B0EB016F01D00120D1E704
:101B30000020CFE70438024000004742800E4742B1
:101B4000007000400000FFFF10B5401EB0F1807F24
:101B500001D3012010BD4FF0E02460610F21601718
:101B600001F07DF80020A06107202061002010BD59
:101B700038B5044690F83E00202822D181B17AB1D0
:101B800094F83C0001281CD0012084F83C0020631C
:101B9000204600F0D3FF002803D1216B012901D09A
:101BA000012038BD21680A684968009121680C311C
:101BB00051E8002F42F0100241E80023002BF5D13C
:101BC00038BD022038BD000010B50C4600680F4932
:101BD00088421AD10E49224601F58070FEF7D6FCE4
:101BE00022460C490C48FEF78CFC0C49012080224F
:101BF00008700749A1F1E800FFF7BAFF0448603810
:101C00000068016821F00801016010BD001001406A
:101C1000BC070020BC0800208904002063000020CD
:101C200070470000F8B5016804460868CA684B6947
:101C300010F00F0F4FF0000559D003F0010602F429
:101C40009077374365D0C10705D0D10503D5216C06
:101C500041F001012164410705D5D90703D0216C6A
:101C600041F002012164810705D5D90703D0216C19
:101C700041F004012164010707D502F0200131433E
:101C800003D0216C41F008012164216C00293AD075
:101C9000800604D5900602D5204600F069FE206833
:101CA0004069216CC0F38010090700D460B320465E
:101CB00000F029FE20684069400621D520681430D4
:101CC00050E8001F21F0400140E80012002AF5D141
:101CD000A06BA8B16C490165A06BFFF752F9002811
:101CE00011D0A06B016D01B0BDE8F040084783063C
:101CF0000FD593060DD52046BDE8F84000F038BE5C
:101D00002046FFF78DFFF8BD2046FFF789FF2564C9
:101D1000F8BD266B2023012E79D1C60677D5D606CD
:101D200075D50868486800904869400640D5A16BA1
:101D3000086840680004000CEAD0A28D8242E7D90E
:101D4000E085C869B0F5807F2DD020680C3050E860
:101D5000001F21F4807140E80012002AF5D12068AC
:101D6000143050E8001F21F0010140E80012002A61
:101D7000F5D12068143050E8001F21F0400140E800
:101D80000012002AF5D184F83E30256320680C301B
:101D900050E8001F21F0100140E80012002AF5D1A0
:101DA000A06BFFF7A5F8A08DE18D401A81B229E064
:101DB000A08DE18D401A81B2E08D0028A8D00029C5
:101DC000A6D020680C3050E8002F22F4907240E832
:101DD0000026002EF5D12068143050E8002F22F0A4
:101DE000010240E80026002EF5D184F83E3025633C
:101DF00020680C3050E8002F22F0100240E8002349
:101E0000002BF5D12046FFF7DFFEF8BDFFE7050602
:101E10002BD5150629D594F83D002128F5D1A068C9
:101E2000B0F5805F01D12069B0B1206A411C216208
:101E3000216800784860E08C401E0004000CE084BB
:101E4000E3D12068C16821F08001C1602068C168C9
:101E500041F04001C160D8E7206A0088C0F3080063
:101E60004860206A801C2062E5E74006CDD5500618
:101E7000CBD5CA68204622F04002CA6084F83D30C3
:101E800000F029F9C1E700001128000870B504002E
:101E900004D094F83D00002510B106E0012070BD8B
:101EA00084F83C50204600F023F8242084F83D00BC
:101EB0002068C16821F40051C160204600F0B8FDDF
:101EC0002068016921F4904101612068416921F095
:101ED0002A0141612068C16841F40051C160256454
:101EE000202084F83D0084F83E00002070BD0000F2
:101EF000F0B587B0064614216846FEF79BFB4148C3
:101F00004049DFF8FCC0356800241439022203235D
:101F10000715654535D1056845F010050560006871
:101F200000F010000590086840F0010008600868A3
:101F3000694600F00100059058028DE81500072061
:101F4000CDE903303048FFF7B3F9314D2F48286011
:101F50007804C5E90104C5E903476C61AC61EC6133
:101F60002C6228466C62FFF7EFF808B1FEF7D1FD4E
:101F7000B563002211462520AE63FFF711FB252033
:101F80003AE0DFF890C0654538D1056845F0200596
:101F90000560006800F020000590086840F004002B
:101FA00008600868694600F0040005904FF4E0708E
:101FB0008DE815000820CDE903301748FFF778F9C0
:101FC0001248164D603828608005C5E90104C5E94E
:101FD00003476C61AC61EC612C6228466C62FFF7D0
:101FE000B3F808B1FEF795FDB5630022114647200E
:101FF000AE63FFF7D5FA4720FFF7C4FA07B0F0BD8C
:102000000010014044380240000002408864024051
:102010005C07002000140140000802405C0A002018
:10202000704770472DE9F843044690F83D001F467D
:1020300016460D4620284CD1C5B1BEB194F83C00DF
:10204000012846D0012084F83C004FF00008C4F875
:102050004080212084F83D00FFF734FAA6848146B1
:10206000E684A068B0F5805F03D004E00120BDE8FD
:10207000F883206928B12E465FF0000584F83C8083
:102080000EE00026FAE78021204600F09FFDA0B96F
:10209000AEB116F8010B21684860E08C401EE08468
:1020A000E08C4B464FF0000200970028EBD14FF038
:1020B0004001204600F08AFD30B10320D7E735F813
:1020C000020BC0F30800E6E7202084F83D00002062
:1020D000CDE70220CBE77047FEE70000044908780F
:1020E00020F00100087040F0080000F019B800006E
:1020F000000000200449087840F00100087040F01A
:10210000080000F00DB800000000002010B501200C
:1021100000F006F8BDE8104040F6B830FEF7BCBC51
:1021200010B5044600224FF480610648FFF7C5F958
:10213000200900F009F804F00F00BDE8104000F09D
:1021400003B80000000C024070B504461D4D0007A6
:102150004FF4004101D5012200E000222846FFF79C
:10216000ACF960074FF4804101D5012200E0002264
:102170002846FFF7A2F9A0074FF4005101D501222C
:1021800000E000222846FFF798F9E0074FF480515D
:1021900001D0012200E000222846FFF78EF901223B
:1021A000D40221462846FFF788F91420FEF774FC74
:1021B000002221462846FFF780F9BDE87040142030
:1021C000FEF76ABC000C024008B509A21268009232
:1021D000084AD3788B4200D80021507191711DF8C4
:1021E00001100844C0B240F08000FFF799FF08BD1D
:1021F000004014540000002010B504460122910252
:102200000548FFF75AF92009FFF79EFF04F00F0079
:10221000BDE81040FFF798BF000C02400449087861
:1022200040F00400087040F00800FFF779BF00009C
:102230000000002070B50D460646FEF755FC00F084
:1022400041F84AF6C870FEF727FC1D4C0020012D0E
:10225000E57026716071A071607001D9082060700E
:102260000320FFF771FF41F294152846FEF714FC96
:102270000320FFF769FF2846FEF70EFC0320FFF757
:1022800063FF2846FEF708FC0220FFF75DFF64208D
:10229000FEF702FC607840F02000FFF741FF0420C9
:1022A0002070FFF7BBFFFFF731FF0220A070062070
:1022B000FFF736FF2846BDE87040FEF7EDBB000093
:1022C0000000002030B585B014216846FEF7B2F951
:1022D0004FF44C40009001250024CDE9015469469B
:1022E00017480394FEF7E4FF4FF440500090CDE907
:1022F0000154694613480394FEF7DAFF124C00229A
:10230000A9022046FFF7D9F80022E1142046FFF782
:10231000D4F80022A1142046FFF7CFF80022690369
:102320002046FFF7CAF80022A9032046FFF7C5F8A8
:102330000022E9032046FFF7C0F805B030BD0000D9
:102340000004024000080240000C024070B51E4C20
:102350000D46002660B32878002813D060792179D3
:10236000884207D36671A1793046491CC9B2A17170
:10237000FFF72AFF28780A2822D0FFF73DFF60796F
:10238000401C607170BD60792179884207D3667105
:10239000A1793046491CC9B2A171FFF715FF287811
:1023A0000A2809D0FFF728FF6079401C60716D1C76
:1023B00028780028E7D170BDA079401CA071F6E70D
:1023C000A079401CA07170BD0000002070B51546BA
:1023D000FFF7FAFE134C16E060792179884207D3A3
:1023E00000206071A179491CC9B2A171FFF7ECFE10
:1023F00028780A280BD00D280FD0FFF7FDFE607952
:10240000401C60716D1C28780028E5D170BDA07952
:10241000401CC1B2A171607901E0A1790020FFF7F1
:10242000D3FEEFE7000000202DE9FF5F002567489D
:1024300000950195029564490395016001244FF4CC
:1024400040310461C0E90115047680F820506049EC
:10245000C0E90A151021C560C16180F830404461AF
:10246000FEF703FC08B172B6FEE74FF00A0807203A
:10247000CDF80080CDE9014069465448FEF74CFB99
:1024800008B172B6FEE70B200226CDE900066946C8
:102490004E48FEF741FB08B172B6FEE70C274FF03D
:1024A0000309CDE9007969464848FEF735FB08B1D4
:1024B00072B6FEE74FF00D0A4FF0040B6946434831
:1024C000CDE900ABFEF728FB08B172B6FEE70520A8
:1024D000CDE9005069463D48FEF71EFB08B172B6D3
:1024E000FEE70620CDE9004069463848FEF714FBB8
:1024F00008B172B6FEE70724CDE9006469463348A7
:10250000FEF70AFB08B172B6FEE70826CDE9009691
:1025100069462E48FEF700FB08B172B6FEE74FF0A1
:102520000909CDE900B969462848FEF7F5FA08B16E
:1025300072B6FEE70520CDE9000869462348FEF79C
:10254000EBFA08B172B6FEE7062000900B2001906E
:1025500069461E48FEF7E0FA08B172B6FEE7CDE91B
:10256000004769461948FEF7D7FA08B172B6FEE788
:102570000E24CDE9004A69461448FEF7CDFA08B1A9
:1025800072B6FEE70F27CDE9007469460F48FEF7E3
:10259000C3FA08B172B6FEE70096CDE90175694647
:1025A0000A48FEF7B9FA08B172B6FEE71020CDE985
:1025B000009069460548FEF7AFFA002801D072B6D0
:1025C000FEE7BDE8FF9F0000002001408C060020D0
:1025D0000100000F2DE9F04F87B014216846FEF787
:1025E00029F851480024016841F010010160016898
:1025F00001F010010591016841F0040101600168DA
:1026000001F004010591016841F0010101600168D8
:1026100001F001010591016841F0020101600168CA
:1026200001F002010591016841F0080101600068B4
:10263000DFF8F8A000F008004FF6BF750590002203
:1026400029465046FEF739FFDFF8E4B04FF46C46F8
:10265000002231465846FEF730FF4FF2D477002271
:1026600039463448FEF729FF4FF47F48002241469F
:102670003148FEF722FF4FF48079002249462F4867
:10268000FEF71BFF00950125CDE901546946504630
:102690000394FEF70DFE0096CDE9015469465846B5
:1026A0000394FEF705FE0097CDE9015469462148E1
:1026B0000394FEF7FDFDE80200901220CDE901042D
:1026C000032003900420049069461A48FEF7F0FDA9
:1026D000CDF80080CDE90154694617480394FEF710
:1026E000E7FD4FF490508DE8310069465846FEF7FB
:1026F000DFFDCDF80090CDE9015469460F48039401
:10270000FEF7D6FDFE208DE8310069460A48FEF747
:10271000CFFD28208DE8310069460648FEF7C8FD48
:1027200007B0BDE8F08F00003038024000100240D2
:102730000008024000040240000C02400000024079
:10274000FEE7FEE77047704710B5FEF7C1FE064C86
:102750002068401C2060642805DB00F009FD00F0C3
:102760006DFD0020206010BD6800002030B593B0E2
:1027700030216846FDF75EFF14210CA8FDF75AFFD3
:102780001D480025016841F080510160006800F09B
:10279000805011901948016841F48041016000683F
:1027A000022400F480401190012003901020049036
:1027B000009406940820CDE90750A820CDE909042B
:1027C00004200B906846FFF709F808B172B6FEE7DF
:1027D0000CA90F2081E831004FF4A0500F904FF466
:1027E0008050109005210CA8FEF70CFF002801D0A6
:1027F00072B6FEE713B030BD4038024000700040B2
:102800000248016841F470010160704788ED00E002
:1028100010B5806B0021C185C184FFF701FA10BD9E
:1028200070B5846B2068406994F83D10C0F3C01007
:102830000025212904D118B1E584204600F08AF84A
:102840002068406994F83E10C0F38010222904D11A
:1028500018B1E585204600F056F8206C40F01000D5
:1028600020642046FFF7DCF970BD10B50146806B8F
:1028700009680968C9052FD40021C18501680C3198
:1028800051E8002F22F4807241E80023002BF5D19B
:102890000168143151E8002F22F0010241E80023C1
:1028A000002BF5D10168143151E8002F22F04002CD
:1028B00041E80023002BF5D1202180F83E10016B68
:1028C000012909D101680C3151E8002F22F01002D2
:1028D00041E80023002BF5D1016B012902D0FFF75D
:1028E0009FFB10BD818DFFF76FF910BD10B5806B98
:1028F000016B012902D0FFF794FB10BD818D4908BF
:10290000FFF762F910BD01680C3151E8002F22F485
:10291000907241E80023002BF5D10168143151E891
:10292000002F22F0010241E80023002BF5D1016BBA
:10293000012909D101680C3151E8002F22F0100261
:1029400041E80023002BF5D1202180F83E10002122
:102950000163704701680C3151E8002F22F0C0027A
:1029600041E80023002BF5D1202180F83D1070476D
:1029700008B590F83E10222901D0022008BD8268D7
:102980004FF480539A4201D1016921B1816A9A4280
:102990001BD04AB10AE00268816A5268C2F3080299
:1029A0000A80816A891C08E0026972B10268526873
:1029B00002F07F020A70816A491C8162C18D491E42
:1029C0000904090CC18503D019E002685268F1E7D7
:1029D0000168CA6822F02002CA600168CA6822F44D
:1029E0008072CA6001684A6922F001024A612021AE
:1029F00080F83E10016B012903D0FFF711FB002086
:102A000008BD0021016301680C3151E8002F22F05C
:102A1000100241E80023002BF5D101680A68D206B4
:102A200002D50A6849680091818DFFF7CDF8E6E785
:102A300070B5044600680169E26821F44051114311
:102A400001612169A068E269084361691143084393
:102A50002168CA6849F20C639A430243CA6020683D
:102A60004169A26921F440711143416131492068F3
:102A7000884202D03049884202D1FEF76DFE01E063
:102A8000FEF75AFEE2690023192164253226B2F5C9
:102A9000004F626828D0A0FB0101930F9200FDF760
:102AA000EBFB0146B0FBF5F06FF01802504301EB71
:102AB000800006EB0010B0FBF5F000F0F002B1FB77
:102AC000F5F002EB0012B1FBF5F06FF0180358437C
:102AD00001EB800006EB0010B0FBF5F000F00F00FA
:102AE00021681044886070BDA0FB010192185B4111
:102AF000FDF7C2FB0146B0FBF5F00201B1FBF5F0BA
:102B00006FF01803584301EB800006EBC000B0FBE8
:102B1000F5F000F0F80002EB4002B1FBF5F058438D
:102B200001EB800006EBC000B0FBF5F000F0070001
:102B3000D6E70000001001400014014038B5816262
:102B400082850025134604460564222084F83E0051
:102B5000A26B1B48D063A26B1A481064A26B1A4880
:102B6000D064A06B0A4605652168A06B091DFEF7BD
:102B700055FB206801684068009084F83C5020684C
:102B80000C3050E8001F41F4807140E80012002A28
:102B9000F5D12068143050E8001F41F0010140E8F1
:102BA0000012002AF5D12068143050E8001F41F0CF
:102BB000400140E80012002AF5D1002038BD000095
:102BC0006B280008ED280008212800082DE9F041B5
:102BD000984617460E460446069D27E0681C25D0F9
:102BE0002DB1FEF76FFCA0EB0800A8421ED92068AB
:102BF0000C3050E8001F21F4D07140E80012002A88
:102C0000F5D12068143050E8001F21F0010140E8A0
:102C10000012002AF5D1202084F83D0084F83E00FF
:102C2000002084F83C000320BDE8F08120680068A3
:102C300036EA000004D00020B842CFD00020F3E7ED
:102C40000120F9E70148FEF7EDBF0000D40600209F
:102C50000148FEF7E7BF000018070020FEE709075C
:102C6000090E002804DB00F1E02080F80014704712
:102C700000F00F0000F1E02080F8141D704710B53F
:102C80001446FEF70DFC002803D12046FDF718FF7F
:102C9000002010BD10B504464FF480710348FEF7C4
:102CA00004FC2046BDE81040FDF70ABF00000240CA
:102CB00010B5044600224FF480710448FEF7FDFB76
:102CC0002046BDE81040FDF7FBBE000000000240BA
:102CD00010B50446012211020348FEF7EEFB204620
:102CE000BDE81040FDF7ECBE000002402DE9F043C6
:102CF000002489B005464FF4FA66062800D1344610
:102D0000FFF704FA00218EA20846FFF75FFB914F00
:102D100040F634094FF4FA78642240213846FFF730
:102D2000AEFFA0B1642210213846FFF7A8FF78B3A8
:102D3000424602213846FFF7A2FF002862D04246F1
:102D400008213846FFF79BFF00285DD0D0E0641CC7
:102D5000FFF7DCF900217AA20846FFF737FB012DC7
:102D60000AD0022D0CD0032D0ED0042D11D0052D2C
:102D700013D0062D15D0DCE0182C00DB1824C4E09D
:102D80003C2C00DB3C24C3E03C2C00DB3C24C2E0B8
:102D90000BE01F2C00DB1F24C0E00C2C00DB0C24FC
:102DA000BFE04C4500DB4C46BEE0641EFFF7AEF9C9
:102DB000002163A20846FFF709FB012D0AD0022D6E
:102DC0000CD0032D0ED0042D10D0052D12D0062DC1
:102DD00014D0AEE0002CD2DC002496E0002CD2DC33
:102DE000002495E0002CD2DC002494E0002CD3DCFD
:102DF000002493E0002CD3DC002492E0B442D3DC26
:102E0000344691E000242EE0002C30D0FFF77EF90C
:102E1000012D0AD0022D0BD0032D0CD0042D0DD086
:102E2000052D0ED0062D0FD013E022464AA10DE04D
:102E300022464FA10AE0224654A107E022465AA1A9
:102E400004E022465EA101E0224664A16846FDF747
:102E50008BFA6A4601210020FFF7B8FA3046FDF7E9
:102E60002FFEFFF753F909B02046BDE8F083FFF7C6
:102E70004DF9012D0AD0022D0FD0032D14D0042DB1
:102E800019D0052D1ED0062D23D02CE0002159A2EB
:102E90000846FFF79BFA5DA221E0002161A20846E7
:102EA000FFF794FA66A21AE000216CA20846FFF729
:102EB0008DFA71A213E0002176A20846FFF786FA88
:102EC0007AA20CE000217FA20846FFF77FFA83A2D6
:102ED00005E0002188A20846FFF778FA8CA20121BC
:102EE0000020FFF773FA3046FDF7EAFDFFF70EF911
:102EF000012D0AD0022D0BD0032D0CD0042D0DD0A6
:102F0000052D0ED0062D0FD013E0224686A10DE030
:102F1000224688A10AE0224689A107E022468BA129
:102F200004E022468CA101E022468EA16846FDF70E
:102F30001BFA6A4601210020FFF748FAECE6000080
:102F40004D454E5520534554204441544520544945
:102F50004D450000000C024053657420486F7572A7
:102F60002076616C75652025642073617665640048
:102F7000536574204D696E7574652076616C756556
:102F80002025642073617665640000005365742019
:102F90005365636F6E642076616C756520256420CF
:102FA0007361766564000000536574204461792084
:102FB00076616C7565202564207361766564000018
:102FC000536574204D6F6E74682076616C75652052
:102FD00025642073617665640000000053657420E9
:102FE000596561722076616C756520256420736176
:102FF000766564005361766520486F75722076614E
:103000006C7565206661696C65640000426563618A
:1030100075736520486F75722076616C75652069DF
:103020007320300053617665204D696E757465209C
:1030300076616C7565206661696C656400000000EE
:1030400042656361757365204D696E7574652076A0
:10305000616C7565206973203000000053617665EE
:10306000205365636F6E642076616C7565206661C0
:10307000696C6564000000004265636175736520DA
:103080005365636F6E642076616C7565206973208B
:103090003000000053617665204461792076616CD0
:1030A0007565206661696C65640000004265636156
:1030B000757365204461792076616C75652069734C
:1030C0002030000053617665204D6F6E7468207665
:1030D000616C7565206661696C6564004265636159
:1030E000757365204D6F6E74682076616C75652010
:1030F00069732030000000005361766520796561B6
:10310000722076616C7565206661696C656400008B
:103110004265636175736520796561722076616CC3
:103120007565206973203000486F7572203A20253C
:10313000640000004D696E757465203A20256400B6
:103140005365636F6E64203A2025640044617920E2
:103150003A202564000000004D6F6E7468203A200C
:103160002564000059656172203A20256400000042
:1031700030B5154C154B9FED162ADFED162A164D6E
:10318000002200BF54F8220000EE100A1046B8EEEC
:10319000400A00F05FF883ED040AD3ED010A05EB65
:1031A0008200521C60EE800A102A80EE820A83EDB3
:1031B000030A93ED001AC0EE010A20EEA20A80ED88
:1031C000000ADFDB30BD0000BC0900200800002041
:1031D00000F07F4500007A44F000002070B50F4DEC
:1031E0004FF4FA74224620212846FFF748FD0028B4
:1031F00013D100BFFEF78AFF002109A20846FFF79E
:10320000E5F80D4A01210020FFF7E0F822460821E9
:103210002846FFF734FD0028ECD170BD00040240C1
:1032200054524F55424C452033204D41494E544154
:103230004E414E43450000000905002010B503F043
:10324000EBF903F091F902F0E1FABDE81040FFF765
:10325000C5BF00000A49B0EE401A01EB80009FEDA7
:10326000070AD0ED001ADFED040A21EE800A00EE15
:10327000810A80ED000A7047C520303ECFF7533FEA
:10328000B000002008B5FEF72BF9FFF76FFAFFF743
:10329000A1F963480024016841F4800101600068DD
:1032A000224600F48000009021463820FEF778F98D
:1032B0003820FEF767F9002211463920FEF770F931
:1032C0003920FEF75FF9002211464420FEF768F925
:1032D0004420FEF757F9544852494FF4E135016054
:1032E000C0E901540C26C460C0E904468461C4618D
:1032F000FEF7CCFD08B172B6FEE74B484B494430AF
:103300000160C0E90154C460C0E904468461C4613D
:10331000FEF7BCFD08B172B6FEE7FFF785F8444939
:103320001022A1F54C70FDF739FD3F498022E831AC
:103330003D48FEF71DFC3C4888300068016821F0DC
:103340000801016002212820FEF774FF00210846D1
:10335000FEF73AFF002137A20846FFF737F83BA2F5
:1033600001210020FFF732F84FF47A70FDF7A8FB37
:10337000FEF7CCFE3A4C3B4D3B4E2078A8B1286876
:1033800001283CD00228F8D138A200210E20FFF7F6
:103390001DF8394A01210A20FFF718F8307808B1E2
:1033A00002F004FC00F0D0FAE7E702F01DFF00B1E4
:1033B00001202070FEF7AAFE20780028F5D02F48C3
:1033C0002FA12A6803681A488038FCF7CDFF002136
:1033D00030A20846FEF7FAFF154A0121803A002084
:1033E000FEF7F4FF03F078F8307808B102F0DEFB66
:1033F0004FF4FA60FDF764FBFEF788FEBDE71BA201
:1034000000210E20FEF7E2FF1B4A01210A20FEF7F1
:10341000DDFF307808B102F0C9FB01F019FDACE71F
:103420003038024000100140D40600200014014052
:10343000BC0900203D3D3D3D3E204D5554414E547C
:1034400020322E30203C3D3D3D3D00003D3D3E20A4
:103450004649524520414C41524D203C3D3D0000E3
:103460006600002044000020630000204D555441B8
:103470004E5420322E300000090500203800002074
:103480004D4F4445202564207C7C20494E54202506
:103490006400000053595354454D2052554E4E4937
:1034A0004E47000070B5FEF731FE4FF4FA661B4D33
:1034B000B41000211AA20846FEF788FF23A20121BA
:1034C0000020FEF783FF224608212846FFF7D7FB9E
:1034D00058B1224602212846FFF7D1FB0028E8D147
:1034E000FEF714FE0024204670BDFEF70FFE0021FB
:1034F0001FA20846FEF76AFF24A201210020FEF762
:1035000065FF3046FDF7DCFAFEF700FE02F0D8FD5D
:103510000028CED00124FEF7F9FDE4E7000C0240BC
:103520003D3D3D3D3D3D3D3D3D3D3E204D454E55A6
:10353000205343414E2053454E534F52203C3D3D76
:103540003D3D3D3D3D3D3D3D0000000050726573F9
:1035500073204F4B20544F205343414E206F722015
:103560004241434B20544F2043414E43454C0000C1
:1035700053656E736F72207363616E206973207080
:10358000726F63657373656400000000506C656161
:10359000736520776169742E2E2E00002DE9F041AD
:1035A0000024FEF7B3FD002127A20846FEF70EFF18
:1035B0002B4D2C4FA0464FF4FA7632461021384658
:1035C000FFF75DFB90B1324640213846FFF757FBCD
:1035D00088B1324608213846FFF751FB80B13246A8
:1035E00002213846FFF74BFB70B11FE0641C022C30
:1035F0001CDD022426E0641E002C17DC01241FE0E1
:10360000012C08D0022C0BD0FEF780FD0020C5F85D
:103610002880BDE8F081FEF779FD0120014603E036
:10362000FEF774FD01200221A962F2E7012C07D008
:10363000022C07D00CA201210020FEF7C7FEBCE738
:1036400010A2F8E716A2F6E73D3E204D454E552064
:1036500053454E53494E47204D4F4445203C3D0075
:103660001C000020000C02405553452055502644B4
:103670004F574E204B45595320544F2053454C45EE
:10368000435400004D4F44452053494E474C45207C
:1036900057495245202020202020202020200000B3
:1036A0004D4F44452043524F5353205749524520D4
:1036B00020202020202020202020000070B500267F
:1036C0002C4D3446641CE4B2012C0AD0022C10D0DC
:1036D000032C17D0042C1ED0052C25D0062C2CD062
:1036E00033E00120FFF702FB10F0FF0028703FD00D
:1036F0002EE00220FFF7FAFA10F0FF00687024D1E4
:10370000002422E00320FFF7F1FA10F0FF00A87078
:103710001BD1012419E00420FFF7E8FA10F0FF00A4
:10372000E87012D1022410E00520FFF7DFFA10F054
:10373000FF00287109D1032407E00620FFF7D6FA1D
:1037400010F0FF00687100D1042428780028B9D057
:1037500068780028B6D0A8780028B3D0E878002888
:10376000B0D028790028ADD068790028AAD00126E9
:10377000304670BD1C00002070B50024FEF7C6FC6A
:10378000124E4FF4FA7500BF02F090F82A4602215B
:103790003046FFF774FA0028F6D10D48FCF792FE88
:1037A0000B4D103D012802D901202870641C0848E7
:1037B0002830FCF787FE012802D902206870641CBB
:1037C0000CB1012070BD002070BD0000000C024053
:1037D000090200202DE9F04188B00024FEF796FC94
:1037E000002137A20846FEF7F1FD3C4E3C4D4FF458
:1037F000FA774FF4FA68642240212846FFF73FFA2F
:1038000090B1642210212846FFF739FAA8B13A4650
:1038100002212846FFF733FAD8B13A460821284654
:10382000FFF72DFAC0B140E0641CFEF76FFC0021E9
:1038300023A20846FEF7CAFD37E0641EFEF766FCC9
:1038400000211FA20846FEF7C1FD002C2DDC00243C
:103850002BE00025F56113E0B4B10125F461FEF71A
:1038600055FC22461FA16846FCF77EFD6A460121F1
:103870000020FEF7ABFD4046FDF722F9FEF746FCBF
:1038800008B02846BDE8F081FEF740FC00211CA2EC
:103890000846FEF79BFD21A201210020FEF796FDC0
:1038A0004046FDF70DF9FEF731FC224623A168469C
:1038B000FCF75AFD6A4601210020FEF787FD9AE7D2
:1038C0004D454E5520534554205448524553484F7A
:1038D0004C442056414C5545000000001C0000207F
:1038E000000C02405468726573686F6C64207661E6
:1038F0006C756520256420736176656400000000A6
:1039000053617665207468726573686F6C642076A5
:10391000616C7565206661696C6564004265636110
:10392000757365207468726573686F6C6420766166
:103930006C756520697320300000000056414C55BD
:1039400045203A20256400002DE9F05FDFF80CB433
:1039500002250BF18000DBED000AD0ED001A0027F4
:10396000FF4EF4EEE10A4FF0010AF1EE10FA4FF4C7
:103970007A78A0F1400900F1400461DDFEF7C6FB52
:1039800084F800A0F748FCF79DFD022808D3F3480F
:10399000F44AF5A17438FCF7E7FCF04A743A00E009
:1039A000F6A201210020FEF711FD4046FFF772F953
:1039B00002F044FDFA2208213046FFF760F950B1C9
:1039C000E6489BED010A8030D0ED010AB4EEE00A32
:1039D000F1EE10FAD4DDFEF799FB0020FFF768F94D
:1039E000FEF794FB002002F055FA012002F052FA93
:1039F00025706570DB48FCF765FD02280ED3E348AF
:103A0000FCF760FD022809D3D448E04BD54AE0A179
:103A10007438FCF7A9FCD14A743A00E0E1A2012114
:103A20000020FEF7D3FC4046FFF734F902F006FD14
:103A3000FA2208213046FFF722F90028D2D170E09F
:103A4000C6489BED010A803090ED011AB4EEC10A20
:103A5000F1EE10FA72DDFEF759FBD7A200210E201D
:103A6000FEF7B4FCC948FCF72DFD022808D3BB487B
:103A7000C64AD4A17438FCF777FCB84A743A00E01F
:103A8000D4A201210020FEF7A1FC84F801A0404649
:103A9000FFF700F902F0D2FCFA2208213046FFF7C6
:103AA000EEF850B1AD489BED000A8030D0ED000A31
:103AB000B4EEE00AF1EE10FAD4DDFEF727FB0020A9
:103AC000FFF7F6F8FEF722FB002002F0E3F90120F1
:103AD00002F0E0F925706570A248FCF7F3FC0228BB
:103AE0000ED3AA48FCF7EEFC022809D39B48A74B4B
:103AF0009C4AA7A17438FCF737FC984A743A00E056
:103B0000A8A201210020FEF761FC4046FFF7C2F8A1
:103B100002F094FCFA2208213046FFF7B0F80028A2
:103B2000D2D1FEF7F3FA002002F096F8012002F05D
:103B300093F80020FFF7BCF847E0FFE799ED002A73
:103B4000F4EEC20AF1EE10FA1BDDF4EEE10AF1EE3A
:103B500010FA16D2277002F071FC9BED010AD9ED24
:103B6000010AB4EEE00AF1EE10FA2EDD7B48803057
:103B7000D0ED010AB4EEE00AF1EE10FA25D267703A
:103B800021E0D9ED010AB4EEE00AF1EE10FA1CDDF5
:103B9000B4EEC10AF1EE10FA17D2677002F04EFCD3
:103BA0009BED000AD9ED000AB4EEE00AF1EE10FA3E
:103BB0000BDD6A488030D0ED000AB4EEE00AF1EE89
:103BC00010FA02D2277002F039FC6448DBED020AD9
:103BD0008030D0ED021AF4EEE10AF1EE10FA61DD68
:103BE000FEF794FA7F48FCF76DFC022808D35B4887
:103BF0007C4A74A17438FCF7B7FB584A743A00E069
:103C000079A201210020FEF7E1FB84F802A04046E2
:103C1000FFF740F802F012FCFA2208213046FFF7C5
:103C20002EF850B14D489BED030A8030D0ED030AC9
:103C3000B4EEE00AF1EE10FAD4DDFEF767FA0020E8
:103C4000FFF736F8FEF762FA022002F023F90320AC
:103C500002F020F9A570E5706248FCF733FC0228F9
:103C60000ED36548FCF72EFC022809D33B48624B73
:103C70005C4A47A17438FCF777FB384A743A00E095
:103C80005EA201210020FEF7A1FB4046FFF702F8EB
:103C900002F0D4FBFA2208213046FEF7F0FF00289C
:103CA000D2D1D2E02D489BED030A803090ED031A6B
:103CB000B4EEC10AF1EE10FA4EDDFEF727FA4E48D7
:103CC000FCF700FC022808D324484B4A3DA1743875
:103CD000FCF74AFB214A743A00E04DA20121002082
:103CE000FEF774FB84F803A04046FEF7D3FF02F012
:103CF000A5FBFA2208213046FEF7C1FF50B1174854
:103D00009BED020A8030D0ED020AB4EEE00AF1EE3B
:103D100010FAD4DDFEF7FAF90020FEF7C9FFFEF72E
:103D2000F5F9022002F0B6F8032002F0B3F8A5700E
:103D3000E5702C48FCF7C6FB022873D32E48FCF72D
:103D4000C1FB02286ED305482B4B264A10A17438BC
:103D5000FCF70AFB014A63E083E063E0F000002027
:103D600000040240090200205A4F4E4520257320CE
:103D7000414B544946202020000000005365676DE8
:103D8000656E74203120414B5449460031020020B9
:103D90005A4F4E45202573202620257320414B5431
:103DA000494600005365676D656E742031202620FA
:103DB0003220414B544946004D5554414E54203217
:103DC0002E3000005A4F4E4520257320414B544958
:103DD000460000005365676D656E74203220414BCC
:103DE00054494600590200205365676D656E742082
:103DF0003320414B54494600810200205365676DD2
:103E0000656E7420332026203420414B54494600EF
:103E10005365676D656E74203420414B54494600EC
:103E2000743A01E0AFF22C0201210020FEF7CEFA35
:103E30004046FEF72FFF02F001FBFA220821304630
:103E4000FEF71DFF00287FF46CAFFEF75FF902203C
:103E500001F002FF032001F0FFFE0020FEF728FF23
:103E600044E099ED022AF4EEC20AF1EE10FA1ADDEE
:103E7000F4EEE10AF1EE10FA15D2A77002F0DEFAC4
:103E80009BED030AD9ED030AB4EEE00AF1EE10FA55
:103E90002CDDFD48D0ED030AB4EEE00AF1EE10FA95
:103EA00024D2E77020E0D9ED030AB4EEE00AF1EE87
:103EB00010FA1BDDB4EEC10AF1EE10FA16D2E7706B
:103EC00002F0BCFA9BED020AD9ED020AB4EEE00A58
:103ED000F1EE10FA0ADDEC48D0ED020AB4EEE00A89
:103EE000F1EE10FA02D2A77002F0A8FAE648DBED74
:103EF000040AD0ED041AF4EEE10AF1EE10FA62DDE4
:103F0000FEF704F9E148FCF7DDFA022809D3DF4A9D
:103F1000AFF25011DC48F438FCF726FADA4AF43AEA
:103F200000E0DBA201210020FEF750FA84F804A093
:103F30004046FEF7AFFE02F081FAFA220821304631
:103F4000FEF79DFE48B1D0489BED050AD0ED050A6D
:103F5000B4EEE00AF1EE10FAD4DDFEF7D7F8002057
:103F6000FEF7A6FEFEF7D2F8042001F093FF05202D
:103F700001F090FF25716571C448FCF7A3FA02288F
:103F80000FD3C748FCF79EFA02280AD3C44BBF4A96
:103F9000AFF20421BC48F438FCF7E6F9BA4AF43A27
:103FA00000E0C0A201210020FEF710FA4046FEF713
:103FB00071FE02F043FAFA2208213046FEF75FFE56
:103FC0000028D1D16BE0B0489BED050A90ED051AB1
:103FD000B4EEC10AF1EE10FA6DDDFEF797F8B048C5
:103FE000FCF770FA022809D3AD4AAFF22821A6489F
:103FF000F438FCF7B9F9A44AF43A00E0AEA2012182
:104000000020FEF7E3F984F805A04046FEF742FEE3
:1040100002F014FAFA2208213046FEF730FE48B1C9
:1040200099489BED040AD0ED040AB4EEE00AF1EEE3
:1040300010FAD4DDFEF76AF80020FEF739FEFEF72D
:1040400065F8042001F026FF052001F023FF25710B
:1040500065718E48FCF736FA02280FD39048FCF7BA
:1040600031FA02280AD38E4B884AAFF2DC21864807
:10407000F438FCF779F9844AF43A00E089A2012186
:104080000020FEF7A3F94046FEF704FE02F0D6F941
:10409000FA2208213046FEF7F2FD0028D1D1FEF7C2
:1040A00035F8042001F0D8FD052001F0D5FD0020F1
:1040B000FEF7FEFD47E099ED042A5846F4EEC20AE9
:1040C000F1EE10FA1BDDF4EEE10ADA46F1EE10FA39
:1040D00015D2277102F0B2F99AED050AD9ED050A59
:1040E000B4EEE00AF1EE10FA2DDD6748D0ED050AD6
:1040F000B4EEE00AF1EE10FA25D2677121E0D9EDB5
:10410000050AB4EEE00AF1EE10FA1CDDB4EEC10AC5
:104110008246F1EE10FA16D2677102F08FF99AED2D
:10412000040AD9ED040AB4EEE00AF1EE10FA0ADD51
:104130005548D0ED040AB4EEE00AF1EE10FA02D2CE
:10414000277102F07BF9DA469BED060ADFF838B1F9
:104150009BED061AB4EEC10AF1EE10FA61DDFDF72F
:10416000D5FF5948FCF7AEF9022809D3564AAFF2F9
:10417000AC314548F438FCF7F7F8434AF43A00E02C
:1041800052A201210020FEF721F9A5714FF4FA6037
:10419000FEF780FD02F052F9FA2208213046FEF7C0
:1041A0006EFD40B19AED070ADBED070AB4EEE00AB6
:1041B000F1EE10FAD5DDFDF7A9FF0020FEF778FD3E
:1041C000FDF7A4FF062001F065FE072001F062FE66
:1041D000A571E5714148FCF775F902280FD33A48FB
:1041E000FCF770F902280AD33C4B374AAFF2604122
:1041F0002548F438FCF7B8F8234AF43A00E038A22E
:1042000001210020FEF7E2F84046FEF743FD02F0F0
:1042100015F9FA2208213046FEF731FD0028D1D1E8
:10422000A8E0DAED070A9BED072AF4EEC20AF1EEE8
:1042300010FA67DDFDF76AFF2848FCF743F902280A
:1042400009D3264AAFF284410F48F438FCF78CF8C2
:104250000D4AF43A00E027A201210020FEF7B6F84B
:10426000E5714046FEF716FD02F0E8F8FA22082153
:104270003046FEF704FD30B19AED060ADBED060A82
:10428000B4EEE00A3FE041E070010020A902002006
:104290005365676D656E74203520414B5449460067
:1042A000D10200205365676D656E7420352026208D
:1042B0003620414B544946005365676D656E742046
:1042C0003620414B54494600F90200205365676D82
:1042D000656E74203720414B54494600210300206D
:1042E0005365676D656E7420372026203820414B5A
:1042F000544946005365676D656E74203820414B04
:104300005449460042E0F1EE10FA95DDFDF7FEFE5D
:104310000020FEF7CDFCFDF7F9FE062001F0BAFD06
:10432000072001F0B7FDA571E571F948FCF7CAF85F
:1043300002280DD3F748FCF7C5F8022808D3F44B40
:10434000F44AAFF2B451F448FCF70EF8F24A01E037
:10435000AFF2740201210020FEF738F84046FEF764
:1043600099FC02F06BF8FA2208213046FEF787FC30
:104370000028D2D1FDF7CAFE062001F06DFC07200F
:1043800001F06AFC0020FEF793FC3AE0D9ED061A32
:10439000B4EEE10AF1EE10FA19DDB4EEC10AF1EE65
:1043A00010FA14D2A77102F049F89AED070AD9ED74
:1043B000070AB4EEE00AF1EE10FA22DDDBED070A9F
:1043C000B4EEE00AF1EE10FA1BD2E77117E0D9ED76
:1043D000072AF4EEE20AF1EE10FA12DDF4EEC20A58
:1043E000F1EE10FA0DD2B4EEE10AE771F1EE10FA37
:1043F00007DDB4EEC10AF1EE10FA02D2A77102F0A5
:104400001DF8DAED080ADBED081AF4EEE10AF1EE28
:1044100010FA5CDDFDF77AFEC048FCF753F802287D
:1044200007D3BE4AAFF26461BB48FBF79DFFBA4AAF
:1044300000E0BBA201210020FDF7C8FF2572404625
:10444000FEF728FC01F0FAFFFA2208213046FEF7B9
:1044500016FC40B19AED090ADBED090AB4EEE00A58
:10446000F1EE10FAD8DDFDF751FE0020FEF720FC3A
:10447000FDF74CFE082001F00DFD092001F00AFDBA
:1044800025726572A548FCF71DF802280DD3A848CF
:10449000FCF718F8022808D3A54BA04AAFF2107118
:1044A0009D48FBF761FF9C4A00E0A2A20121002089
:1044B000FDF78CFF4046FEF7EDFB01F0BFFFFA224F
:1044C00008213046FEF7DBFB0028D3D164E09AEDEB
:1044D000090A9BED091AB4EEC10AF1EE10FA67DD84
:1044E000FDF714FE9248FBF7EDFF022807D3904A30
:1044F000AFF230718848FBF737FF874A00E093A29C
:1045000001210020FDF762FF65724046FEF7C2FB05
:1045100001F094FFFA2208213046FEF7B0FB40B1CB
:104520009AED080ADBED080AB4EEE00AF1EE10FAA3
:10453000D8DDFDF7EBFD0020FEF7BAFBFDF7E6FD49
:10454000082001F0A7FC092001F0A4FC2572657287
:104550007248FBF7B7FF02280DD37548FBF7B2FF8F
:10456000022808D3724B6D4AAFF2DC716A48FBF740
:10457000FBFE694A00E06FA201210020FDF726FF43
:104580004046FEF787FB01F059FFFA22082130462A
:10459000FEF775FB0028D3D1FDF7B8FD082001F028
:1045A0005BFB092001F058FB0020FEF781FB42E095
:1045B00099ED082AF4EEC20AF1EE10FA19DDF4EED4
:1045C000E10AF1EE10FA14D2277201F037FF9AEDEA
:1045D000090AD9ED090AB4EEE00AF1EE10FA2ADD73
:1045E000DBED090AB4EEE00AF1EE10FA23D26772AD
:1045F0001FE0D9ED090AB4EEE00AF1EE10FA1ADD77
:10460000B4EEC10AF1EE10FA15D2677201F016FF8E
:104610009AED080AD9ED080AB4EEE00AF1EE10FAB4
:1046200009DDDBED080AB4EEE00AF1EE10FA02D281
:10463000277201F003FFDAED0A0ADBED0A1AF4EE45
:10464000E10AF1EE10FA62DDFDF760FD4448FBF788
:1046500039FF022807D3424AAFF698012E48FBF7EC
:1046600083FE2D4A00E03FA201210020FDF7AEFEAF
:10467000A5724046FEF70EFB01F0E0FEFA2208218B
:104680003046FEF7FCFA40B19AED0B0ADBED0B0A5F
:10469000B4EEE00AF1EE10FAD8DDFDF737FD0020A8
:1046A000FEF706FBFDF732FD0A2001F0F3FB0B20BD
:1046B00001F0F0FBA572E5722948FBF703FF022821
:1046C0000DD32D48FBF7FEFE022808D32A4B244ABF
:1046D000AFF644111048FBF747FE0F4A00E027A24F
:1046E00001210020FDF772FE4046FEF7D3FA01F0EB
:1046F000A5FEFA2208213046FEF7C1FA0028D3D1E0
:10470000FDF704FD002001F0A7FA0120AEE041E032
:1047100021030020F90200207C0000204903002032
:104720005365676D656E74203920414B54494600CE
:10473000710300205365676D656E74203920262053
:10474000313020414B544946000000005365676DED
:10475000656E7420313020414B5449460000000002
:10476000990300205365676D656E742031312041D7
:104770004B54494600000000C10300205365676D9B
:10478000656E74203131202620313220414B54494E
:10479000460000009AED0B0A9BED0B1AB4EEC10A1D
:1047A000F1EE10FA68DDFDF7B1FCFE48FBF78AFE7A
:1047B000022807D3FB4AAFF6F411FB48FBF7D4FD00
:1047C000F94A00E0F9A201210020FDF7FFFDE572A2
:1047D0004046FEF75FFA01F031FEFA22082130462A
:1047E000FEF74DFA40B19AED0A0ADBED0A0AB4EE83
:1047F000E00AF1EE10FAD8DDFDF788FC0020FEF7A4
:1048000057FAFDF783FC0A2001F044FB0B2001F06E
:1048100041FBA572E572EA48FBF754FE02280DD36E
:10482000E048FBF74FFE022808D3DE4BE44AAFF620
:10483000A021DD48FBF798FDDB4A01E0AFF2C4029E
:1048400001210020FDF7C2FD4046FCF739F901F0D7
:10485000F5FDFA2208213046FEF711FA0028D2D1E0
:10486000FDF754FC0A2001F0F7F90B2001F0F4F9F0
:104870000020FEF71DFA42E099ED0A2AF4EEC20A82
:10488000F1EE10FA19DDF4EEE10AF1EE10FA14D2AD
:10489000A77201F0D3FD9AED0B0AD9ED0B0AB4EE25
:1048A000E00AF1EE10FA2ADDDBED0B0AB4EEE00AC5
:1048B000F1EE10FA23D2E7721FE0D9ED0B0AB4EE45
:1048C000E00AF1EE10FA1ADDB4EEC10AF1EE10FAC8
:1048D00015D2E77201F0B2FD9AED0A0AD9ED0A0A83
:1048E000B4EEE00AF1EE10FA09DDDBED0A0AB4EEEF
:1048F000E00AF1EE10FA02D2A77201F09FFDDAEDA4
:104900000C0ADBED0C1AF4EEE10AF1EE10FA5CDDB4
:10491000FDF7FCFBAB48FBF7D5FD022807D3A94AFE
:10492000AFF66031A048FBF71FFD9F4A00E0A6A24A
:1049300001210020FDF74AFD25734046FEF7AAF944
:1049400001F07CFDFA2208213046FEF798F940B1CB
:104950009AED0D0ADBED0D0AB4EEE00AF1EE10FA65
:10496000D8DDFDF7D3FB0020FEF7A2F9FDF7CEFB63
:104970000C2001F08FFA0D2001F08CFA257365737D
:104980009048FBF79FFD02280DD39448FBF79AFD52
:10499000022808D3914B8B4AAFF60C418248FBF7B3
:1049A000E3FC814A00E08EA201210020FDF70EFD0C
:1049B0004046FEF76FF901F041FDFA22082130462A
:1049C000FEF75DF90028D3D164E09AED0D0A9BED66
:1049D0000D1AB4EEC10AF1EE10FA67DDFDF796FB91
:1049E0007E48FBF76FFD022807D37C4AAFF62C41C7
:1049F0006D48FBF7B9FC6C4A00E07FA20121002062
:104A0000FDF7E4FC65734046FEF744F901F016FD3E
:104A1000FA2208213046FEF732F940B19AED0C0A2D
:104A2000DBED0C0AB4EEE00AF1EE10FAD8DDFDF78A
:104A30006DFB0020FEF73CF9FDF768FB0C2001F050
:104A400029FA0D2001F026FA257365735D48FBF7FE
:104A500039FD02280DD36148FBF734FD022808D345
:104A60005E4B584AAFF6D8414F48FBF77DFC4E4AA3
:104A700000E05BA201210020FDF7A8FC4046FEF704
:104A800009F901F0DBFCFA2208213046FEF7F7F8BD
:104A90000028D3D1FDF73AFB0C2001F0DDF80D2002
:104AA00001F0DAF80020FEF703F942E099ED0C2A54
:104AB000F4EEC20AF1EE10FA19DDF4EEE10AF1EEBD
:104AC00010FA14D2277301F0B9FC9AED0D0AD9ED52
:104AD0000D0AB4EEE00AF1EE10FA2ADDDBED0D0A64
:104AE000B4EEE00AF1EE10FA23D267731FE0D9EDBD
:104AF0000D0AB4EEE00AF1EE10FA1ADDB4EEC10AC6
:104B0000F1EE10FA15D2677301F098FC9AED0C0AD9
:104B1000D9ED0C0AB4EEE00AF1EE10FA09DDDBED96
:104B20000C0AB4EEE00AF1EE10FA02D2277301F09B
:104B300085FC1D48DAED0E0AF430D0ED0E1AF4EEC5
:104B4000E10AF1EE10FA2CDDFDF7E0FA4746DFF856
:104B5000588008F1F4082D48FBF7B4FC022807D36D
:104B60002A4AAFF6A0511048FBF7FEFB0E4A00E0C0
:104B700027A201210020FDF729FCA5733846FEF786
:104B800089F801F05BFCFA2208213046FEF777F83D
:104B900030B19AED0F0AD8ED0F0AB4EEE00A41E009
:104BA00043E076E0C10300207C0000205365676D80
:104BB000656E7420313220414B544946000000009C
:104BC00099030020E90300205365676D656E74202A
:104BD000313320414B5449460000000011040020AD
:104BE0005365676D656E7420313320262031342083
:104BF000414B5449460000005365676D656E742053
:104C0000313420414B544946000000003904002053
:104C10005365676D656E7420313520414B544946AC
:104C200000000000F1EE10FA95DDFDF76FFA0020AC
:104C3000FEF73EF8FDF76AFA0E2001F02BF90F207F
:104C400001F028F9A573E5737348FBF73BFC0228D4
:104C50000DD37248FBF736FC022808D36F4B6E4A1F
:104C6000AFF6D4616E48FBF77FFB6D4A00E06DA2A2
:104C700001210020FDF7AAFB3846FEF70BF801F0F2
:104C8000DDFBFA2208213046FDF7F9FF0028D3D1D9
:104C90006BE0D3469AED0F0ADFF884A10AF1F40A1B
:104CA0009AED0F1AB4EEC10AF1EE10FA6ADDFDF7C3
:104CB0002DFA37465948FBF705FC022807D3574A17
:104CC000AFF600715648FBF74FFB554A00E05BA278
:104CD00001210020FDF77AFBE57346464046FDF7CB
:104CE000D9FF01F0ABFBFA2208213846FDF7C7FFD8
:104CF00040B19BED0E0ADAED0E0AB4EEE00AF1EED9
:104D000010FAD7DDFDF702FA0020FDF7D1FFFDF71D
:104D1000FDF90E2001F0BEF80F2001F0BBF8A573DD
:104D2000E5733D48FBF7CEFB02280DD33B48FBF76C
:104D3000C9FB022808D3394B374AAFF6AC71384863
:104D4000FBF712FB364A00E036A201210020FDF7F6
:104D50003DFB3046FDF79EFF01F070FBFA22082173
:104D60003846FDF78CFF0028D3D1FDF7CFF90E2090
:104D700000F072FF0F2000F06FFFBDE8F05F002031
:104D8000FDF796BF99ED0E2A5D464E46F4EEC20A37
:104D9000F1EE10FA19DDF4EEE10AF1EE10FA14D298
:104DA000A77301F04BFB95ED0F0AD6ED0F0AB4EE99
:104DB000E00AF1EE10FA2CDDDAED0F0AB4EEE00AAB
:104DC000F1EE10FA25D2E7731FE0D6ED0F0AB4EE2C
:104DD000E00AF1EE10FA1CDDB4EEC10AF1EE10FAB1
:104DE00017D2E77301F02AFB95ED0E0AD6ED0E0AF5
:104DF000B4EEE00AF1EE10FA0BDDDAED0E0AB4EED5
:104E0000E00AF1EE10FA04D2A773BDE8F05F01F0FA
:104E100015BBBDE8F09F00003904002061040020AC
:104E20007C0000205365676D656E74203135202647
:104E300020313620414B5449460000005365676DD0
:104E4000656E7420313620414B5449460000000005
:104E50002DE9F05FDFF80494022509F1800A99ED4D
:104E6000000ADAED000AFE4F4FF00008B4EEE00A47
:104E700009F1C004F1EE10FA4FF47A7635DDFDF752
:104E800045F9002001F006F8FA20FDF703FF257030
:104E9000F448FBF717FB022808D3F048F14AF2A1C7
:104EA0007438FBF761FAED4A743A00E0F2A201218E
:104EB0000020FDF78BFAE94A0121743A0020FDF742
:104EC00085FA3046FBF7FCFD01F0B8FAC82208214C
:104ED0003846FDF7D4FE0028D3D1FDF7E9FE0020C7
:104EE00000F0BAFEFDF712F903E084F8008001F04B
:104EF000A5FA99ED010ADAED010AB4EEE00AF1EE45
:104F000010FA35DDFDF702F9012000F0C3FFFA20A9
:104F1000FDF7C0FE6570DC48FBF7D4FA022808D321
:104F2000CE48D94AD0A17438FBF71EFACB4A743A5E
:104F300000E0D6A201210020FDF748FAC74A01216E
:104F4000743A0020FDF742FA3046FBF7B9FD01F054
:104F500075FAC82208213846FDF791FE0028D3D102
:104F6000FDF7A6FE012000F077FEFDF7CFF803E085
:104F700084F8018001F062FA99ED020ADAED020A82
:104F8000B4EEE00AF1EE10FA35DDFDF7BFF80220CD
:104F900000F080FFFA20FDF77DFEA570BF48FBF70B
:104FA00091FA022808D3AD48BC4AAFA17438FBF788
:104FB000DBF9AA4A743A00E0B9A201210020FDF70A
:104FC00005FAA64A0121743A0020FDF7FFF93046A0
:104FD000FBF776FD01F032FAC82208213846FDF7CA
:104FE0004EFE0028D3D1FDF763FE022000F034FE10
:104FF000FDF78CF803E084F8028001F01FFA99EDC8
:10500000030ADAED030ACB46D146B4EEE00AF1EE2C
:1050100010FA35DDFDF77AF8032000F03BFFFA20A7
:10502000FDF738FEE570A248FBF74CFA022808D3DA
:105030008A489F4A8CA17438FBF796F9874A743ADC
:1050400000E09CA201210020FDF7C0F9834A012164
:10505000743A0020FDF7BAF93046FBF731FD01F054
:10506000EDF9C82208213846FDF709FE0028D3D102
:10507000FDF71EFE032000F0EFFDFDF747F803E00B
:1050800084F8038001F0DAF99BED040AD9ED040AF3
:10509000DA46B4EEE00AF1EE10FA35DDFDF736F847
:1050A000042000F0F7FEFA20FDF7F4FD2571854895
:1050B000FBF708FA022808D36848824A6AA17438C4
:1050C000FBF752F9654A743A00E07FA20121002003
:1050D000FDF77CF9614A0121743A0020FDF776F969
:1050E0003046FBF7EDFC01F0A9F9C822082138464B
:1050F000FDF7C5FD0028D3D1FDF7DAFD042000F04F
:10510000ABFDFDF703F803E084F8048001F096F9A5
:105110009AED050AD9ED050AB4EEE00AF1EE10FAAF
:1051200035DDFCF7F3FF052000F0B4FEFA20FDF7B3
:10513000B1FD65716848FBF7C5F9022808D34748F7
:10514000654A49A17438FBF70FF9444A743A00E004
:1051500062A201210020FDF739F9404A0121743A89
:105160000020FDF733F93046FBF7AAFC01F066F9A1
:10517000C82208213846FDF782FD0028D3D1FDF76B
:1051800097FD052000F068FDFCF7C0FF03E084F800
:10519000058001F053F99AED060AD9ED060AB4EE3E
:1051A000E00AF1EE10FA35DDFCF7B0FF062000F062
:1051B00071FEFA20FDF76EFDA5714C48FBF782F9F0
:1051C000022808D32548494A27A17438FBF7CCF8B0
:1051D000224A743A00E046A201210020FDF7F6F8C9
:1051E0001E4A0121743A0020FDF7F0F83046FBF723
:1051F00067FC01F023F9C82208213846FDF73FFD7E
:105200000028D3D1FDF754FD062000F025FDFCF762
:105210007DFF03E084F8068001F010F99AED070A9B
:10522000D9ED070AB4EEE00AF1EE10FA6ADDFCF7F8
:105230006DFF072000F02EFEFA20FDF72BFDE57133
:105240002F48FBF73FF902285DD304482C4A06A1FA
:105250007438FBF789F8014A743A55E0F0000020F1
:1052600000040240090200205A4F4E4520257320B9
:10527000414B5449462020005365676D656E74208C
:105280003120414B54494600310200205365676D7F
:10529000656E74203220414B54494600590200206B
:1052A0005365676D656E74203320414B5449460049
:1052B000810200205365676D656E74203420414B78
:1052C00054494600A90200205365676D656E74203D
:1052D0003520414B54494600D10200205365676D8B
:1052E000656E74203620414B54494600F902002077
:1052F0005365676D656E74203720414B54494600F5
:10530000210300201EE0F7A201210020FDF75EF836
:10531000F84A01210020FDF759F83046FBF7D0FB91
:1053200001F08CF8C82208213846FDF7A8FC0028B7
:105330007FF47FAFFDF7BCFC072000F08DFCFCF78D
:10534000E5FE03E084F8078001F078F89AED080A9A
:10535000D9ED080ACB46B4EEE00AF1EE10FA33DDDF
:10536000FCF7D4FE082000F095FDFA20FDF792FC32
:105370002572E148FBF7A6F8022807D3DE4AAFF210
:105380001811DC48FAF7F0FFDA4A00E0DBA201214D
:105390000020FDF71BF8D74A01210020FDF716F881
:1053A0003046FBF78DFB01F049F8C822082138464A
:1053B000FDF765FC0028D5D1FDF77AFC082000F048
:1053C0004BFCFCF7A3FE03E084F8088001F036F8FC
:1053D0009AED090ADBED090AD146DA46B4EEE00A95
:1053E000F1EE10FA32DDFCF791FE092000F052FDDB
:1053F000FA20FDF74FFC6572C448FBF763F80228FA
:1054000006D3C24AC2A1BB48FAF7AEFFB94A00E0D0
:10541000C4A201210020FCF7D9FFB64A01210020D7
:10542000FCF7D4FF3046FBF74BFB01F007F8C8222E
:1054300008213846FDF723FC0028D6D1FDF738FCBB
:10544000092000F009FCFCF761FE03E084F8098004
:1054500000F0F4FF99ED0A0ADAED0A0AB4EEE00A68
:10546000F1EE10FA2DDDFCF751FE0A2000F012FDDE
:10547000FA20FDF70FFC6572AF48FBF723F802280E
:1054800006D3AD4AA2A19B48FAF76EFF994A00E005
:10549000AAA201210020FCF799FF3046FBF710FB80
:1054A00000F0CCFFC82208213846FDF7E8FB0028B1
:1054B000DBD1FDF7FDFB0A2000F0CEFBFCF726FE5A
:1054C00003E084F80A8000F0B9FF99ED0B0ADAEDE9
:1054D0000B0AB4EEE00AF1EE10FA2DDDFCF716FE31
:1054E0000B2000F0D7FCFA20FDF7D4FBE5729848BA
:1054F000FAF7E8FF022806D3954A85A17D48FAF716
:1055000033FF7C4A00E093A201210020FCF75EFFFC
:105510003046FBF7D5FA00F091FFC8220821384643
:10552000FDF7ADFB0028DBD1FDF7C2FB0B2000F03F
:1055300093FBFCF7EBFD03E084F80B8000F07EFFAB
:1055400099ED0C0ADAED0C0AB4EEE00AF1EE10FA6D
:105550002DDDFCF7DBFD0C2000F09CFCFA20FDF7B4
:1055600099FB25738048FAF7ADFF022806D37E4ADF
:1055700067A16048FAF7F8FE5E4A00E07BA20121CD
:105580000020FCF723FF3046FBF79AFA00F056FFA5
:10559000C82208213846FDF772FB0028DBD1FDF751
:1055A00087FB0C2000F058FBFCF7B0FD03E084F80B
:1055B0000C8000F043FF99ED0D0ADAED0D0AB4EE10
:1055C000E00AF1EE10FA2DDDFCF7A0FD0D2000F051
:1055D00061FCFA20FDF75EFB65736948FAF772FF1C
:1055E000022806D3664A4AA14248FAF7BDFE414A5C
:1055F00000E064A201210020FCF7E8FE3046FBF742
:105600005FFA00F01BFFC82208213846FDF737FB80
:105610000028DBD1FDF74CFB0D2000F01DFBFCF753
:1056200075FD03E084F80D8000F008FF99ED0E0A87
:10563000DAED0E0ACB46D146B4EEE00AF1EE10FAEE
:105640002DDDFCF763FD0E2000F024FCFA20FDF7B1
:1056500021FBA5735048FAF735FF022806D34E4ABE
:105660002BA12448FAF780FE224A00E04BA2012138
:105670000020FCF7ABFE3046FBF722FA00F0DEFE1E
:10568000C82208213846FDF7FAFA0028DBD1FDF7D9
:105690000FFB0E2000F0E0FAFCF738FD03E084F881
:1056A0000E8000F0CBFE9BED0F0AD9ED0F0AB4EE91
:1056B000E00AF1EE10FA14DDFCF728FD0F2000F0EF
:1056C000E9FBFA20FDF7E6FAE5733948FAF7FAFE46
:1056D000022870D3364A0EA10648FAF745FE054A5D
:1056E0006AE083E05365676D656E74203820414B36
:1056F000544946007C000020490300205365676D33
:10570000656E74203920414B5449460071030020D6
:105710005A4F4E4520257320414B544946202020A6
:10572000000000005365676D656E742031302041C4
:105730004B54494600000000990300205365676DF3
:10574000656E7420313120414B5449460000000001
:10575000C10300205365676D656E742031322041AE
:105760004B54494600000000E90300205365676D73
:10577000656E7420313320414B54494600000000CF
:10578000110400205365676D656E7420313420412B
:105790004B54494600000000390400205365676DF2
:1057A000656E7420313520414B544946000000009D
:1057B00061040020FFE710A201210020FCF706FE93
:1057C0003046FBF77DF900F039FEC8220821384643
:1057D000FDF755FA00287FF471AFFDF769FA0F2045
:1057E00000F03AFABDE8F05FFCF790BC84F80F8057
:1057F000BDE8F05F00F022BE5365676D656E7420F2
:10580000313620414B5449460000000070B5224813
:10581000017801BB4178F1B98178E1B9C178D1B99A
:105820000179C1B94179B1B98179A1B9C17991B988
:10583000017A81B9417A71B9817A61B9C17A51B974
:10584000017B41B9417B31B9817B21B9C17B11B960
:10585000007C00281ED04FF4FA74224680210F48A5
:10586000FDF70DFA002815D1112000F0F5F9FCF72D
:105870004DFC0B4D00210BA20846FCF7A7FD22466C
:1058800008212846FDF7FBF90028F3D1BDE8704058
:10589000FCF73CBC70BD0000C0010020000C0240C1
:1058A000000402404D5554450000000070B5564CB0
:1058B0002069002801DA0F2002E00F2801DD002016
:1058C0002061524D4FF4FA76324640212846FDF7CA
:1058D000D6F960B1324610212846FDF7D0F948B11B
:1058E000324608212846FDF7CAF938B159E0206947
:1058F000401C01E02069401E206152E0FCF706FCDC
:105900002069102848D2DFE800F0080B0F13171B9E
:105910001F23262A2E32363A3E413D49012038E0E7
:105920003B492831022034E039495031032030E02E
:105930003749783104202CE03549A031052028E092
:105940003349C831062024E03149F031072020E0F6
:10595000304908201DE02F492831092019E02D4940
:1059600050310A2015E02B4978310B2011E02949EC
:10597000A0310C200DE02749C8310D2009E0254950
:10598000F0310E2005E024490F2002E022491020CA
:10599000283100F095FE04E0002120A20846FCF723
:1059A00015FD206910282ED2DFE800F0080A0C0E41
:1059B00010121416181A1C1E202224261BA21CE0EA
:1059C00020A21AE025A218E02AA216E02FA214E0D5
:1059D00034A212E039A210E03EA20EE043A20CE095
:1059E00048A20AE04DA208E052A206E057A204E055
:1059F0005CA202E061A200E066A2BDE87040002166
:105A00000846FCF7E3BC70BD1C000020000C0240FF
:105A1000090200202103002039040020434153459E
:105A2000204C4F4F5020414741494E00494E505560
:105A300054204E414D4520494E205A4F4E4520316D
:105A40003F200000494E505554204E414D452049BD
:105A50004E205A4F4E4520323F000000494E5055CF
:105A600054204E414D4520494E205A4F4E4520333B
:105A70003F000000494E505554204E414D452049AD
:105A80004E205A4F4E4520343F000000494E50559D
:105A900054204E414D4520494E205A4F4E45203509
:105AA0003F000000494E505554204E414D4520497D
:105AB0004E205A4F4E4520363F000000494E50556B
:105AC00054204E414D4520494E205A4F4E452037D7
:105AD0003F000000494E505554204E414D4520494D
